{"contracts/NFTMarketplace.sol":{"NFTMarketplace":{"abi":[{"inputs":[],"stateMutability":"nonpayable","type":"constructor"},{"anonymous":false,"inputs":[{"indexed":true,"internalType":"address","name":"owner","type":"address"},{"indexed":true,"internalType":"address","name":"approved","type":"address"},{"indexed":true,"internalType":"uint256","name":"tokenId","type":"uint256"}],"name":"Approval","type":"event"},{"anonymous":false,"inputs":[{"indexed":true,"internalType":"address","name":"owner","type":"address"},{"indexed":true,"internalType":"address","name":"operator","type":"address"},{"indexed":false,"internalType":"bool","name":"approved","type":"bool"}],"name":"ApprovalForAll","type":"event"},{"anonymous":false,"inputs":[{"indexed":false,"internalType":"uint256","name":"_fromTokenId","type":"uint256"},{"indexed":false,"internalType":"uint256","name":"_toTokenId","type":"uint256"}],"name":"BatchMetadataUpdate","type":"event"},{"anonymous":false,"inputs":[{"indexed":true,"internalType":"uint256","name":"tokenId","type":"uint256"},{"indexed":false,"internalType":"address","name":"seller","type":"address"},{"indexed":false,"internalType":"address","name":"owner","type":"address"},{"indexed":false,"internalType":"uint256","name":"price","type":"uint256"},{"indexed":false,"internalType":"bool","name":"sold","type":"bool"}],"name":"MarketItemCreated","type":"event"},{"anonymous":false,"inputs":[{"indexed":false,"internalType":"uint256","name":"_tokenId","type":"uint256"}],"name":"MetadataUpdate","type":"event"},{"anonymous":false,"inputs":[{"indexed":true,"internalType":"address","name":"from","type":"address"},{"indexed":true,"internalType":"address","name":"to","type":"address"},{"indexed":true,"internalType":"uint256","name":"tokenId","type":"uint256"}],"name":"Transfer","type":"event"},{"inputs":[{"internalType":"address","name":"to","type":"address"},{"internalType":"uint256","name":"tokenId","type":"uint256"}],"name":"approve","outputs":[],"stateMutability":"nonpayable","type":"function"},{"inputs":[{"internalType":"address","name":"owner","type":"address"}],"name":"balanceOf","outputs":[{"internalType":"uint256","name":"","type":"uint256"}],"stateMutability":"view","type":"function"},{"inputs":[{"internalType":"uint256","name":"tokenId","type":"uint256"}],"name":"createMarketSale","outputs":[],"stateMutability":"payable","type":"function"},{"inputs":[{"internalType":"string","name":"tokenURI","type":"string"},{"internalType":"uint256","name":"price","type":"uint256"}],"name":"createToken","outputs":[{"internalType":"uint256","name":"","type":"uint256"}],"stateMutability":"payable","type":"function"},{"inputs":[],"name":"fetchItemsListed","outputs":[{"components":[{"internalType":"uint256","name":"tokenId","type":"uint256"},{"internalType":"address payable","name":"seller","type":"address"},{"internalType":"address payable","name":"owner","type":"address"},{"internalType":"uint256","name":"price","type":"uint256"},{"internalType":"bool","name":"sold","type":"bool"}],"internalType":"struct NFTMarketplace.MarketItem[]","name":"","type":"tuple[]"}],"stateMutability":"view","type":"function"},{"inputs":[],"name":"fetchMarketItems","outputs":[{"components":[{"internalType":"uint256","name":"tokenId","type":"uint256"},{"internalType":"address payable","name":"seller","type":"address"},{"internalType":"address payable","name":"owner","type":"address"},{"internalType":"uint256","name":"price","type":"uint256"},{"internalType":"bool","name":"sold","type":"bool"}],"internalType":"struct NFTMarketplace.MarketItem[]","name":"","type":"tuple[]"}],"stateMutability":"view","type":"function"},{"inputs":[],"name":"fetchMyNFTs","outputs":[{"components":[{"internalType":"uint256","name":"tokenId","type":"uint256"},{"internalType":"address payable","name":"seller","type":"address"},{"internalType":"address payable","name":"owner","type":"address"},{"internalType":"uint256","name":"price","type":"uint256"},{"internalType":"bool","name":"sold","type":"bool"}],"internalType":"struct NFTMarketplace.MarketItem[]","name":"","type":"tuple[]"}],"stateMutability":"view","type":"function"},{"inputs":[{"internalType":"uint256","name":"tokenId","type":"uint256"}],"name":"getApproved","outputs":[{"internalType":"address","name":"","type":"address"}],"stateMutability":"view","type":"function"},{"inputs":[],"name":"getListingPrice","outputs":[{"internalType":"uint256","name":"","type":"uint256"}],"stateMutability":"view","type":"function"},{"inputs":[{"internalType":"address","name":"owner","type":"address"},{"internalType":"address","name":"operator","type":"address"}],"name":"isApprovedForAll","outputs":[{"internalType":"bool","name":"","type":"bool"}],"stateMutability":"view","type":"function"},{"inputs":[],"name":"name","outputs":[{"internalType":"string","name":"","type":"string"}],"stateMutability":"view","type":"function"},{"inputs":[{"internalType":"uint256","name":"tokenId","type":"uint256"}],"name":"ownerOf","outputs":[{"internalType":"address","name":"","type":"address"}],"stateMutability":"view","type":"function"},{"inputs":[{"internalType":"uint256","name":"tokenId","type":"uint256"},{"internalType":"uint256","name":"price","type":"uint256"}],"name":"resellToken","outputs":[],"stateMutability":"payable","type":"function"},{"inputs":[{"internalType":"address","name":"from","type":"address"},{"internalType":"address","name":"to","type":"address"},{"internalType":"uint256","name":"tokenId","type":"uint256"}],"name":"safeTransferFrom","outputs":[],"stateMutability":"nonpayable","type":"function"},{"inputs":[{"internalType":"address","name":"from","type":"address"},{"internalType":"address","name":"to","type":"address"},{"internalType":"uint256","name":"tokenId","type":"uint256"},{"internalType":"bytes","name":"data","type":"bytes"}],"name":"safeTransferFrom","outputs":[],"stateMutability":"nonpayable","type":"function"},{"inputs":[{"internalType":"address","name":"operator","type":"address"},{"internalType":"bool","name":"approved","type":"bool"}],"name":"setApprovalForAll","outputs":[],"stateMutability":"nonpayable","type":"function"},{"inputs":[{"internalType":"bytes4","name":"interfaceId","type":"bytes4"}],"name":"supportsInterface","outputs":[{"internalType":"bool","name":"","type":"bool"}],"stateMutability":"view","type":"function"},{"inputs":[],"name":"symbol","outputs":[{"internalType":"string","name":"","type":"string"}],"stateMutability":"view","type":"function"},{"inputs":[{"internalType":"uint256","name":"tokenId","type":"uint256"}],"name":"tokenURI","outputs":[{"internalType":"string","name":"","type":"string"}],"stateMutability":"view","type":"function"},{"inputs":[{"internalType":"address","name":"from","type":"address"},{"internalType":"address","name":"to","type":"address"},{"internalType":"uint256","name":"tokenId","type":"uint256"}],"name":"transferFrom","outputs":[],"stateMutability":"nonpayable","type":"function"},{"inputs":[{"internalType":"uint256","name":"_listingPrice","type":"uint256"}],"name":"updateListingPrice","outputs":[],"stateMutability":"payable","type":"function"}],"evm":{"bytecode":{"linkReferences":{},"object":"60806040526658d15e176280006009553480156200001c57600080fd5b506040518060400160405280601081526020017f4d657461766572736520546f6b656e73000000000000000000000000000000008152506040518060400160405280600481526020017f4d4554540000000000000000000000000000000000000000000000000000000081525081600090816200009a919062000370565b508060019081620000ac919062000370565b50505033600a60006101000a81548173ffffffffffffffffffffffffffffffffffffffff021916908373ffffffffffffffffffffffffffffffffffffffff16021790555062000457565b600081519050919050565b7f4e487b7100000000000000000000000000000000000000000000000000000000600052604160045260246000fd5b7f4e487b7100000000000000000000000000000000000000000000000000000000600052602260045260246000fd5b600060028204905060018216806200017857607f821691505b6020821081036200018e576200018d62000130565b5b50919050565b60008190508160005260206000209050919050565b60006020601f8301049050919050565b600082821b905092915050565b600060088302620001f87fffffffffffffffffffffffffffffffffffffffffffffffffffffffffffffffff82620001b9565b620002048683620001b9565b95508019841693508086168417925050509392505050565b6000819050919050565b6000819050919050565b6000620002516200024b62000245846200021c565b62000226565b6200021c565b9050919050565b6000819050919050565b6200026d8362000230565b620002856200027c8262000258565b848454620001c6565b825550505050565b600090565b6200029c6200028d565b620002a981848462000262565b505050565b5b81811015620002d157620002c560008262000292565b600181019050620002af565b5050565b601f8211156200032057620002ea8162000194565b620002f584620001a9565b8101602085101562000305578190505b6200031d6200031485620001a9565b830182620002ae565b50505b505050565b600082821c905092915050565b6000620003456000198460080262000325565b1980831691505092915050565b600062000360838362000332565b9150826002028217905092915050565b6200037b82620000f6565b67ffffffffffffffff81111562000397576200039662000101565b5b620003a382546200015f565b620003b0828285620002d5565b600060209050601f831160018114620003e85760008415620003d3578287015190505b620003df858262000352565b8655506200044f565b601f198416620003f88662000194565b60005b828110156200042257848901518255600182019150602085019450602081019050620003fb565b868310156200044257848901516200043e601f89168262000332565b8355505b6001600288020188555050505b505050505050565b6142cb80620004676000396000f3fe60806040526004361061012a5760003560e01c80636352211e116100ab578063ae677aa31161006f578063ae677aa3146103f9578063b88d4fde14610415578063be9af5361461043e578063c87b56dd1461045a578063e219fc7514610497578063e985e9c5146104b35761012a565b80636352211e146102fb57806370a082311461033857806372b3b6201461037557806395d89b41146103a5578063a22cb465146103d05761012a565b806312e85585116100f257806312e8558514610228578063202e37401461025357806323b872dd1461027e57806342842e0e146102a757806345f8fa80146102d05761012a565b806301ffc9a71461012f57806306fdde031461016c578063081812fc14610197578063095ea7b3146101d45780630f08efe0146101fd575b600080fd5b34801561013b57600080fd5b5061015660048036038101906101519190612b8f565b6104f0565b6040516101639190612bd7565b60405180910390f35b34801561017857600080fd5b50610181610551565b60405161018e9190612c82565b60405180910390f35b3480156101a357600080fd5b506101be60048036038101906101b99190612cda565b6105e3565b6040516101cb9190612d48565b60405180910390f35b3480156101e057600080fd5b506101fb60048036038101906101f69190612d8f565b610629565b005b34801561020957600080fd5b50610212610740565b60405161021f9190612f25565b60405180910390f35b34801561023457600080fd5b5061023d6109a8565b60405161024a9190612f56565b60405180910390f35b34801561025f57600080fd5b506102686109b2565b6040516102759190612f25565b60405180910390f35b34801561028a57600080fd5b506102a560048036038101906102a09190612f71565b610c9e565b005b3480156102b357600080fd5b506102ce60048036038101906102c99190612f71565b610cfe565b005b3480156102dc57600080fd5b506102e5610d1e565b6040516102f29190612f25565b60405180910390f35b34801561030757600080fd5b50610322600480360381019061031d9190612cda565b61100a565b60405161032f9190612d48565b60405180910390f35b34801561034457600080fd5b5061035f600480360381019061035a9190612fc4565b611090565b60405161036c9190612f56565b60405180910390f35b61038f600480360381019061038a9190613126565b611147565b60405161039c9190612f56565b60405180910390f35b3480156103b157600080fd5b506103ba611189565b6040516103c79190612c82565b60405180910390f35b3480156103dc57600080fd5b506103f760048036038101906103f291906131ae565b61121b565b005b610413600480360381019061040e9190612cda565b611231565b005b34801561042157600080fd5b5061043c6004803603810190610437919061328f565b6112cb565b005b61045860048036038101906104539190612cda565b61132d565b005b34801561046657600080fd5b50610481600480360381019061047c9190612cda565b611565565b60405161048e9190612c82565b60405180910390f35b6104b160048036038101906104ac9190613312565b611677565b005b3480156104bf57600080fd5b506104da60048036038101906104d59190613352565b61186c565b6040516104e79190612bd7565b60405180910390f35b6000634906490660e01b7bffffffffffffffffffffffffffffffffffffffffffffffffffffffff1916827bffffffffffffffffffffffffffffffffffffffffffffffffffffffff1916148061054a575061054982611900565b5b9050919050565b606060008054610560906133c1565b80601f016020809104026020016040519081016040528092919081815260200182805461058c906133c1565b80156105d95780601f106105ae576101008083540402835291602001916105d9565b820191906000526020600020905b8154815290600101906020018083116105bc57829003601f168201915b5050505050905090565b60006105ee826119e2565b6004600083815260200190815260200160002060009054906101000a900473ffffffffffffffffffffffffffffffffffffffff169050919050565b60006106348261100a565b90508073ffffffffffffffffffffffffffffffffffffffff168373ffffffffffffffffffffffffffffffffffffffff16036106a4576040517f08c379a000000000000000000000000000000000000000000000000000000000815260040161069b90613464565b60405180910390fd5b8073ffffffffffffffffffffffffffffffffffffffff166106c3611a2d565b73ffffffffffffffffffffffffffffffffffffffff1614806106f257506106f1816106ec611a2d565b61186c565b5b610731576040517f08c379a0000000000000000000000000000000000000000000000000000000008152600401610728906134f6565b60405180910390fd5b61073b8383611a35565b505050565b6060600061074e6007611aee565b9050600061075c6008611aee565b6107666007611aee565b6107709190613545565b90506000808267ffffffffffffffff81111561078f5761078e612ffb565b5b6040519080825280602002602001820160405280156107c857816020015b6107b5612ac6565b8152602001906001900390816107ad5790505b50905060005b8481101561099d573073ffffffffffffffffffffffffffffffffffffffff16600b60006001846107fe9190613579565b815260200190815260200160002060020160009054906101000a900473ffffffffffffffffffffffffffffffffffffffff1673ffffffffffffffffffffffffffffffffffffffff160361098a57600060018261085a9190613579565b90506000600b60008381526020019081526020016000209050806040518060a0016040529081600082015481526020016001820160009054906101000a900473ffffffffffffffffffffffffffffffffffffffff1673ffffffffffffffffffffffffffffffffffffffff1673ffffffffffffffffffffffffffffffffffffffff1681526020016002820160009054906101000a900473ffffffffffffffffffffffffffffffffffffffff1673ffffffffffffffffffffffffffffffffffffffff1673ffffffffffffffffffffffffffffffffffffffff168152602001600382015481526020016004820160009054906101000a900460ff16151515158152505084868151811061096d5761096c6135ad565b5b60200260200101819052506001856109859190613579565b945050505b8080610995906135dc565b9150506107ce565b508094505050505090565b6000600954905090565b606060006109c06007611aee565b905060008060005b83811015610a68573373ffffffffffffffffffffffffffffffffffffffff16600b60006001846109f89190613579565b815260200190815260200160002060020160009054906101000a900473ffffffffffffffffffffffffffffffffffffffff1673ffffffffffffffffffffffffffffffffffffffff1603610a5557600183610a529190613579565b92505b8080610a60906135dc565b9150506109c8565b5060008267ffffffffffffffff811115610a8557610a84612ffb565b5b604051908082528060200260200182016040528015610abe57816020015b610aab612ac6565b815260200190600190039081610aa35790505b50905060005b84811015610c93573373ffffffffffffffffffffffffffffffffffffffff16600b6000600184610af49190613579565b815260200190815260200160002060020160009054906101000a900473ffffffffffffffffffffffffffffffffffffffff1673ffffffffffffffffffffffffffffffffffffffff1603610c80576000600182610b509190613579565b90506000600b60008381526020019081526020016000209050806040518060a0016040529081600082015481526020016001820160009054906101000a900473ffffffffffffffffffffffffffffffffffffffff1673ffffffffffffffffffffffffffffffffffffffff1673ffffffffffffffffffffffffffffffffffffffff1681526020016002820160009054906101000a900473ffffffffffffffffffffffffffffffffffffffff1673ffffffffffffffffffffffffffffffffffffffff1673ffffffffffffffffffffffffffffffffffffffff168152602001600382015481526020016004820160009054906101000a900460ff161515151581525050848681518110610c6357610c626135ad565b5b6020026020010181905250600185610c7b9190613579565b945050505b8080610c8b906135dc565b915050610ac4565b508094505050505090565b610caf610ca9611a2d565b82611afc565b610cee576040517f08c379a0000000000000000000000000000000000000000000000000000000008152600401610ce590613696565b60405180910390fd5b610cf9838383611b91565b505050565b610d19838383604051806020016040528060008152506112cb565b505050565b60606000610d2c6007611aee565b905060008060005b83811015610dd4573373ffffffffffffffffffffffffffffffffffffffff16600b6000600184610d649190613579565b815260200190815260200160002060010160009054906101000a900473ffffffffffffffffffffffffffffffffffffffff1673ffffffffffffffffffffffffffffffffffffffff1603610dc157600183610dbe9190613579565b92505b8080610dcc906135dc565b915050610d34565b5060008267ffffffffffffffff811115610df157610df0612ffb565b5b604051908082528060200260200182016040528015610e2a57816020015b610e17612ac6565b815260200190600190039081610e0f5790505b50905060005b84811015610fff573373ffffffffffffffffffffffffffffffffffffffff16600b6000600184610e609190613579565b815260200190815260200160002060010160009054906101000a900473ffffffffffffffffffffffffffffffffffffffff1673ffffffffffffffffffffffffffffffffffffffff1603610fec576000600182610ebc9190613579565b90506000600b60008381526020019081526020016000209050806040518060a0016040529081600082015481526020016001820160009054906101000a900473ffffffffffffffffffffffffffffffffffffffff1673ffffffffffffffffffffffffffffffffffffffff1673ffffffffffffffffffffffffffffffffffffffff1681526020016002820160009054906101000a900473ffffffffffffffffffffffffffffffffffffffff1673ffffffffffffffffffffffffffffffffffffffff1673ffffffffffffffffffffffffffffffffffffffff168152602001600382015481526020016004820160009054906101000a900460ff161515151581525050848681518110610fcf57610fce6135ad565b5b6020026020010181905250600185610fe79190613579565b945050505b8080610ff7906135dc565b915050610e30565b508094505050505090565b60008061101683611e8a565b9050600073ffffffffffffffffffffffffffffffffffffffff168173ffffffffffffffffffffffffffffffffffffffff1603611087576040517f08c379a000000000000000000000000000000000000000000000000000000000815260040161107e90613702565b60405180910390fd5b80915050919050565b60008073ffffffffffffffffffffffffffffffffffffffff168273ffffffffffffffffffffffffffffffffffffffff1603611100576040517f08c379a00000000000000000000000000000000000000000000000000000000081526004016110f790613794565b60405180910390fd5b600360008373ffffffffffffffffffffffffffffffffffffffff1673ffffffffffffffffffffffffffffffffffffffff168152602001908152602001600020549050919050565b60006111536007611ec7565b600061115f6007611aee565b905061116b3382611edd565b61117581856120fa565b61117f818461219e565b8091505092915050565b606060018054611198906133c1565b80601f01602080910402602001604051908101604052809291908181526020018280546111c4906133c1565b80156112115780601f106111e657610100808354040283529160200191611211565b820191906000526020600020905b8154815290600101906020018083116111f457829003601f168201915b5050505050905090565b61122d611226611a2d565b83836123a1565b5050565b3373ffffffffffffffffffffffffffffffffffffffff16600a60009054906101000a900473ffffffffffffffffffffffffffffffffffffffff1673ffffffffffffffffffffffffffffffffffffffff16146112c1576040517f08c379a00000000000000000000000000000000000000000000000000000000081526004016112b890613826565b60405180910390fd5b8060098190555050565b6112dc6112d6611a2d565b83611afc565b61131b576040517f08c379a000000000000000000000000000000000000000000000000000000000815260040161131290613696565b60405180910390fd5b6113278484848461250d565b50505050565b6000600b600083815260200190815260200160002060030154905080341461138a576040517f08c379a0000000000000000000000000000000000000000000000000000000008152600401611381906138b8565b60405180910390fd5b33600b600084815260200190815260200160002060020160006101000a81548173ffffffffffffffffffffffffffffffffffffffff021916908373ffffffffffffffffffffffffffffffffffffffff1602179055506001600b600084815260200190815260200160002060040160006101000a81548160ff0219169083151502179055506000600b600084815260200190815260200160002060010160006101000a81548173ffffffffffffffffffffffffffffffffffffffff021916908373ffffffffffffffffffffffffffffffffffffffff16021790555061146e6008611ec7565b611479303384611b91565b600a60009054906101000a900473ffffffffffffffffffffffffffffffffffffffff1673ffffffffffffffffffffffffffffffffffffffff166108fc6009549081150290604051600060405180830381858888f193505050501580156114e3573d6000803e3d6000fd5b50600b600083815260200190815260200160002060010160009054906101000a900473ffffffffffffffffffffffffffffffffffffffff1673ffffffffffffffffffffffffffffffffffffffff166108fc349081150290604051600060405180830381858888f19350505050158015611560573d6000803e3d6000fd5b505050565b6060611570826119e2565b6000600660008481526020019081526020016000208054611590906133c1565b80601f01602080910402602001604051908101604052809291908181526020018280546115bc906133c1565b80156116095780601f106115de57610100808354040283529160200191611609565b820191906000526020600020905b8154815290600101906020018083116115ec57829003601f168201915b50505050509050600061161a612569565b9050600081510361162f578192505050611672565b60008251111561166457808260405160200161164c929190613914565b60405160208183030381529060405292505050611672565b61166d84612580565b925050505b919050565b3373ffffffffffffffffffffffffffffffffffffffff16600b600084815260200190815260200160002060020160009054906101000a900473ffffffffffffffffffffffffffffffffffffffff1673ffffffffffffffffffffffffffffffffffffffff161461171b576040517f08c379a0000000000000000000000000000000000000000000000000000000008152600401611712906139aa565b60405180910390fd5b600954341461175f576040517f08c379a000000000000000000000000000000000000000000000000000000000815260040161175690613a3c565b60405180910390fd5b6000600b600084815260200190815260200160002060040160006101000a81548160ff02191690831515021790555080600b60008481526020019081526020016000206003018190555033600b600084815260200190815260200160002060010160006101000a81548173ffffffffffffffffffffffffffffffffffffffff021916908373ffffffffffffffffffffffffffffffffffffffff16021790555030600b600084815260200190815260200160002060020160006101000a81548173ffffffffffffffffffffffffffffffffffffffff021916908373ffffffffffffffffffffffffffffffffffffffff16021790555061185d60086125e8565b611868333084611b91565b5050565b6000600560008473ffffffffffffffffffffffffffffffffffffffff1673ffffffffffffffffffffffffffffffffffffffff16815260200190815260200160002060008373ffffffffffffffffffffffffffffffffffffffff1673ffffffffffffffffffffffffffffffffffffffff16815260200190815260200160002060009054906101000a900460ff16905092915050565b60007f80ac58cd000000000000000000000000000000000000000000000000000000007bffffffffffffffffffffffffffffffffffffffffffffffffffffffff1916827bffffffffffffffffffffffffffffffffffffffffffffffffffffffff191614806119cb57507f5b5e139f000000000000000000000000000000000000000000000000000000007bffffffffffffffffffffffffffffffffffffffffffffffffffffffff1916827bffffffffffffffffffffffffffffffffffffffffffffffffffffffff1916145b806119db57506119da82612644565b5b9050919050565b6119eb816126ae565b611a2a576040517f08c379a0000000000000000000000000000000000000000000000000000000008152600401611a2190613702565b60405180910390fd5b50565b600033905090565b816004600083815260200190815260200160002060006101000a81548173ffffffffffffffffffffffffffffffffffffffff021916908373ffffffffffffffffffffffffffffffffffffffff160217905550808273ffffffffffffffffffffffffffffffffffffffff16611aa88361100a565b73ffffffffffffffffffffffffffffffffffffffff167f8c5be1e5ebec7d5bd14f71427d1e84f3dd0314c0f7b2291e5b200ac8c7c3b92560405160405180910390a45050565b600081600001549050919050565b600080611b088361100a565b90508073ffffffffffffffffffffffffffffffffffffffff168473ffffffffffffffffffffffffffffffffffffffff161480611b4a5750611b49818561186c565b5b80611b8857508373ffffffffffffffffffffffffffffffffffffffff16611b70846105e3565b73ffffffffffffffffffffffffffffffffffffffff16145b91505092915050565b8273ffffffffffffffffffffffffffffffffffffffff16611bb18261100a565b73ffffffffffffffffffffffffffffffffffffffff1614611c07576040517f08c379a0000000000000000000000000000000000000000000000000000000008152600401611bfe90613ace565b60405180910390fd5b600073ffffffffffffffffffffffffffffffffffffffff168273ffffffffffffffffffffffffffffffffffffffff1603611c76576040517f08c379a0000000000000000000000000000000000000000000000000000000008152600401611c6d90613b60565b60405180910390fd5b611c8383838360016126ef565b8273ffffffffffffffffffffffffffffffffffffffff16611ca38261100a565b73ffffffffffffffffffffffffffffffffffffffff1614611cf9576040517f08c379a0000000000000000000000000000000000000000000000000000000008152600401611cf090613ace565b60405180910390fd5b6004600082815260200190815260200160002060006101000a81549073ffffffffffffffffffffffffffffffffffffffff02191690556001600360008573ffffffffffffffffffffffffffffffffffffffff1673ffffffffffffffffffffffffffffffffffffffff168152602001908152602001600020600082825403925050819055506001600360008473ffffffffffffffffffffffffffffffffffffffff1673ffffffffffffffffffffffffffffffffffffffff16815260200190815260200160002060008282540192505081905550816002600083815260200190815260200160002060006101000a81548173ffffffffffffffffffffffffffffffffffffffff021916908373ffffffffffffffffffffffffffffffffffffffff160217905550808273ffffffffffffffffffffffffffffffffffffffff168473ffffffffffffffffffffffffffffffffffffffff167fddf252ad1be2c89b69c2b068fc378daa952ba7f163c4a11628f55a4df523b3ef60405160405180910390a4611e8583838360016126f5565b505050565b60006002600083815260200190815260200160002060009054906101000a900473ffffffffffffffffffffffffffffffffffffffff169050919050565b6001816000016000828254019250508190555050565b600073ffffffffffffffffffffffffffffffffffffffff168273ffffffffffffffffffffffffffffffffffffffff1603611f4c576040517f08c379a0000000000000000000000000000000000000000000000000000000008152600401611f4390613bcc565b60405180910390fd5b611f55816126ae565b15611f95576040517f08c379a0000000000000000000000000000000000000000000000000000000008152600401611f8c90613c38565b60405180910390fd5b611fa36000838360016126ef565b611fac816126ae565b15611fec576040517f08c379a0000000000000000000000000000000000000000000000000000000008152600401611fe390613c38565b60405180910390fd5b6001600360008473ffffffffffffffffffffffffffffffffffffffff1673ffffffffffffffffffffffffffffffffffffffff16815260200190815260200160002060008282540192505081905550816002600083815260200190815260200160002060006101000a81548173ffffffffffffffffffffffffffffffffffffffff021916908373ffffffffffffffffffffffffffffffffffffffff160217905550808273ffffffffffffffffffffffffffffffffffffffff16600073ffffffffffffffffffffffffffffffffffffffff167fddf252ad1be2c89b69c2b068fc378daa952ba7f163c4a11628f55a4df523b3ef60405160405180910390a46120f66000838360016126f5565b5050565b612103826126ae565b612142576040517f08c379a000000000000000000000000000000000000000000000000000000000815260040161213990613cca565b60405180910390fd5b806006600084815260200190815260200160002090816121629190613e96565b507ff8e1a15aba9398e019f0b49df1a4fde98ee17ae345cb5f6b5e2c27f5033e8ce7826040516121929190612f56565b60405180910390a15050565b600081116121e1576040517f08c379a00000000000000000000000000000000000000000000000000000000081526004016121d890613fb4565b60405180910390fd5b6009543414612225576040517f08c379a000000000000000000000000000000000000000000000000000000000815260040161221c90613a3c565b60405180910390fd5b6040518060a001604052808381526020013373ffffffffffffffffffffffffffffffffffffffff1681526020013073ffffffffffffffffffffffffffffffffffffffff16815260200182815260200160001515815250600b60008481526020019081526020016000206000820151816000015560208201518160010160006101000a81548173ffffffffffffffffffffffffffffffffffffffff021916908373ffffffffffffffffffffffffffffffffffffffff16021790555060408201518160020160006101000a81548173ffffffffffffffffffffffffffffffffffffffff021916908373ffffffffffffffffffffffffffffffffffffffff1602179055506060820151816003015560808201518160040160006101000a81548160ff02191690831515021790555090505061235e333084611b91565b817fb640004f1d14576d0c209e240cad0410e0d8c0c33a09375861fbadae2588a98d33308460006040516123959493929190613fd4565b60405180910390a25050565b8173ffffffffffffffffffffffffffffffffffffffff168373ffffffffffffffffffffffffffffffffffffffff160361240f576040517f08c379a000000000000000000000000000000000000000000000000000000000815260040161240690614065565b60405180910390fd5b80600560008573ffffffffffffffffffffffffffffffffffffffff1673ffffffffffffffffffffffffffffffffffffffff16815260200190815260200160002060008473ffffffffffffffffffffffffffffffffffffffff1673ffffffffffffffffffffffffffffffffffffffff16815260200190815260200160002060006101000a81548160ff0219169083151502179055508173ffffffffffffffffffffffffffffffffffffffff168373ffffffffffffffffffffffffffffffffffffffff167f17307eab39ab6107e8899845ad3d59bd9653f200f220920489ca2b5937696c31836040516125009190612bd7565b60405180910390a3505050565b612518848484611b91565b612524848484846126fb565b612563576040517f08c379a000000000000000000000000000000000000000000000000000000000815260040161255a906140f7565b60405180910390fd5b50505050565b606060405180602001604052806000815250905090565b606061258b826119e2565b6000612595612569565b905060008151116125b557604051806020016040528060008152506125e0565b806125bf84612882565b6040516020016125d0929190613914565b6040516020818303038152906040525b915050919050565b60008160000154905060008111612634576040517f08c379a000000000000000000000000000000000000000000000000000000000815260040161262b90614163565b60405180910390fd5b6001810382600001819055505050565b60007f01ffc9a7000000000000000000000000000000000000000000000000000000007bffffffffffffffffffffffffffffffffffffffffffffffffffffffff1916827bffffffffffffffffffffffffffffffffffffffffffffffffffffffff1916149050919050565b60008073ffffffffffffffffffffffffffffffffffffffff166126d083611e8a565b73ffffffffffffffffffffffffffffffffffffffff1614159050919050565b50505050565b50505050565b600061271c8473ffffffffffffffffffffffffffffffffffffffff16612950565b15612875578373ffffffffffffffffffffffffffffffffffffffff1663150b7a02612745611a2d565b8786866040518563ffffffff1660e01b815260040161276794939291906141d8565b6020604051808303816000875af19250505080156127a357506040513d601f19601f820116820180604052508101906127a09190614239565b60015b612825573d80600081146127d3576040519150601f19603f3d011682016040523d82523d6000602084013e6127d8565b606091505b50600081510361281d576040517f08c379a0000000000000000000000000000000000000000000000000000000008152600401612814906140f7565b60405180910390fd5b805181602001fd5b63150b7a0260e01b7bffffffffffffffffffffffffffffffffffffffffffffffffffffffff1916817bffffffffffffffffffffffffffffffffffffffffffffffffffffffff19161491505061287a565b600190505b949350505050565b60606000600161289184612973565b01905060008167ffffffffffffffff8111156128b0576128af612ffb565b5b6040519080825280601f01601f1916602001820160405280156128e25781602001600182028036833780820191505090505b509050600082602001820190505b600115612945578080600190039150507f3031323334353637383961626364656600000000000000000000000000000000600a86061a8153600a858161293957612938614266565b5b049450600085036128f0575b819350505050919050565b6000808273ffffffffffffffffffffffffffffffffffffffff163b119050919050565b600080600090507a184f03e93ff9f4daa797ed6e38ed64bf6a1f01000000000000000083106129d1577a184f03e93ff9f4daa797ed6e38ed64bf6a1f01000000000000000083816129c7576129c6614266565b5b0492506040810190505b6d04ee2d6d415b85acef81000000008310612a0e576d04ee2d6d415b85acef81000000008381612a0457612a03614266565b5b0492506020810190505b662386f26fc100008310612a3d57662386f26fc100008381612a3357612a32614266565b5b0492506010810190505b6305f5e1008310612a66576305f5e1008381612a5c57612a5b614266565b5b0492506008810190505b6127108310612a8b576127108381612a8157612a80614266565b5b0492506004810190505b60648310612aae5760648381612aa457612aa3614266565b5b0492506002810190505b600a8310612abd576001810190505b80915050919050565b6040518060a0016040528060008152602001600073ffffffffffffffffffffffffffffffffffffffff168152602001600073ffffffffffffffffffffffffffffffffffffffff168152602001600081526020016000151581525090565b6000604051905090565b600080fd5b600080fd5b60007fffffffff0000000000000000000000000000000000000000000000000000000082169050919050565b612b6c81612b37565b8114612b7757600080fd5b50565b600081359050612b8981612b63565b92915050565b600060208284031215612ba557612ba4612b2d565b5b6000612bb384828501612b7a565b91505092915050565b60008115159050919050565b612bd181612bbc565b82525050565b6000602082019050612bec6000830184612bc8565b92915050565b600081519050919050565b600082825260208201905092915050565b60005b83811015612c2c578082015181840152602081019050612c11565b60008484015250505050565b6000601f19601f8301169050919050565b6000612c5482612bf2565b612c5e8185612bfd565b9350612c6e818560208601612c0e565b612c7781612c38565b840191505092915050565b60006020820190508181036000830152612c9c8184612c49565b905092915050565b6000819050919050565b612cb781612ca4565b8114612cc257600080fd5b50565b600081359050612cd481612cae565b92915050565b600060208284031215612cf057612cef612b2d565b5b6000612cfe84828501612cc5565b91505092915050565b600073ffffffffffffffffffffffffffffffffffffffff82169050919050565b6000612d3282612d07565b9050919050565b612d4281612d27565b82525050565b6000602082019050612d5d6000830184612d39565b92915050565b612d6c81612d27565b8114612d7757600080fd5b50565b600081359050612d8981612d63565b92915050565b60008060408385031215612da657612da5612b2d565b5b6000612db485828601612d7a565b9250506020612dc585828601612cc5565b9150509250929050565b600081519050919050565b600082825260208201905092915050565b6000819050602082019050919050565b612e0481612ca4565b82525050565b6000612e1582612d07565b9050919050565b612e2581612e0a565b82525050565b612e3481612bbc565b82525050565b60a082016000820151612e506000850182612dfb565b506020820151612e636020850182612e1c565b506040820151612e766040850182612e1c565b506060820151612e896060850182612dfb565b506080820151612e9c6080850182612e2b565b50505050565b6000612eae8383612e3a565b60a08301905092915050565b6000602082019050919050565b6000612ed282612dcf565b612edc8185612dda565b9350612ee783612deb565b8060005b83811015612f18578151612eff8882612ea2565b9750612f0a83612eba565b925050600181019050612eeb565b5085935050505092915050565b60006020820190508181036000830152612f3f8184612ec7565b905092915050565b612f5081612ca4565b82525050565b6000602082019050612f6b6000830184612f47565b92915050565b600080600060608486031215612f8a57612f89612b2d565b5b6000612f9886828701612d7a565b9350506020612fa986828701612d7a565b9250506040612fba86828701612cc5565b9150509250925092565b600060208284031215612fda57612fd9612b2d565b5b6000612fe884828501612d7a565b91505092915050565b600080fd5b600080fd5b7f4e487b7100000000000000000000000000000000000000000000000000000000600052604160045260246000fd5b61303382612c38565b810181811067ffffffffffffffff8211171561305257613051612ffb565b5b80604052505050565b6000613065612b23565b9050613071828261302a565b919050565b600067ffffffffffffffff82111561309157613090612ffb565b5b61309a82612c38565b9050602081019050919050565b82818337600083830152505050565b60006130c96130c484613076565b61305b565b9050828152602081018484840111156130e5576130e4612ff6565b5b6130f08482856130a7565b509392505050565b600082601f83011261310d5761310c612ff1565b5b813561311d8482602086016130b6565b91505092915050565b6000806040838503121561313d5761313c612b2d565b5b600083013567ffffffffffffffff81111561315b5761315a612b32565b5b613167858286016130f8565b925050602061317885828601612cc5565b9150509250929050565b61318b81612bbc565b811461319657600080fd5b50565b6000813590506131a881613182565b92915050565b600080604083850312156131c5576131c4612b2d565b5b60006131d385828601612d7a565b92505060206131e485828601613199565b9150509250929050565b600067ffffffffffffffff82111561320957613208612ffb565b5b61321282612c38565b9050602081019050919050565b600061323261322d846131ee565b61305b565b90508281526020810184848401111561324e5761324d612ff6565b5b6132598482856130a7565b509392505050565b600082601f83011261327657613275612ff1565b5b813561328684826020860161321f565b91505092915050565b600080600080608085870312156132a9576132a8612b2d565b5b60006132b787828801612d7a565b94505060206132c887828801612d7a565b93505060406132d987828801612cc5565b925050606085013567ffffffffffffffff8111156132fa576132f9612b32565b5b61330687828801613261565b91505092959194509250565b6000806040838503121561332957613328612b2d565b5b600061333785828601612cc5565b925050602061334885828601612cc5565b9150509250929050565b6000806040838503121561336957613368612b2d565b5b600061337785828601612d7a565b925050602061338885828601612d7a565b9150509250929050565b7f4e487b7100000000000000000000000000000000000000000000000000000000600052602260045260246000fd5b600060028204905060018216806133d957607f821691505b6020821081036133ec576133eb613392565b5b50919050565b7f4552433732313a20617070726f76616c20746f2063757272656e74206f776e6560008201527f7200000000000000000000000000000000000000000000000000000000000000602082015250565b600061344e602183612bfd565b9150613459826133f2565b604082019050919050565b6000602082019050818103600083015261347d81613441565b9050919050565b7f4552433732313a20617070726f76652063616c6c6572206973206e6f7420746f60008201527f6b656e206f776e6572206f7220617070726f76656420666f7220616c6c000000602082015250565b60006134e0603d83612bfd565b91506134eb82613484565b604082019050919050565b6000602082019050818103600083015261350f816134d3565b9050919050565b7f4e487b7100000000000000000000000000000000000000000000000000000000600052601160045260246000fd5b600061355082612ca4565b915061355b83612ca4565b925082820390508181111561357357613572613516565b5b92915050565b600061358482612ca4565b915061358f83612ca4565b92508282019050808211156135a7576135a6613516565b5b92915050565b7f4e487b7100000000000000000000000000000000000000000000000000000000600052603260045260246000fd5b60006135e782612ca4565b91507fffffffffffffffffffffffffffffffffffffffffffffffffffffffffffffffff820361361957613618613516565b5b600182019050919050565b7f4552433732313a2063616c6c6572206973206e6f7420746f6b656e206f776e6560008201527f72206f7220617070726f76656400000000000000000000000000000000000000602082015250565b6000613680602d83612bfd565b915061368b82613624565b604082019050919050565b600060208201905081810360008301526136af81613673565b9050919050565b7f4552433732313a20696e76616c696420746f6b656e2049440000000000000000600082015250565b60006136ec601883612bfd565b91506136f7826136b6565b602082019050919050565b6000602082019050818103600083015261371b816136df565b9050919050565b7f4552433732313a2061646472657373207a65726f206973206e6f74206120766160008201527f6c6964206f776e65720000000000000000000000000000000000000000000000602082015250565b600061377e602983612bfd565b915061378982613722565b604082019050919050565b600060208201905081810360008301526137ad81613771565b9050919050565b7f4f6e6c79206d61726b6574706c616365206f776e65722063616e20757064617460008201527f65206c697374696e672070726963652e00000000000000000000000000000000602082015250565b6000613810603083612bfd565b915061381b826137b4565b604082019050919050565b6000602082019050818103600083015261383f81613803565b9050919050565b7f506c65617365207375626d6974207468652061736b696e67207072696365206960008201527f6e206f7264657220746f20636f6d706c65746520746865207075726368617365602082015250565b60006138a2604083612bfd565b91506138ad82613846565b604082019050919050565b600060208201905081810360008301526138d181613895565b9050919050565b600081905092915050565b60006138ee82612bf2565b6138f881856138d8565b9350613908818560208601612c0e565b80840191505092915050565b600061392082856138e3565b915061392c82846138e3565b91508190509392505050565b7f4f6e6c79206974656d206f776e65722063616e20706572666f726d207468697360008201527f206f7065726174696f6e00000000000000000000000000000000000000000000602082015250565b6000613994602a83612bfd565b915061399f82613938565b604082019050919050565b600060208201905081810360008301526139c381613987565b9050919050565b7f5072696365206d75737420626520657175616c20746f206c697374696e67207060008201527f7269636500000000000000000000000000000000000000000000000000000000602082015250565b6000613a26602483612bfd565b9150613a31826139ca565b604082019050919050565b60006020820190508181036000830152613a5581613a19565b9050919050565b7f4552433732313a207472616e736665722066726f6d20696e636f72726563742060008201527f6f776e6572000000000000000000000000000000000000000000000000000000602082015250565b6000613ab8602583612bfd565b9150613ac382613a5c565b604082019050919050565b60006020820190508181036000830152613ae781613aab565b9050919050565b7f4552433732313a207472616e7366657220746f20746865207a65726f2061646460008201527f7265737300000000000000000000000000000000000000000000000000000000602082015250565b6000613b4a602483612bfd565b9150613b5582613aee565b604082019050919050565b60006020820190508181036000830152613b7981613b3d565b9050919050565b7f4552433732313a206d696e7420746f20746865207a65726f2061646472657373600082015250565b6000613bb6602083612bfd565b9150613bc182613b80565b602082019050919050565b60006020820190508181036000830152613be581613ba9565b9050919050565b7f4552433732313a20746f6b656e20616c7265616479206d696e74656400000000600082015250565b6000613c22601c83612bfd565b9150613c2d82613bec565b602082019050919050565b60006020820190508181036000830152613c5181613c15565b9050919050565b7f45524337323155524953746f726167653a2055524920736574206f66206e6f6e60008201527f6578697374656e7420746f6b656e000000000000000000000000000000000000602082015250565b6000613cb4602e83612bfd565b9150613cbf82613c58565b604082019050919050565b60006020820190508181036000830152613ce381613ca7565b9050919050565b60008190508160005260206000209050919050565b60006020601f8301049050919050565b600082821b905092915050565b600060088302613d4c7fffffffffffffffffffffffffffffffffffffffffffffffffffffffffffffffff82613d0f565b613d568683613d0f565b95508019841693508086168417925050509392505050565b6000819050919050565b6000613d93613d8e613d8984612ca4565b613d6e565b612ca4565b9050919050565b6000819050919050565b613dad83613d78565b613dc1613db982613d9a565b848454613d1c565b825550505050565b600090565b613dd6613dc9565b613de1818484613da4565b505050565b5b81811015613e0557613dfa600082613dce565b600181019050613de7565b5050565b601f821115613e4a57613e1b81613cea565b613e2484613cff565b81016020851015613e33578190505b613e47613e3f85613cff565b830182613de6565b50505b505050565b600082821c905092915050565b6000613e6d60001984600802613e4f565b1980831691505092915050565b6000613e868383613e5c565b9150826002028217905092915050565b613e9f82612bf2565b67ffffffffffffffff811115613eb857613eb7612ffb565b5b613ec282546133c1565b613ecd828285613e09565b600060209050601f831160018114613f005760008415613eee578287015190505b613ef88582613e7a565b865550613f60565b601f198416613f0e86613cea565b60005b82811015613f3657848901518255600182019150602085019450602081019050613f11565b86831015613f535784890151613f4f601f891682613e5c565b8355505b6001600288020188555050505b505050505050565b7f5072696365206d757374206265206174206c6561737420312077656900000000600082015250565b6000613f9e601c83612bfd565b9150613fa982613f68565b602082019050919050565b60006020820190508181036000830152613fcd81613f91565b9050919050565b6000608082019050613fe96000830187612d39565b613ff66020830186612d39565b6140036040830185612f47565b6140106060830184612bc8565b95945050505050565b7f4552433732313a20617070726f766520746f2063616c6c657200000000000000600082015250565b600061404f601983612bfd565b915061405a82614019565b602082019050919050565b6000602082019050818103600083015261407e81614042565b9050919050565b7f4552433732313a207472616e7366657220746f206e6f6e20455243373231526560008201527f63656976657220696d706c656d656e7465720000000000000000000000000000602082015250565b60006140e1603283612bfd565b91506140ec82614085565b604082019050919050565b60006020820190508181036000830152614110816140d4565b9050919050565b7f436f756e7465723a2064656372656d656e74206f766572666c6f770000000000600082015250565b600061414d601b83612bfd565b915061415882614117565b602082019050919050565b6000602082019050818103600083015261417c81614140565b9050919050565b600081519050919050565b600082825260208201905092915050565b60006141aa82614183565b6141b4818561418e565b93506141c4818560208601612c0e565b6141cd81612c38565b840191505092915050565b60006080820190506141ed6000830187612d39565b6141fa6020830186612d39565b6142076040830185612f47565b8181036060830152614219818461419f565b905095945050505050565b60008151905061423381612b63565b92915050565b60006020828403121561424f5761424e612b2d565b5b600061425d84828501614224565b91505092915050565b7f4e487b7100000000000000000000000000000000000000000000000000000000600052601260045260246000fdfea2646970667358221220cca5d61d29cc79d696d3fd1fee47430af55fdb2f409fe89bf9d6a3482014c5a864736f6c63430008110033","opcodes":"PUSH1 0x80 PUSH1 0x40 MSTORE PUSH7 0x58D15E17628000 PUSH1 0x9 SSTORE CALLVALUE DUP1 ISZERO PUSH3 0x1C JUMPI PUSH1 0x0 DUP1 REVERT JUMPDEST POP PUSH1 0x40 MLOAD DUP1 PUSH1 0x40 ADD PUSH1 0x40 MSTORE DUP1 PUSH1 0x10 DUP2 MSTORE PUSH1 0x20 ADD PUSH32 0x4D657461766572736520546F6B656E7300000000000000000000000000000000 DUP2 MSTORE POP PUSH1 0x40 MLOAD DUP1 PUSH1 0x40 ADD PUSH1 0x40 MSTORE DUP1 PUSH1 0x4 DUP2 MSTORE PUSH1 0x20 ADD PUSH32 0x4D45545400000000000000000000000000000000000000000000000000000000 DUP2 MSTORE POP DUP2 PUSH1 0x0 SWAP1 DUP2 PUSH3 0x9A SWAP2 SWAP1 PUSH3 0x370 JUMP JUMPDEST POP DUP1 PUSH1 0x1 SWAP1 DUP2 PUSH3 0xAC SWAP2 SWAP1 PUSH3 0x370 JUMP JUMPDEST POP POP POP CALLER PUSH1 0xA PUSH1 0x0 PUSH2 0x100 EXP DUP2 SLOAD DUP2 PUSH20 0xFFFFFFFFFFFFFFFFFFFFFFFFFFFFFFFFFFFFFFFF MUL NOT AND SWAP1 DUP4 PUSH20 0xFFFFFFFFFFFFFFFFFFFFFFFFFFFFFFFFFFFFFFFF AND MUL OR SWAP1 SSTORE POP PUSH3 0x457 JUMP JUMPDEST PUSH1 0x0 DUP2 MLOAD SWAP1 POP SWAP2 SWAP1 POP JUMP JUMPDEST PUSH32 0x4E487B7100000000000000000000000000000000000000000000000000000000 PUSH1 0x0 MSTORE PUSH1 0x41 PUSH1 0x4 MSTORE PUSH1 0x24 PUSH1 0x0 REVERT JUMPDEST PUSH32 0x4E487B7100000000000000000000000000000000000000000000000000000000 PUSH1 0x0 MSTORE PUSH1 0x22 PUSH1 0x4 MSTORE PUSH1 0x24 PUSH1 0x0 REVERT JUMPDEST PUSH1 0x0 PUSH1 0x2 DUP3 DIV SWAP1 POP PUSH1 0x1 DUP3 AND DUP1 PUSH3 0x178 JUMPI PUSH1 0x7F DUP3 AND SWAP2 POP JUMPDEST PUSH1 0x20 DUP3 LT DUP2 SUB PUSH3 0x18E JUMPI PUSH3 0x18D PUSH3 0x130 JUMP JUMPDEST JUMPDEST POP SWAP2 SWAP1 POP JUMP JUMPDEST PUSH1 0x0 DUP2 SWAP1 POP DUP2 PUSH1 0x0 MSTORE PUSH1 0x20 PUSH1 0x0 KECCAK256 SWAP1 POP SWAP2 SWAP1 POP JUMP JUMPDEST PUSH1 0x0 PUSH1 0x20 PUSH1 0x1F DUP4 ADD DIV SWAP1 POP SWAP2 SWAP1 POP JUMP JUMPDEST PUSH1 0x0 DUP3 DUP3 SHL SWAP1 POP SWAP3 SWAP2 POP POP JUMP JUMPDEST PUSH1 0x0 PUSH1 0x8 DUP4 MUL PUSH3 0x1F8 PUSH32 0xFFFFFFFFFFFFFFFFFFFFFFFFFFFFFFFFFFFFFFFFFFFFFFFFFFFFFFFFFFFFFFFF DUP3 PUSH3 0x1B9 JUMP JUMPDEST PUSH3 0x204 DUP7 DUP4 PUSH3 0x1B9 JUMP JUMPDEST SWAP6 POP DUP1 NOT DUP5 AND SWAP4 POP DUP1 DUP7 AND DUP5 OR SWAP3 POP POP POP SWAP4 SWAP3 POP POP POP JUMP JUMPDEST PUSH1 0x0 DUP2 SWAP1 POP SWAP2 SWAP1 POP JUMP JUMPDEST PUSH1 0x0 DUP2 SWAP1 POP SWAP2 SWAP1 POP JUMP JUMPDEST PUSH1 0x0 PUSH3 0x251 PUSH3 0x24B PUSH3 0x245 DUP5 PUSH3 0x21C JUMP JUMPDEST PUSH3 0x226 JUMP JUMPDEST PUSH3 0x21C JUMP JUMPDEST SWAP1 POP SWAP2 SWAP1 POP JUMP JUMPDEST PUSH1 0x0 DUP2 SWAP1 POP SWAP2 SWAP1 POP JUMP JUMPDEST PUSH3 0x26D DUP4 PUSH3 0x230 JUMP JUMPDEST PUSH3 0x285 PUSH3 0x27C DUP3 PUSH3 0x258 JUMP JUMPDEST DUP5 DUP5 SLOAD PUSH3 0x1C6 JUMP JUMPDEST DUP3 SSTORE POP POP POP POP JUMP JUMPDEST PUSH1 0x0 SWAP1 JUMP JUMPDEST PUSH3 0x29C PUSH3 0x28D JUMP JUMPDEST PUSH3 0x2A9 DUP2 DUP5 DUP5 PUSH3 0x262 JUMP JUMPDEST POP POP POP JUMP JUMPDEST JUMPDEST DUP2 DUP2 LT ISZERO PUSH3 0x2D1 JUMPI PUSH3 0x2C5 PUSH1 0x0 DUP3 PUSH3 0x292 JUMP JUMPDEST PUSH1 0x1 DUP2 ADD SWAP1 POP PUSH3 0x2AF JUMP JUMPDEST POP POP JUMP JUMPDEST PUSH1 0x1F DUP3 GT ISZERO PUSH3 0x320 JUMPI PUSH3 0x2EA DUP2 PUSH3 0x194 JUMP JUMPDEST PUSH3 0x2F5 DUP5 PUSH3 0x1A9 JUMP JUMPDEST DUP2 ADD PUSH1 0x20 DUP6 LT ISZERO PUSH3 0x305 JUMPI DUP2 SWAP1 POP JUMPDEST PUSH3 0x31D PUSH3 0x314 DUP6 PUSH3 0x1A9 JUMP JUMPDEST DUP4 ADD DUP3 PUSH3 0x2AE JUMP JUMPDEST POP POP JUMPDEST POP POP POP JUMP JUMPDEST PUSH1 0x0 DUP3 DUP3 SHR SWAP1 POP SWAP3 SWAP2 POP POP JUMP JUMPDEST PUSH1 0x0 PUSH3 0x345 PUSH1 0x0 NOT DUP5 PUSH1 0x8 MUL PUSH3 0x325 JUMP JUMPDEST NOT DUP1 DUP4 AND SWAP2 POP POP SWAP3 SWAP2 POP POP JUMP JUMPDEST PUSH1 0x0 PUSH3 0x360 DUP4 DUP4 PUSH3 0x332 JUMP JUMPDEST SWAP2 POP DUP3 PUSH1 0x2 MUL DUP3 OR SWAP1 POP SWAP3 SWAP2 POP POP JUMP JUMPDEST PUSH3 0x37B DUP3 PUSH3 0xF6 JUMP JUMPDEST PUSH8 0xFFFFFFFFFFFFFFFF DUP2 GT ISZERO PUSH3 0x397 JUMPI PUSH3 0x396 PUSH3 0x101 JUMP JUMPDEST JUMPDEST PUSH3 0x3A3 DUP3 SLOAD PUSH3 0x15F JUMP JUMPDEST PUSH3 0x3B0 DUP3 DUP3 DUP6 PUSH3 0x2D5 JUMP JUMPDEST PUSH1 0x0 PUSH1 0x20 SWAP1 POP PUSH1 0x1F DUP4 GT PUSH1 0x1 DUP2 EQ PUSH3 0x3E8 JUMPI PUSH1 0x0 DUP5 ISZERO PUSH3 0x3D3 JUMPI DUP3 DUP8 ADD MLOAD SWAP1 POP JUMPDEST PUSH3 0x3DF DUP6 DUP3 PUSH3 0x352 JUMP JUMPDEST DUP7 SSTORE POP PUSH3 0x44F JUMP JUMPDEST PUSH1 0x1F NOT DUP5 AND PUSH3 0x3F8 DUP7 PUSH3 0x194 JUMP JUMPDEST PUSH1 0x0 JUMPDEST DUP3 DUP2 LT ISZERO PUSH3 0x422 JUMPI DUP5 DUP10 ADD MLOAD DUP3 SSTORE PUSH1 0x1 DUP3 ADD SWAP2 POP PUSH1 0x20 DUP6 ADD SWAP5 POP PUSH1 0x20 DUP2 ADD SWAP1 POP PUSH3 0x3FB JUMP JUMPDEST DUP7 DUP4 LT ISZERO PUSH3 0x442 JUMPI DUP5 DUP10 ADD MLOAD PUSH3 0x43E PUSH1 0x1F DUP10 AND DUP3 PUSH3 0x332 JUMP JUMPDEST DUP4 SSTORE POP JUMPDEST PUSH1 0x1 PUSH1 0x2 DUP9 MUL ADD DUP9 SSTORE POP POP POP JUMPDEST POP POP POP POP POP POP JUMP JUMPDEST PUSH2 0x42CB DUP1 PUSH3 0x467 PUSH1 0x0 CODECOPY PUSH1 0x0 RETURN INVALID PUSH1 0x80 PUSH1 0x40 MSTORE PUSH1 0x4 CALLDATASIZE LT PUSH2 0x12A JUMPI PUSH1 0x0 CALLDATALOAD PUSH1 0xE0 SHR DUP1 PUSH4 0x6352211E GT PUSH2 0xAB JUMPI DUP1 PUSH4 0xAE677AA3 GT PUSH2 0x6F JUMPI DUP1 PUSH4 0xAE677AA3 EQ PUSH2 0x3F9 JUMPI DUP1 PUSH4 0xB88D4FDE EQ PUSH2 0x415 JUMPI DUP1 PUSH4 0xBE9AF536 EQ PUSH2 0x43E JUMPI DUP1 PUSH4 0xC87B56DD EQ PUSH2 0x45A JUMPI DUP1 PUSH4 0xE219FC75 EQ PUSH2 0x497 JUMPI DUP1 PUSH4 0xE985E9C5 EQ PUSH2 0x4B3 JUMPI PUSH2 0x12A JUMP JUMPDEST DUP1 PUSH4 0x6352211E EQ PUSH2 0x2FB JUMPI DUP1 PUSH4 0x70A08231 EQ PUSH2 0x338 JUMPI DUP1 PUSH4 0x72B3B620 EQ PUSH2 0x375 JUMPI DUP1 PUSH4 0x95D89B41 EQ PUSH2 0x3A5 JUMPI DUP1 PUSH4 0xA22CB465 EQ PUSH2 0x3D0 JUMPI PUSH2 0x12A JUMP JUMPDEST DUP1 PUSH4 0x12E85585 GT PUSH2 0xF2 JUMPI DUP1 PUSH4 0x12E85585 EQ PUSH2 0x228 JUMPI DUP1 PUSH4 0x202E3740 EQ PUSH2 0x253 JUMPI DUP1 PUSH4 0x23B872DD EQ PUSH2 0x27E JUMPI DUP1 PUSH4 0x42842E0E EQ PUSH2 0x2A7 JUMPI DUP1 PUSH4 0x45F8FA80 EQ PUSH2 0x2D0 JUMPI PUSH2 0x12A JUMP JUMPDEST DUP1 PUSH4 0x1FFC9A7 EQ PUSH2 0x12F JUMPI DUP1 PUSH4 0x6FDDE03 EQ PUSH2 0x16C JUMPI DUP1 PUSH4 0x81812FC EQ PUSH2 0x197 JUMPI DUP1 PUSH4 0x95EA7B3 EQ PUSH2 0x1D4 JUMPI DUP1 PUSH4 0xF08EFE0 EQ PUSH2 0x1FD JUMPI JUMPDEST PUSH1 0x0 DUP1 REVERT JUMPDEST CALLVALUE DUP1 ISZERO PUSH2 0x13B JUMPI PUSH1 0x0 DUP1 REVERT JUMPDEST POP PUSH2 0x156 PUSH1 0x4 DUP1 CALLDATASIZE SUB DUP2 ADD SWAP1 PUSH2 0x151 SWAP2 SWAP1 PUSH2 0x2B8F JUMP JUMPDEST PUSH2 0x4F0 JUMP JUMPDEST PUSH1 0x40 MLOAD PUSH2 0x163 SWAP2 SWAP1 PUSH2 0x2BD7 JUMP JUMPDEST PUSH1 0x40 MLOAD DUP1 SWAP2 SUB SWAP1 RETURN JUMPDEST CALLVALUE DUP1 ISZERO PUSH2 0x178 JUMPI PUSH1 0x0 DUP1 REVERT JUMPDEST POP PUSH2 0x181 PUSH2 0x551 JUMP JUMPDEST PUSH1 0x40 MLOAD PUSH2 0x18E SWAP2 SWAP1 PUSH2 0x2C82 JUMP JUMPDEST PUSH1 0x40 MLOAD DUP1 SWAP2 SUB SWAP1 RETURN JUMPDEST CALLVALUE DUP1 ISZERO PUSH2 0x1A3 JUMPI PUSH1 0x0 DUP1 REVERT JUMPDEST POP PUSH2 0x1BE PUSH1 0x4 DUP1 CALLDATASIZE SUB DUP2 ADD SWAP1 PUSH2 0x1B9 SWAP2 SWAP1 PUSH2 0x2CDA JUMP JUMPDEST PUSH2 0x5E3 JUMP JUMPDEST PUSH1 0x40 MLOAD PUSH2 0x1CB SWAP2 SWAP1 PUSH2 0x2D48 JUMP JUMPDEST PUSH1 0x40 MLOAD DUP1 SWAP2 SUB SWAP1 RETURN JUMPDEST CALLVALUE DUP1 ISZERO PUSH2 0x1E0 JUMPI PUSH1 0x0 DUP1 REVERT JUMPDEST POP PUSH2 0x1FB PUSH1 0x4 DUP1 CALLDATASIZE SUB DUP2 ADD SWAP1 PUSH2 0x1F6 SWAP2 SWAP1 PUSH2 0x2D8F JUMP JUMPDEST PUSH2 0x629 JUMP JUMPDEST STOP JUMPDEST CALLVALUE DUP1 ISZERO PUSH2 0x209 JUMPI PUSH1 0x0 DUP1 REVERT JUMPDEST POP PUSH2 0x212 PUSH2 0x740 JUMP JUMPDEST PUSH1 0x40 MLOAD PUSH2 0x21F SWAP2 SWAP1 PUSH2 0x2F25 JUMP JUMPDEST PUSH1 0x40 MLOAD DUP1 SWAP2 SUB SWAP1 RETURN JUMPDEST CALLVALUE DUP1 ISZERO PUSH2 0x234 JUMPI PUSH1 0x0 DUP1 REVERT JUMPDEST POP PUSH2 0x23D PUSH2 0x9A8 JUMP JUMPDEST PUSH1 0x40 MLOAD PUSH2 0x24A SWAP2 SWAP1 PUSH2 0x2F56 JUMP JUMPDEST PUSH1 0x40 MLOAD DUP1 SWAP2 SUB SWAP1 RETURN JUMPDEST CALLVALUE DUP1 ISZERO PUSH2 0x25F JUMPI PUSH1 0x0 DUP1 REVERT JUMPDEST POP PUSH2 0x268 PUSH2 0x9B2 JUMP JUMPDEST PUSH1 0x40 MLOAD PUSH2 0x275 SWAP2 SWAP1 PUSH2 0x2F25 JUMP JUMPDEST PUSH1 0x40 MLOAD DUP1 SWAP2 SUB SWAP1 RETURN JUMPDEST CALLVALUE DUP1 ISZERO PUSH2 0x28A JUMPI PUSH1 0x0 DUP1 REVERT JUMPDEST POP PUSH2 0x2A5 PUSH1 0x4 DUP1 CALLDATASIZE SUB DUP2 ADD SWAP1 PUSH2 0x2A0 SWAP2 SWAP1 PUSH2 0x2F71 JUMP JUMPDEST PUSH2 0xC9E JUMP JUMPDEST STOP JUMPDEST CALLVALUE DUP1 ISZERO PUSH2 0x2B3 JUMPI PUSH1 0x0 DUP1 REVERT JUMPDEST POP PUSH2 0x2CE PUSH1 0x4 DUP1 CALLDATASIZE SUB DUP2 ADD SWAP1 PUSH2 0x2C9 SWAP2 SWAP1 PUSH2 0x2F71 JUMP JUMPDEST PUSH2 0xCFE JUMP JUMPDEST STOP JUMPDEST CALLVALUE DUP1 ISZERO PUSH2 0x2DC JUMPI PUSH1 0x0 DUP1 REVERT JUMPDEST POP PUSH2 0x2E5 PUSH2 0xD1E JUMP JUMPDEST PUSH1 0x40 MLOAD PUSH2 0x2F2 SWAP2 SWAP1 PUSH2 0x2F25 JUMP JUMPDEST PUSH1 0x40 MLOAD DUP1 SWAP2 SUB SWAP1 RETURN JUMPDEST CALLVALUE DUP1 ISZERO PUSH2 0x307 JUMPI PUSH1 0x0 DUP1 REVERT JUMPDEST POP PUSH2 0x322 PUSH1 0x4 DUP1 CALLDATASIZE SUB DUP2 ADD SWAP1 PUSH2 0x31D SWAP2 SWAP1 PUSH2 0x2CDA JUMP JUMPDEST PUSH2 0x100A JUMP JUMPDEST PUSH1 0x40 MLOAD PUSH2 0x32F SWAP2 SWAP1 PUSH2 0x2D48 JUMP JUMPDEST PUSH1 0x40 MLOAD DUP1 SWAP2 SUB SWAP1 RETURN JUMPDEST CALLVALUE DUP1 ISZERO PUSH2 0x344 JUMPI PUSH1 0x0 DUP1 REVERT JUMPDEST POP PUSH2 0x35F PUSH1 0x4 DUP1 CALLDATASIZE SUB DUP2 ADD SWAP1 PUSH2 0x35A SWAP2 SWAP1 PUSH2 0x2FC4 JUMP JUMPDEST PUSH2 0x1090 JUMP JUMPDEST PUSH1 0x40 MLOAD PUSH2 0x36C SWAP2 SWAP1 PUSH2 0x2F56 JUMP JUMPDEST PUSH1 0x40 MLOAD DUP1 SWAP2 SUB SWAP1 RETURN JUMPDEST PUSH2 0x38F PUSH1 0x4 DUP1 CALLDATASIZE SUB DUP2 ADD SWAP1 PUSH2 0x38A SWAP2 SWAP1 PUSH2 0x3126 JUMP JUMPDEST PUSH2 0x1147 JUMP JUMPDEST PUSH1 0x40 MLOAD PUSH2 0x39C SWAP2 SWAP1 PUSH2 0x2F56 JUMP JUMPDEST PUSH1 0x40 MLOAD DUP1 SWAP2 SUB SWAP1 RETURN JUMPDEST CALLVALUE DUP1 ISZERO PUSH2 0x3B1 JUMPI PUSH1 0x0 DUP1 REVERT JUMPDEST POP PUSH2 0x3BA PUSH2 0x1189 JUMP JUMPDEST PUSH1 0x40 MLOAD PUSH2 0x3C7 SWAP2 SWAP1 PUSH2 0x2C82 JUMP JUMPDEST PUSH1 0x40 MLOAD DUP1 SWAP2 SUB SWAP1 RETURN JUMPDEST CALLVALUE DUP1 ISZERO PUSH2 0x3DC JUMPI PUSH1 0x0 DUP1 REVERT JUMPDEST POP PUSH2 0x3F7 PUSH1 0x4 DUP1 CALLDATASIZE SUB DUP2 ADD SWAP1 PUSH2 0x3F2 SWAP2 SWAP1 PUSH2 0x31AE JUMP JUMPDEST PUSH2 0x121B JUMP JUMPDEST STOP JUMPDEST PUSH2 0x413 PUSH1 0x4 DUP1 CALLDATASIZE SUB DUP2 ADD SWAP1 PUSH2 0x40E SWAP2 SWAP1 PUSH2 0x2CDA JUMP JUMPDEST PUSH2 0x1231 JUMP JUMPDEST STOP JUMPDEST CALLVALUE DUP1 ISZERO PUSH2 0x421 JUMPI PUSH1 0x0 DUP1 REVERT JUMPDEST POP PUSH2 0x43C PUSH1 0x4 DUP1 CALLDATASIZE SUB DUP2 ADD SWAP1 PUSH2 0x437 SWAP2 SWAP1 PUSH2 0x328F JUMP JUMPDEST PUSH2 0x12CB JUMP JUMPDEST STOP JUMPDEST PUSH2 0x458 PUSH1 0x4 DUP1 CALLDATASIZE SUB DUP2 ADD SWAP1 PUSH2 0x453 SWAP2 SWAP1 PUSH2 0x2CDA JUMP JUMPDEST PUSH2 0x132D JUMP JUMPDEST STOP JUMPDEST CALLVALUE DUP1 ISZERO PUSH2 0x466 JUMPI PUSH1 0x0 DUP1 REVERT JUMPDEST POP PUSH2 0x481 PUSH1 0x4 DUP1 CALLDATASIZE SUB DUP2 ADD SWAP1 PUSH2 0x47C SWAP2 SWAP1 PUSH2 0x2CDA JUMP JUMPDEST PUSH2 0x1565 JUMP JUMPDEST PUSH1 0x40 MLOAD PUSH2 0x48E SWAP2 SWAP1 PUSH2 0x2C82 JUMP JUMPDEST PUSH1 0x40 MLOAD DUP1 SWAP2 SUB SWAP1 RETURN JUMPDEST PUSH2 0x4B1 PUSH1 0x4 DUP1 CALLDATASIZE SUB DUP2 ADD SWAP1 PUSH2 0x4AC SWAP2 SWAP1 PUSH2 0x3312 JUMP JUMPDEST PUSH2 0x1677 JUMP JUMPDEST STOP JUMPDEST CALLVALUE DUP1 ISZERO PUSH2 0x4BF JUMPI PUSH1 0x0 DUP1 REVERT JUMPDEST POP PUSH2 0x4DA PUSH1 0x4 DUP1 CALLDATASIZE SUB DUP2 ADD SWAP1 PUSH2 0x4D5 SWAP2 SWAP1 PUSH2 0x3352 JUMP JUMPDEST PUSH2 0x186C JUMP JUMPDEST PUSH1 0x40 MLOAD PUSH2 0x4E7 SWAP2 SWAP1 PUSH2 0x2BD7 JUMP JUMPDEST PUSH1 0x40 MLOAD DUP1 SWAP2 SUB SWAP1 RETURN JUMPDEST PUSH1 0x0 PUSH4 0x49064906 PUSH1 0xE0 SHL PUSH28 0xFFFFFFFFFFFFFFFFFFFFFFFFFFFFFFFFFFFFFFFFFFFFFFFFFFFFFFFF NOT AND DUP3 PUSH28 0xFFFFFFFFFFFFFFFFFFFFFFFFFFFFFFFFFFFFFFFFFFFFFFFFFFFFFFFF NOT AND EQ DUP1 PUSH2 0x54A JUMPI POP PUSH2 0x549 DUP3 PUSH2 0x1900 JUMP JUMPDEST JUMPDEST SWAP1 POP SWAP2 SWAP1 POP JUMP JUMPDEST PUSH1 0x60 PUSH1 0x0 DUP1 SLOAD PUSH2 0x560 SWAP1 PUSH2 0x33C1 JUMP JUMPDEST DUP1 PUSH1 0x1F ADD PUSH1 0x20 DUP1 SWAP2 DIV MUL PUSH1 0x20 ADD PUSH1 0x40 MLOAD SWAP1 DUP2 ADD PUSH1 0x40 MSTORE DUP1 SWAP3 SWAP2 SWAP1 DUP2 DUP2 MSTORE PUSH1 0x20 ADD DUP3 DUP1 SLOAD PUSH2 0x58C SWAP1 PUSH2 0x33C1 JUMP JUMPDEST DUP1 ISZERO PUSH2 0x5D9 JUMPI DUP1 PUSH1 0x1F LT PUSH2 0x5AE JUMPI PUSH2 0x100 DUP1 DUP4 SLOAD DIV MUL DUP4 MSTORE SWAP2 PUSH1 0x20 ADD SWAP2 PUSH2 0x5D9 JUMP JUMPDEST DUP3 ADD SWAP2 SWAP1 PUSH1 0x0 MSTORE PUSH1 0x20 PUSH1 0x0 KECCAK256 SWAP1 JUMPDEST DUP2 SLOAD DUP2 MSTORE SWAP1 PUSH1 0x1 ADD SWAP1 PUSH1 0x20 ADD DUP1 DUP4 GT PUSH2 0x5BC JUMPI DUP3 SWAP1 SUB PUSH1 0x1F AND DUP3 ADD SWAP2 JUMPDEST POP POP POP POP POP SWAP1 POP SWAP1 JUMP JUMPDEST PUSH1 0x0 PUSH2 0x5EE DUP3 PUSH2 0x19E2 JUMP JUMPDEST PUSH1 0x4 PUSH1 0x0 DUP4 DUP2 MSTORE PUSH1 0x20 ADD SWAP1 DUP2 MSTORE PUSH1 0x20 ADD PUSH1 0x0 KECCAK256 PUSH1 0x0 SWAP1 SLOAD SWAP1 PUSH2 0x100 EXP SWAP1 DIV PUSH20 0xFFFFFFFFFFFFFFFFFFFFFFFFFFFFFFFFFFFFFFFF AND SWAP1 POP SWAP2 SWAP1 POP JUMP JUMPDEST PUSH1 0x0 PUSH2 0x634 DUP3 PUSH2 0x100A JUMP JUMPDEST SWAP1 POP DUP1 PUSH20 0xFFFFFFFFFFFFFFFFFFFFFFFFFFFFFFFFFFFFFFFF AND DUP4 PUSH20 0xFFFFFFFFFFFFFFFFFFFFFFFFFFFFFFFFFFFFFFFF AND SUB PUSH2 0x6A4 JUMPI PUSH1 0x40 MLOAD PUSH32 0x8C379A000000000000000000000000000000000000000000000000000000000 DUP2 MSTORE PUSH1 0x4 ADD PUSH2 0x69B SWAP1 PUSH2 0x3464 JUMP JUMPDEST PUSH1 0x40 MLOAD DUP1 SWAP2 SUB SWAP1 REVERT JUMPDEST DUP1 PUSH20 0xFFFFFFFFFFFFFFFFFFFFFFFFFFFFFFFFFFFFFFFF AND PUSH2 0x6C3 PUSH2 0x1A2D JUMP JUMPDEST PUSH20 0xFFFFFFFFFFFFFFFFFFFFFFFFFFFFFFFFFFFFFFFF AND EQ DUP1 PUSH2 0x6F2 JUMPI POP PUSH2 0x6F1 DUP2 PUSH2 0x6EC PUSH2 0x1A2D JUMP JUMPDEST PUSH2 0x186C JUMP JUMPDEST JUMPDEST PUSH2 0x731 JUMPI PUSH1 0x40 MLOAD PUSH32 0x8C379A000000000000000000000000000000000000000000000000000000000 DUP2 MSTORE PUSH1 0x4 ADD PUSH2 0x728 SWAP1 PUSH2 0x34F6 JUMP JUMPDEST PUSH1 0x40 MLOAD DUP1 SWAP2 SUB SWAP1 REVERT JUMPDEST PUSH2 0x73B DUP4 DUP4 PUSH2 0x1A35 JUMP JUMPDEST POP POP POP JUMP JUMPDEST PUSH1 0x60 PUSH1 0x0 PUSH2 0x74E PUSH1 0x7 PUSH2 0x1AEE JUMP JUMPDEST SWAP1 POP PUSH1 0x0 PUSH2 0x75C PUSH1 0x8 PUSH2 0x1AEE JUMP JUMPDEST PUSH2 0x766 PUSH1 0x7 PUSH2 0x1AEE JUMP JUMPDEST PUSH2 0x770 SWAP2 SWAP1 PUSH2 0x3545 JUMP JUMPDEST SWAP1 POP PUSH1 0x0 DUP1 DUP3 PUSH8 0xFFFFFFFFFFFFFFFF DUP2 GT ISZERO PUSH2 0x78F JUMPI PUSH2 0x78E PUSH2 0x2FFB JUMP JUMPDEST JUMPDEST PUSH1 0x40 MLOAD SWAP1 DUP1 DUP3 MSTORE DUP1 PUSH1 0x20 MUL PUSH1 0x20 ADD DUP3 ADD PUSH1 0x40 MSTORE DUP1 ISZERO PUSH2 0x7C8 JUMPI DUP2 PUSH1 0x20 ADD JUMPDEST PUSH2 0x7B5 PUSH2 0x2AC6 JUMP JUMPDEST DUP2 MSTORE PUSH1 0x20 ADD SWAP1 PUSH1 0x1 SWAP1 SUB SWAP1 DUP2 PUSH2 0x7AD JUMPI SWAP1 POP JUMPDEST POP SWAP1 POP PUSH1 0x0 JUMPDEST DUP5 DUP2 LT ISZERO PUSH2 0x99D JUMPI ADDRESS PUSH20 0xFFFFFFFFFFFFFFFFFFFFFFFFFFFFFFFFFFFFFFFF AND PUSH1 0xB PUSH1 0x0 PUSH1 0x1 DUP5 PUSH2 0x7FE SWAP2 SWAP1 PUSH2 0x3579 JUMP JUMPDEST DUP2 MSTORE PUSH1 0x20 ADD SWAP1 DUP2 MSTORE PUSH1 0x20 ADD PUSH1 0x0 KECCAK256 PUSH1 0x2 ADD PUSH1 0x0 SWAP1 SLOAD SWAP1 PUSH2 0x100 EXP SWAP1 DIV PUSH20 0xFFFFFFFFFFFFFFFFFFFFFFFFFFFFFFFFFFFFFFFF AND PUSH20 0xFFFFFFFFFFFFFFFFFFFFFFFFFFFFFFFFFFFFFFFF AND SUB PUSH2 0x98A JUMPI PUSH1 0x0 PUSH1 0x1 DUP3 PUSH2 0x85A SWAP2 SWAP1 PUSH2 0x3579 JUMP JUMPDEST SWAP1 POP PUSH1 0x0 PUSH1 0xB PUSH1 0x0 DUP4 DUP2 MSTORE PUSH1 0x20 ADD SWAP1 DUP2 MSTORE PUSH1 0x20 ADD PUSH1 0x0 KECCAK256 SWAP1 POP DUP1 PUSH1 0x40 MLOAD DUP1 PUSH1 0xA0 ADD PUSH1 0x40 MSTORE SWAP1 DUP2 PUSH1 0x0 DUP3 ADD SLOAD DUP2 MSTORE PUSH1 0x20 ADD PUSH1 0x1 DUP3 ADD PUSH1 0x0 SWAP1 SLOAD SWAP1 PUSH2 0x100 EXP SWAP1 DIV PUSH20 0xFFFFFFFFFFFFFFFFFFFFFFFFFFFFFFFFFFFFFFFF AND PUSH20 0xFFFFFFFFFFFFFFFFFFFFFFFFFFFFFFFFFFFFFFFF AND PUSH20 0xFFFFFFFFFFFFFFFFFFFFFFFFFFFFFFFFFFFFFFFF AND DUP2 MSTORE PUSH1 0x20 ADD PUSH1 0x2 DUP3 ADD PUSH1 0x0 SWAP1 SLOAD SWAP1 PUSH2 0x100 EXP SWAP1 DIV PUSH20 0xFFFFFFFFFFFFFFFFFFFFFFFFFFFFFFFFFFFFFFFF AND PUSH20 0xFFFFFFFFFFFFFFFFFFFFFFFFFFFFFFFFFFFFFFFF AND PUSH20 0xFFFFFFFFFFFFFFFFFFFFFFFFFFFFFFFFFFFFFFFF AND DUP2 MSTORE PUSH1 0x20 ADD PUSH1 0x3 DUP3 ADD SLOAD DUP2 MSTORE PUSH1 0x20 ADD PUSH1 0x4 DUP3 ADD PUSH1 0x0 SWAP1 SLOAD SWAP1 PUSH2 0x100 EXP SWAP1 DIV PUSH1 0xFF AND ISZERO ISZERO ISZERO ISZERO DUP2 MSTORE POP POP DUP5 DUP7 DUP2 MLOAD DUP2 LT PUSH2 0x96D JUMPI PUSH2 0x96C PUSH2 0x35AD JUMP JUMPDEST JUMPDEST PUSH1 0x20 MUL PUSH1 0x20 ADD ADD DUP2 SWAP1 MSTORE POP PUSH1 0x1 DUP6 PUSH2 0x985 SWAP2 SWAP1 PUSH2 0x3579 JUMP JUMPDEST SWAP5 POP POP POP JUMPDEST DUP1 DUP1 PUSH2 0x995 SWAP1 PUSH2 0x35DC JUMP JUMPDEST SWAP2 POP POP PUSH2 0x7CE JUMP JUMPDEST POP DUP1 SWAP5 POP POP POP POP POP SWAP1 JUMP JUMPDEST PUSH1 0x0 PUSH1 0x9 SLOAD SWAP1 POP SWAP1 JUMP JUMPDEST PUSH1 0x60 PUSH1 0x0 PUSH2 0x9C0 PUSH1 0x7 PUSH2 0x1AEE JUMP JUMPDEST SWAP1 POP PUSH1 0x0 DUP1 PUSH1 0x0 JUMPDEST DUP4 DUP2 LT ISZERO PUSH2 0xA68 JUMPI CALLER PUSH20 0xFFFFFFFFFFFFFFFFFFFFFFFFFFFFFFFFFFFFFFFF AND PUSH1 0xB PUSH1 0x0 PUSH1 0x1 DUP5 PUSH2 0x9F8 SWAP2 SWAP1 PUSH2 0x3579 JUMP JUMPDEST DUP2 MSTORE PUSH1 0x20 ADD SWAP1 DUP2 MSTORE PUSH1 0x20 ADD PUSH1 0x0 KECCAK256 PUSH1 0x2 ADD PUSH1 0x0 SWAP1 SLOAD SWAP1 PUSH2 0x100 EXP SWAP1 DIV PUSH20 0xFFFFFFFFFFFFFFFFFFFFFFFFFFFFFFFFFFFFFFFF AND PUSH20 0xFFFFFFFFFFFFFFFFFFFFFFFFFFFFFFFFFFFFFFFF AND SUB PUSH2 0xA55 JUMPI PUSH1 0x1 DUP4 PUSH2 0xA52 SWAP2 SWAP1 PUSH2 0x3579 JUMP JUMPDEST SWAP3 POP JUMPDEST DUP1 DUP1 PUSH2 0xA60 SWAP1 PUSH2 0x35DC JUMP JUMPDEST SWAP2 POP POP PUSH2 0x9C8 JUMP JUMPDEST POP PUSH1 0x0 DUP3 PUSH8 0xFFFFFFFFFFFFFFFF DUP2 GT ISZERO PUSH2 0xA85 JUMPI PUSH2 0xA84 PUSH2 0x2FFB JUMP JUMPDEST JUMPDEST PUSH1 0x40 MLOAD SWAP1 DUP1 DUP3 MSTORE DUP1 PUSH1 0x20 MUL PUSH1 0x20 ADD DUP3 ADD PUSH1 0x40 MSTORE DUP1 ISZERO PUSH2 0xABE JUMPI DUP2 PUSH1 0x20 ADD JUMPDEST PUSH2 0xAAB PUSH2 0x2AC6 JUMP JUMPDEST DUP2 MSTORE PUSH1 0x20 ADD SWAP1 PUSH1 0x1 SWAP1 SUB SWAP1 DUP2 PUSH2 0xAA3 JUMPI SWAP1 POP JUMPDEST POP SWAP1 POP PUSH1 0x0 JUMPDEST DUP5 DUP2 LT ISZERO PUSH2 0xC93 JUMPI CALLER PUSH20 0xFFFFFFFFFFFFFFFFFFFFFFFFFFFFFFFFFFFFFFFF AND PUSH1 0xB PUSH1 0x0 PUSH1 0x1 DUP5 PUSH2 0xAF4 SWAP2 SWAP1 PUSH2 0x3579 JUMP JUMPDEST DUP2 MSTORE PUSH1 0x20 ADD SWAP1 DUP2 MSTORE PUSH1 0x20 ADD PUSH1 0x0 KECCAK256 PUSH1 0x2 ADD PUSH1 0x0 SWAP1 SLOAD SWAP1 PUSH2 0x100 EXP SWAP1 DIV PUSH20 0xFFFFFFFFFFFFFFFFFFFFFFFFFFFFFFFFFFFFFFFF AND PUSH20 0xFFFFFFFFFFFFFFFFFFFFFFFFFFFFFFFFFFFFFFFF AND SUB PUSH2 0xC80 JUMPI PUSH1 0x0 PUSH1 0x1 DUP3 PUSH2 0xB50 SWAP2 SWAP1 PUSH2 0x3579 JUMP JUMPDEST SWAP1 POP PUSH1 0x0 PUSH1 0xB PUSH1 0x0 DUP4 DUP2 MSTORE PUSH1 0x20 ADD SWAP1 DUP2 MSTORE PUSH1 0x20 ADD PUSH1 0x0 KECCAK256 SWAP1 POP DUP1 PUSH1 0x40 MLOAD DUP1 PUSH1 0xA0 ADD PUSH1 0x40 MSTORE SWAP1 DUP2 PUSH1 0x0 DUP3 ADD SLOAD DUP2 MSTORE PUSH1 0x20 ADD PUSH1 0x1 DUP3 ADD PUSH1 0x0 SWAP1 SLOAD SWAP1 PUSH2 0x100 EXP SWAP1 DIV PUSH20 0xFFFFFFFFFFFFFFFFFFFFFFFFFFFFFFFFFFFFFFFF AND PUSH20 0xFFFFFFFFFFFFFFFFFFFFFFFFFFFFFFFFFFFFFFFF AND PUSH20 0xFFFFFFFFFFFFFFFFFFFFFFFFFFFFFFFFFFFFFFFF AND DUP2 MSTORE PUSH1 0x20 ADD PUSH1 0x2 DUP3 ADD PUSH1 0x0 SWAP1 SLOAD SWAP1 PUSH2 0x100 EXP SWAP1 DIV PUSH20 0xFFFFFFFFFFFFFFFFFFFFFFFFFFFFFFFFFFFFFFFF AND PUSH20 0xFFFFFFFFFFFFFFFFFFFFFFFFFFFFFFFFFFFFFFFF AND PUSH20 0xFFFFFFFFFFFFFFFFFFFFFFFFFFFFFFFFFFFFFFFF AND DUP2 MSTORE PUSH1 0x20 ADD PUSH1 0x3 DUP3 ADD SLOAD DUP2 MSTORE PUSH1 0x20 ADD PUSH1 0x4 DUP3 ADD PUSH1 0x0 SWAP1 SLOAD SWAP1 PUSH2 0x100 EXP SWAP1 DIV PUSH1 0xFF AND ISZERO ISZERO ISZERO ISZERO DUP2 MSTORE POP POP DUP5 DUP7 DUP2 MLOAD DUP2 LT PUSH2 0xC63 JUMPI PUSH2 0xC62 PUSH2 0x35AD JUMP JUMPDEST JUMPDEST PUSH1 0x20 MUL PUSH1 0x20 ADD ADD DUP2 SWAP1 MSTORE POP PUSH1 0x1 DUP6 PUSH2 0xC7B SWAP2 SWAP1 PUSH2 0x3579 JUMP JUMPDEST SWAP5 POP POP POP JUMPDEST DUP1 DUP1 PUSH2 0xC8B SWAP1 PUSH2 0x35DC JUMP JUMPDEST SWAP2 POP POP PUSH2 0xAC4 JUMP JUMPDEST POP DUP1 SWAP5 POP POP POP POP POP SWAP1 JUMP JUMPDEST PUSH2 0xCAF PUSH2 0xCA9 PUSH2 0x1A2D JUMP JUMPDEST DUP3 PUSH2 0x1AFC JUMP JUMPDEST PUSH2 0xCEE JUMPI PUSH1 0x40 MLOAD PUSH32 0x8C379A000000000000000000000000000000000000000000000000000000000 DUP2 MSTORE PUSH1 0x4 ADD PUSH2 0xCE5 SWAP1 PUSH2 0x3696 JUMP JUMPDEST PUSH1 0x40 MLOAD DUP1 SWAP2 SUB SWAP1 REVERT JUMPDEST PUSH2 0xCF9 DUP4 DUP4 DUP4 PUSH2 0x1B91 JUMP JUMPDEST POP POP POP JUMP JUMPDEST PUSH2 0xD19 DUP4 DUP4 DUP4 PUSH1 0x40 MLOAD DUP1 PUSH1 0x20 ADD PUSH1 0x40 MSTORE DUP1 PUSH1 0x0 DUP2 MSTORE POP PUSH2 0x12CB JUMP JUMPDEST POP POP POP JUMP JUMPDEST PUSH1 0x60 PUSH1 0x0 PUSH2 0xD2C PUSH1 0x7 PUSH2 0x1AEE JUMP JUMPDEST SWAP1 POP PUSH1 0x0 DUP1 PUSH1 0x0 JUMPDEST DUP4 DUP2 LT ISZERO PUSH2 0xDD4 JUMPI CALLER PUSH20 0xFFFFFFFFFFFFFFFFFFFFFFFFFFFFFFFFFFFFFFFF AND PUSH1 0xB PUSH1 0x0 PUSH1 0x1 DUP5 PUSH2 0xD64 SWAP2 SWAP1 PUSH2 0x3579 JUMP JUMPDEST DUP2 MSTORE PUSH1 0x20 ADD SWAP1 DUP2 MSTORE PUSH1 0x20 ADD PUSH1 0x0 KECCAK256 PUSH1 0x1 ADD PUSH1 0x0 SWAP1 SLOAD SWAP1 PUSH2 0x100 EXP SWAP1 DIV PUSH20 0xFFFFFFFFFFFFFFFFFFFFFFFFFFFFFFFFFFFFFFFF AND PUSH20 0xFFFFFFFFFFFFFFFFFFFFFFFFFFFFFFFFFFFFFFFF AND SUB PUSH2 0xDC1 JUMPI PUSH1 0x1 DUP4 PUSH2 0xDBE SWAP2 SWAP1 PUSH2 0x3579 JUMP JUMPDEST SWAP3 POP JUMPDEST DUP1 DUP1 PUSH2 0xDCC SWAP1 PUSH2 0x35DC JUMP JUMPDEST SWAP2 POP POP PUSH2 0xD34 JUMP JUMPDEST POP PUSH1 0x0 DUP3 PUSH8 0xFFFFFFFFFFFFFFFF DUP2 GT ISZERO PUSH2 0xDF1 JUMPI PUSH2 0xDF0 PUSH2 0x2FFB JUMP JUMPDEST JUMPDEST PUSH1 0x40 MLOAD SWAP1 DUP1 DUP3 MSTORE DUP1 PUSH1 0x20 MUL PUSH1 0x20 ADD DUP3 ADD PUSH1 0x40 MSTORE DUP1 ISZERO PUSH2 0xE2A JUMPI DUP2 PUSH1 0x20 ADD JUMPDEST PUSH2 0xE17 PUSH2 0x2AC6 JUMP JUMPDEST DUP2 MSTORE PUSH1 0x20 ADD SWAP1 PUSH1 0x1 SWAP1 SUB SWAP1 DUP2 PUSH2 0xE0F JUMPI SWAP1 POP JUMPDEST POP SWAP1 POP PUSH1 0x0 JUMPDEST DUP5 DUP2 LT ISZERO PUSH2 0xFFF JUMPI CALLER PUSH20 0xFFFFFFFFFFFFFFFFFFFFFFFFFFFFFFFFFFFFFFFF AND PUSH1 0xB PUSH1 0x0 PUSH1 0x1 DUP5 PUSH2 0xE60 SWAP2 SWAP1 PUSH2 0x3579 JUMP JUMPDEST DUP2 MSTORE PUSH1 0x20 ADD SWAP1 DUP2 MSTORE PUSH1 0x20 ADD PUSH1 0x0 KECCAK256 PUSH1 0x1 ADD PUSH1 0x0 SWAP1 SLOAD SWAP1 PUSH2 0x100 EXP SWAP1 DIV PUSH20 0xFFFFFFFFFFFFFFFFFFFFFFFFFFFFFFFFFFFFFFFF AND PUSH20 0xFFFFFFFFFFFFFFFFFFFFFFFFFFFFFFFFFFFFFFFF AND SUB PUSH2 0xFEC JUMPI PUSH1 0x0 PUSH1 0x1 DUP3 PUSH2 0xEBC SWAP2 SWAP1 PUSH2 0x3579 JUMP JUMPDEST SWAP1 POP PUSH1 0x0 PUSH1 0xB PUSH1 0x0 DUP4 DUP2 MSTORE PUSH1 0x20 ADD SWAP1 DUP2 MSTORE PUSH1 0x20 ADD PUSH1 0x0 KECCAK256 SWAP1 POP DUP1 PUSH1 0x40 MLOAD DUP1 PUSH1 0xA0 ADD PUSH1 0x40 MSTORE SWAP1 DUP2 PUSH1 0x0 DUP3 ADD SLOAD DUP2 MSTORE PUSH1 0x20 ADD PUSH1 0x1 DUP3 ADD PUSH1 0x0 SWAP1 SLOAD SWAP1 PUSH2 0x100 EXP SWAP1 DIV PUSH20 0xFFFFFFFFFFFFFFFFFFFFFFFFFFFFFFFFFFFFFFFF AND PUSH20 0xFFFFFFFFFFFFFFFFFFFFFFFFFFFFFFFFFFFFFFFF AND PUSH20 0xFFFFFFFFFFFFFFFFFFFFFFFFFFFFFFFFFFFFFFFF AND DUP2 MSTORE PUSH1 0x20 ADD PUSH1 0x2 DUP3 ADD PUSH1 0x0 SWAP1 SLOAD SWAP1 PUSH2 0x100 EXP SWAP1 DIV PUSH20 0xFFFFFFFFFFFFFFFFFFFFFFFFFFFFFFFFFFFFFFFF AND PUSH20 0xFFFFFFFFFFFFFFFFFFFFFFFFFFFFFFFFFFFFFFFF AND PUSH20 0xFFFFFFFFFFFFFFFFFFFFFFFFFFFFFFFFFFFFFFFF AND DUP2 MSTORE PUSH1 0x20 ADD PUSH1 0x3 DUP3 ADD SLOAD DUP2 MSTORE PUSH1 0x20 ADD PUSH1 0x4 DUP3 ADD PUSH1 0x0 SWAP1 SLOAD SWAP1 PUSH2 0x100 EXP SWAP1 DIV PUSH1 0xFF AND ISZERO ISZERO ISZERO ISZERO DUP2 MSTORE POP POP DUP5 DUP7 DUP2 MLOAD DUP2 LT PUSH2 0xFCF JUMPI PUSH2 0xFCE PUSH2 0x35AD JUMP JUMPDEST JUMPDEST PUSH1 0x20 MUL PUSH1 0x20 ADD ADD DUP2 SWAP1 MSTORE POP PUSH1 0x1 DUP6 PUSH2 0xFE7 SWAP2 SWAP1 PUSH2 0x3579 JUMP JUMPDEST SWAP5 POP POP POP JUMPDEST DUP1 DUP1 PUSH2 0xFF7 SWAP1 PUSH2 0x35DC JUMP JUMPDEST SWAP2 POP POP PUSH2 0xE30 JUMP JUMPDEST POP DUP1 SWAP5 POP POP POP POP POP SWAP1 JUMP JUMPDEST PUSH1 0x0 DUP1 PUSH2 0x1016 DUP4 PUSH2 0x1E8A JUMP JUMPDEST SWAP1 POP PUSH1 0x0 PUSH20 0xFFFFFFFFFFFFFFFFFFFFFFFFFFFFFFFFFFFFFFFF AND DUP2 PUSH20 0xFFFFFFFFFFFFFFFFFFFFFFFFFFFFFFFFFFFFFFFF AND SUB PUSH2 0x1087 JUMPI PUSH1 0x40 MLOAD PUSH32 0x8C379A000000000000000000000000000000000000000000000000000000000 DUP2 MSTORE PUSH1 0x4 ADD PUSH2 0x107E SWAP1 PUSH2 0x3702 JUMP JUMPDEST PUSH1 0x40 MLOAD DUP1 SWAP2 SUB SWAP1 REVERT JUMPDEST DUP1 SWAP2 POP POP SWAP2 SWAP1 POP JUMP JUMPDEST PUSH1 0x0 DUP1 PUSH20 0xFFFFFFFFFFFFFFFFFFFFFFFFFFFFFFFFFFFFFFFF AND DUP3 PUSH20 0xFFFFFFFFFFFFFFFFFFFFFFFFFFFFFFFFFFFFFFFF AND SUB PUSH2 0x1100 JUMPI PUSH1 0x40 MLOAD PUSH32 0x8C379A000000000000000000000000000000000000000000000000000000000 DUP2 MSTORE PUSH1 0x4 ADD PUSH2 0x10F7 SWAP1 PUSH2 0x3794 JUMP JUMPDEST PUSH1 0x40 MLOAD DUP1 SWAP2 SUB SWAP1 REVERT JUMPDEST PUSH1 0x3 PUSH1 0x0 DUP4 PUSH20 0xFFFFFFFFFFFFFFFFFFFFFFFFFFFFFFFFFFFFFFFF AND PUSH20 0xFFFFFFFFFFFFFFFFFFFFFFFFFFFFFFFFFFFFFFFF AND DUP2 MSTORE PUSH1 0x20 ADD SWAP1 DUP2 MSTORE PUSH1 0x20 ADD PUSH1 0x0 KECCAK256 SLOAD SWAP1 POP SWAP2 SWAP1 POP JUMP JUMPDEST PUSH1 0x0 PUSH2 0x1153 PUSH1 0x7 PUSH2 0x1EC7 JUMP JUMPDEST PUSH1 0x0 PUSH2 0x115F PUSH1 0x7 PUSH2 0x1AEE JUMP JUMPDEST SWAP1 POP PUSH2 0x116B CALLER DUP3 PUSH2 0x1EDD JUMP JUMPDEST PUSH2 0x1175 DUP2 DUP6 PUSH2 0x20FA JUMP JUMPDEST PUSH2 0x117F DUP2 DUP5 PUSH2 0x219E JUMP JUMPDEST DUP1 SWAP2 POP POP SWAP3 SWAP2 POP POP JUMP JUMPDEST PUSH1 0x60 PUSH1 0x1 DUP1 SLOAD PUSH2 0x1198 SWAP1 PUSH2 0x33C1 JUMP JUMPDEST DUP1 PUSH1 0x1F ADD PUSH1 0x20 DUP1 SWAP2 DIV MUL PUSH1 0x20 ADD PUSH1 0x40 MLOAD SWAP1 DUP2 ADD PUSH1 0x40 MSTORE DUP1 SWAP3 SWAP2 SWAP1 DUP2 DUP2 MSTORE PUSH1 0x20 ADD DUP3 DUP1 SLOAD PUSH2 0x11C4 SWAP1 PUSH2 0x33C1 JUMP JUMPDEST DUP1 ISZERO PUSH2 0x1211 JUMPI DUP1 PUSH1 0x1F LT PUSH2 0x11E6 JUMPI PUSH2 0x100 DUP1 DUP4 SLOAD DIV MUL DUP4 MSTORE SWAP2 PUSH1 0x20 ADD SWAP2 PUSH2 0x1211 JUMP JUMPDEST DUP3 ADD SWAP2 SWAP1 PUSH1 0x0 MSTORE PUSH1 0x20 PUSH1 0x0 KECCAK256 SWAP1 JUMPDEST DUP2 SLOAD DUP2 MSTORE SWAP1 PUSH1 0x1 ADD SWAP1 PUSH1 0x20 ADD DUP1 DUP4 GT PUSH2 0x11F4 JUMPI DUP3 SWAP1 SUB PUSH1 0x1F AND DUP3 ADD SWAP2 JUMPDEST POP POP POP POP POP SWAP1 POP SWAP1 JUMP JUMPDEST PUSH2 0x122D PUSH2 0x1226 PUSH2 0x1A2D JUMP JUMPDEST DUP4 DUP4 PUSH2 0x23A1 JUMP JUMPDEST POP POP JUMP JUMPDEST CALLER PUSH20 0xFFFFFFFFFFFFFFFFFFFFFFFFFFFFFFFFFFFFFFFF AND PUSH1 0xA PUSH1 0x0 SWAP1 SLOAD SWAP1 PUSH2 0x100 EXP SWAP1 DIV PUSH20 0xFFFFFFFFFFFFFFFFFFFFFFFFFFFFFFFFFFFFFFFF AND PUSH20 0xFFFFFFFFFFFFFFFFFFFFFFFFFFFFFFFFFFFFFFFF AND EQ PUSH2 0x12C1 JUMPI PUSH1 0x40 MLOAD PUSH32 0x8C379A000000000000000000000000000000000000000000000000000000000 DUP2 MSTORE PUSH1 0x4 ADD PUSH2 0x12B8 SWAP1 PUSH2 0x3826 JUMP JUMPDEST PUSH1 0x40 MLOAD DUP1 SWAP2 SUB SWAP1 REVERT JUMPDEST DUP1 PUSH1 0x9 DUP2 SWAP1 SSTORE POP POP JUMP JUMPDEST PUSH2 0x12DC PUSH2 0x12D6 PUSH2 0x1A2D JUMP JUMPDEST DUP4 PUSH2 0x1AFC JUMP JUMPDEST PUSH2 0x131B JUMPI PUSH1 0x40 MLOAD PUSH32 0x8C379A000000000000000000000000000000000000000000000000000000000 DUP2 MSTORE PUSH1 0x4 ADD PUSH2 0x1312 SWAP1 PUSH2 0x3696 JUMP JUMPDEST PUSH1 0x40 MLOAD DUP1 SWAP2 SUB SWAP1 REVERT JUMPDEST PUSH2 0x1327 DUP5 DUP5 DUP5 DUP5 PUSH2 0x250D JUMP JUMPDEST POP POP POP POP JUMP JUMPDEST PUSH1 0x0 PUSH1 0xB PUSH1 0x0 DUP4 DUP2 MSTORE PUSH1 0x20 ADD SWAP1 DUP2 MSTORE PUSH1 0x20 ADD PUSH1 0x0 KECCAK256 PUSH1 0x3 ADD SLOAD SWAP1 POP DUP1 CALLVALUE EQ PUSH2 0x138A JUMPI PUSH1 0x40 MLOAD PUSH32 0x8C379A000000000000000000000000000000000000000000000000000000000 DUP2 MSTORE PUSH1 0x4 ADD PUSH2 0x1381 SWAP1 PUSH2 0x38B8 JUMP JUMPDEST PUSH1 0x40 MLOAD DUP1 SWAP2 SUB SWAP1 REVERT JUMPDEST CALLER PUSH1 0xB PUSH1 0x0 DUP5 DUP2 MSTORE PUSH1 0x20 ADD SWAP1 DUP2 MSTORE PUSH1 0x20 ADD PUSH1 0x0 KECCAK256 PUSH1 0x2 ADD PUSH1 0x0 PUSH2 0x100 EXP DUP2 SLOAD DUP2 PUSH20 0xFFFFFFFFFFFFFFFFFFFFFFFFFFFFFFFFFFFFFFFF MUL NOT AND SWAP1 DUP4 PUSH20 0xFFFFFFFFFFFFFFFFFFFFFFFFFFFFFFFFFFFFFFFF AND MUL OR SWAP1 SSTORE POP PUSH1 0x1 PUSH1 0xB PUSH1 0x0 DUP5 DUP2 MSTORE PUSH1 0x20 ADD SWAP1 DUP2 MSTORE PUSH1 0x20 ADD PUSH1 0x0 KECCAK256 PUSH1 0x4 ADD PUSH1 0x0 PUSH2 0x100 EXP DUP2 SLOAD DUP2 PUSH1 0xFF MUL NOT AND SWAP1 DUP4 ISZERO ISZERO MUL OR SWAP1 SSTORE POP PUSH1 0x0 PUSH1 0xB PUSH1 0x0 DUP5 DUP2 MSTORE PUSH1 0x20 ADD SWAP1 DUP2 MSTORE PUSH1 0x20 ADD PUSH1 0x0 KECCAK256 PUSH1 0x1 ADD PUSH1 0x0 PUSH2 0x100 EXP DUP2 SLOAD DUP2 PUSH20 0xFFFFFFFFFFFFFFFFFFFFFFFFFFFFFFFFFFFFFFFF MUL NOT AND SWAP1 DUP4 PUSH20 0xFFFFFFFFFFFFFFFFFFFFFFFFFFFFFFFFFFFFFFFF AND MUL OR SWAP1 SSTORE POP PUSH2 0x146E PUSH1 0x8 PUSH2 0x1EC7 JUMP JUMPDEST PUSH2 0x1479 ADDRESS CALLER DUP5 PUSH2 0x1B91 JUMP JUMPDEST PUSH1 0xA PUSH1 0x0 SWAP1 SLOAD SWAP1 PUSH2 0x100 EXP SWAP1 DIV PUSH20 0xFFFFFFFFFFFFFFFFFFFFFFFFFFFFFFFFFFFFFFFF AND PUSH20 0xFFFFFFFFFFFFFFFFFFFFFFFFFFFFFFFFFFFFFFFF AND PUSH2 0x8FC PUSH1 0x9 SLOAD SWAP1 DUP2 ISZERO MUL SWAP1 PUSH1 0x40 MLOAD PUSH1 0x0 PUSH1 0x40 MLOAD DUP1 DUP4 SUB DUP2 DUP6 DUP9 DUP9 CALL SWAP4 POP POP POP POP ISZERO DUP1 ISZERO PUSH2 0x14E3 JUMPI RETURNDATASIZE PUSH1 0x0 DUP1 RETURNDATACOPY RETURNDATASIZE PUSH1 0x0 REVERT JUMPDEST POP PUSH1 0xB PUSH1 0x0 DUP4 DUP2 MSTORE PUSH1 0x20 ADD SWAP1 DUP2 MSTORE PUSH1 0x20 ADD PUSH1 0x0 KECCAK256 PUSH1 0x1 ADD PUSH1 0x0 SWAP1 SLOAD SWAP1 PUSH2 0x100 EXP SWAP1 DIV PUSH20 0xFFFFFFFFFFFFFFFFFFFFFFFFFFFFFFFFFFFFFFFF AND PUSH20 0xFFFFFFFFFFFFFFFFFFFFFFFFFFFFFFFFFFFFFFFF AND PUSH2 0x8FC CALLVALUE SWAP1 DUP2 ISZERO MUL SWAP1 PUSH1 0x40 MLOAD PUSH1 0x0 PUSH1 0x40 MLOAD DUP1 DUP4 SUB DUP2 DUP6 DUP9 DUP9 CALL SWAP4 POP POP POP POP ISZERO DUP1 ISZERO PUSH2 0x1560 JUMPI RETURNDATASIZE PUSH1 0x0 DUP1 RETURNDATACOPY RETURNDATASIZE PUSH1 0x0 REVERT JUMPDEST POP POP POP JUMP JUMPDEST PUSH1 0x60 PUSH2 0x1570 DUP3 PUSH2 0x19E2 JUMP JUMPDEST PUSH1 0x0 PUSH1 0x6 PUSH1 0x0 DUP5 DUP2 MSTORE PUSH1 0x20 ADD SWAP1 DUP2 MSTORE PUSH1 0x20 ADD PUSH1 0x0 KECCAK256 DUP1 SLOAD PUSH2 0x1590 SWAP1 PUSH2 0x33C1 JUMP JUMPDEST DUP1 PUSH1 0x1F ADD PUSH1 0x20 DUP1 SWAP2 DIV MUL PUSH1 0x20 ADD PUSH1 0x40 MLOAD SWAP1 DUP2 ADD PUSH1 0x40 MSTORE DUP1 SWAP3 SWAP2 SWAP1 DUP2 DUP2 MSTORE PUSH1 0x20 ADD DUP3 DUP1 SLOAD PUSH2 0x15BC SWAP1 PUSH2 0x33C1 JUMP JUMPDEST DUP1 ISZERO PUSH2 0x1609 JUMPI DUP1 PUSH1 0x1F LT PUSH2 0x15DE JUMPI PUSH2 0x100 DUP1 DUP4 SLOAD DIV MUL DUP4 MSTORE SWAP2 PUSH1 0x20 ADD SWAP2 PUSH2 0x1609 JUMP JUMPDEST DUP3 ADD SWAP2 SWAP1 PUSH1 0x0 MSTORE PUSH1 0x20 PUSH1 0x0 KECCAK256 SWAP1 JUMPDEST DUP2 SLOAD DUP2 MSTORE SWAP1 PUSH1 0x1 ADD SWAP1 PUSH1 0x20 ADD DUP1 DUP4 GT PUSH2 0x15EC JUMPI DUP3 SWAP1 SUB PUSH1 0x1F AND DUP3 ADD SWAP2 JUMPDEST POP POP POP POP POP SWAP1 POP PUSH1 0x0 PUSH2 0x161A PUSH2 0x2569 JUMP JUMPDEST SWAP1 POP PUSH1 0x0 DUP2 MLOAD SUB PUSH2 0x162F JUMPI DUP2 SWAP3 POP POP POP PUSH2 0x1672 JUMP JUMPDEST PUSH1 0x0 DUP3 MLOAD GT ISZERO PUSH2 0x1664 JUMPI DUP1 DUP3 PUSH1 0x40 MLOAD PUSH1 0x20 ADD PUSH2 0x164C SWAP3 SWAP2 SWAP1 PUSH2 0x3914 JUMP JUMPDEST PUSH1 0x40 MLOAD PUSH1 0x20 DUP2 DUP4 SUB SUB DUP2 MSTORE SWAP1 PUSH1 0x40 MSTORE SWAP3 POP POP POP PUSH2 0x1672 JUMP JUMPDEST PUSH2 0x166D DUP5 PUSH2 0x2580 JUMP JUMPDEST SWAP3 POP POP POP JUMPDEST SWAP2 SWAP1 POP JUMP JUMPDEST CALLER PUSH20 0xFFFFFFFFFFFFFFFFFFFFFFFFFFFFFFFFFFFFFFFF AND PUSH1 0xB PUSH1 0x0 DUP5 DUP2 MSTORE PUSH1 0x20 ADD SWAP1 DUP2 MSTORE PUSH1 0x20 ADD PUSH1 0x0 KECCAK256 PUSH1 0x2 ADD PUSH1 0x0 SWAP1 SLOAD SWAP1 PUSH2 0x100 EXP SWAP1 DIV PUSH20 0xFFFFFFFFFFFFFFFFFFFFFFFFFFFFFFFFFFFFFFFF AND PUSH20 0xFFFFFFFFFFFFFFFFFFFFFFFFFFFFFFFFFFFFFFFF AND EQ PUSH2 0x171B JUMPI PUSH1 0x40 MLOAD PUSH32 0x8C379A000000000000000000000000000000000000000000000000000000000 DUP2 MSTORE PUSH1 0x4 ADD PUSH2 0x1712 SWAP1 PUSH2 0x39AA JUMP JUMPDEST PUSH1 0x40 MLOAD DUP1 SWAP2 SUB SWAP1 REVERT JUMPDEST PUSH1 0x9 SLOAD CALLVALUE EQ PUSH2 0x175F JUMPI PUSH1 0x40 MLOAD PUSH32 0x8C379A000000000000000000000000000000000000000000000000000000000 DUP2 MSTORE PUSH1 0x4 ADD PUSH2 0x1756 SWAP1 PUSH2 0x3A3C JUMP JUMPDEST PUSH1 0x40 MLOAD DUP1 SWAP2 SUB SWAP1 REVERT JUMPDEST PUSH1 0x0 PUSH1 0xB PUSH1 0x0 DUP5 DUP2 MSTORE PUSH1 0x20 ADD SWAP1 DUP2 MSTORE PUSH1 0x20 ADD PUSH1 0x0 KECCAK256 PUSH1 0x4 ADD PUSH1 0x0 PUSH2 0x100 EXP DUP2 SLOAD DUP2 PUSH1 0xFF MUL NOT AND SWAP1 DUP4 ISZERO ISZERO MUL OR SWAP1 SSTORE POP DUP1 PUSH1 0xB PUSH1 0x0 DUP5 DUP2 MSTORE PUSH1 0x20 ADD SWAP1 DUP2 MSTORE PUSH1 0x20 ADD PUSH1 0x0 KECCAK256 PUSH1 0x3 ADD DUP2 SWAP1 SSTORE POP CALLER PUSH1 0xB PUSH1 0x0 DUP5 DUP2 MSTORE PUSH1 0x20 ADD SWAP1 DUP2 MSTORE PUSH1 0x20 ADD PUSH1 0x0 KECCAK256 PUSH1 0x1 ADD PUSH1 0x0 PUSH2 0x100 EXP DUP2 SLOAD DUP2 PUSH20 0xFFFFFFFFFFFFFFFFFFFFFFFFFFFFFFFFFFFFFFFF MUL NOT AND SWAP1 DUP4 PUSH20 0xFFFFFFFFFFFFFFFFFFFFFFFFFFFFFFFFFFFFFFFF AND MUL OR SWAP1 SSTORE POP ADDRESS PUSH1 0xB PUSH1 0x0 DUP5 DUP2 MSTORE PUSH1 0x20 ADD SWAP1 DUP2 MSTORE PUSH1 0x20 ADD PUSH1 0x0 KECCAK256 PUSH1 0x2 ADD PUSH1 0x0 PUSH2 0x100 EXP DUP2 SLOAD DUP2 PUSH20 0xFFFFFFFFFFFFFFFFFFFFFFFFFFFFFFFFFFFFFFFF MUL NOT AND SWAP1 DUP4 PUSH20 0xFFFFFFFFFFFFFFFFFFFFFFFFFFFFFFFFFFFFFFFF AND MUL OR SWAP1 SSTORE POP PUSH2 0x185D PUSH1 0x8 PUSH2 0x25E8 JUMP JUMPDEST PUSH2 0x1868 CALLER ADDRESS DUP5 PUSH2 0x1B91 JUMP JUMPDEST POP POP JUMP JUMPDEST PUSH1 0x0 PUSH1 0x5 PUSH1 0x0 DUP5 PUSH20 0xFFFFFFFFFFFFFFFFFFFFFFFFFFFFFFFFFFFFFFFF AND PUSH20 0xFFFFFFFFFFFFFFFFFFFFFFFFFFFFFFFFFFFFFFFF AND DUP2 MSTORE PUSH1 0x20 ADD SWAP1 DUP2 MSTORE PUSH1 0x20 ADD PUSH1 0x0 KECCAK256 PUSH1 0x0 DUP4 PUSH20 0xFFFFFFFFFFFFFFFFFFFFFFFFFFFFFFFFFFFFFFFF AND PUSH20 0xFFFFFFFFFFFFFFFFFFFFFFFFFFFFFFFFFFFFFFFF AND DUP2 MSTORE PUSH1 0x20 ADD SWAP1 DUP2 MSTORE PUSH1 0x20 ADD PUSH1 0x0 KECCAK256 PUSH1 0x0 SWAP1 SLOAD SWAP1 PUSH2 0x100 EXP SWAP1 DIV PUSH1 0xFF AND SWAP1 POP SWAP3 SWAP2 POP POP JUMP JUMPDEST PUSH1 0x0 PUSH32 0x80AC58CD00000000000000000000000000000000000000000000000000000000 PUSH28 0xFFFFFFFFFFFFFFFFFFFFFFFFFFFFFFFFFFFFFFFFFFFFFFFFFFFFFFFF NOT AND DUP3 PUSH28 0xFFFFFFFFFFFFFFFFFFFFFFFFFFFFFFFFFFFFFFFFFFFFFFFFFFFFFFFF NOT AND EQ DUP1 PUSH2 0x19CB JUMPI POP PUSH32 0x5B5E139F00000000000000000000000000000000000000000000000000000000 PUSH28 0xFFFFFFFFFFFFFFFFFFFFFFFFFFFFFFFFFFFFFFFFFFFFFFFFFFFFFFFF NOT AND DUP3 PUSH28 0xFFFFFFFFFFFFFFFFFFFFFFFFFFFFFFFFFFFFFFFFFFFFFFFFFFFFFFFF NOT AND EQ JUMPDEST DUP1 PUSH2 0x19DB JUMPI POP PUSH2 0x19DA DUP3 PUSH2 0x2644 JUMP JUMPDEST JUMPDEST SWAP1 POP SWAP2 SWAP1 POP JUMP JUMPDEST PUSH2 0x19EB DUP2 PUSH2 0x26AE JUMP JUMPDEST PUSH2 0x1A2A JUMPI PUSH1 0x40 MLOAD PUSH32 0x8C379A000000000000000000000000000000000000000000000000000000000 DUP2 MSTORE PUSH1 0x4 ADD PUSH2 0x1A21 SWAP1 PUSH2 0x3702 JUMP JUMPDEST PUSH1 0x40 MLOAD DUP1 SWAP2 SUB SWAP1 REVERT JUMPDEST POP JUMP JUMPDEST PUSH1 0x0 CALLER SWAP1 POP SWAP1 JUMP JUMPDEST DUP2 PUSH1 0x4 PUSH1 0x0 DUP4 DUP2 MSTORE PUSH1 0x20 ADD SWAP1 DUP2 MSTORE PUSH1 0x20 ADD PUSH1 0x0 KECCAK256 PUSH1 0x0 PUSH2 0x100 EXP DUP2 SLOAD DUP2 PUSH20 0xFFFFFFFFFFFFFFFFFFFFFFFFFFFFFFFFFFFFFFFF MUL NOT AND SWAP1 DUP4 PUSH20 0xFFFFFFFFFFFFFFFFFFFFFFFFFFFFFFFFFFFFFFFF AND MUL OR SWAP1 SSTORE POP DUP1 DUP3 PUSH20 0xFFFFFFFFFFFFFFFFFFFFFFFFFFFFFFFFFFFFFFFF AND PUSH2 0x1AA8 DUP4 PUSH2 0x100A JUMP JUMPDEST PUSH20 0xFFFFFFFFFFFFFFFFFFFFFFFFFFFFFFFFFFFFFFFF AND PUSH32 0x8C5BE1E5EBEC7D5BD14F71427D1E84F3DD0314C0F7B2291E5B200AC8C7C3B925 PUSH1 0x40 MLOAD PUSH1 0x40 MLOAD DUP1 SWAP2 SUB SWAP1 LOG4 POP POP JUMP JUMPDEST PUSH1 0x0 DUP2 PUSH1 0x0 ADD SLOAD SWAP1 POP SWAP2 SWAP1 POP JUMP JUMPDEST PUSH1 0x0 DUP1 PUSH2 0x1B08 DUP4 PUSH2 0x100A JUMP JUMPDEST SWAP1 POP DUP1 PUSH20 0xFFFFFFFFFFFFFFFFFFFFFFFFFFFFFFFFFFFFFFFF AND DUP5 PUSH20 0xFFFFFFFFFFFFFFFFFFFFFFFFFFFFFFFFFFFFFFFF AND EQ DUP1 PUSH2 0x1B4A JUMPI POP PUSH2 0x1B49 DUP2 DUP6 PUSH2 0x186C JUMP JUMPDEST JUMPDEST DUP1 PUSH2 0x1B88 JUMPI POP DUP4 PUSH20 0xFFFFFFFFFFFFFFFFFFFFFFFFFFFFFFFFFFFFFFFF AND PUSH2 0x1B70 DUP5 PUSH2 0x5E3 JUMP JUMPDEST PUSH20 0xFFFFFFFFFFFFFFFFFFFFFFFFFFFFFFFFFFFFFFFF AND EQ JUMPDEST SWAP2 POP POP SWAP3 SWAP2 POP POP JUMP JUMPDEST DUP3 PUSH20 0xFFFFFFFFFFFFFFFFFFFFFFFFFFFFFFFFFFFFFFFF AND PUSH2 0x1BB1 DUP3 PUSH2 0x100A JUMP JUMPDEST PUSH20 0xFFFFFFFFFFFFFFFFFFFFFFFFFFFFFFFFFFFFFFFF AND EQ PUSH2 0x1C07 JUMPI PUSH1 0x40 MLOAD PUSH32 0x8C379A000000000000000000000000000000000000000000000000000000000 DUP2 MSTORE PUSH1 0x4 ADD PUSH2 0x1BFE SWAP1 PUSH2 0x3ACE JUMP JUMPDEST PUSH1 0x40 MLOAD DUP1 SWAP2 SUB SWAP1 REVERT JUMPDEST PUSH1 0x0 PUSH20 0xFFFFFFFFFFFFFFFFFFFFFFFFFFFFFFFFFFFFFFFF AND DUP3 PUSH20 0xFFFFFFFFFFFFFFFFFFFFFFFFFFFFFFFFFFFFFFFF AND SUB PUSH2 0x1C76 JUMPI PUSH1 0x40 MLOAD PUSH32 0x8C379A000000000000000000000000000000000000000000000000000000000 DUP2 MSTORE PUSH1 0x4 ADD PUSH2 0x1C6D SWAP1 PUSH2 0x3B60 JUMP JUMPDEST PUSH1 0x40 MLOAD DUP1 SWAP2 SUB SWAP1 REVERT JUMPDEST PUSH2 0x1C83 DUP4 DUP4 DUP4 PUSH1 0x1 PUSH2 0x26EF JUMP JUMPDEST DUP3 PUSH20 0xFFFFFFFFFFFFFFFFFFFFFFFFFFFFFFFFFFFFFFFF AND PUSH2 0x1CA3 DUP3 PUSH2 0x100A JUMP JUMPDEST PUSH20 0xFFFFFFFFFFFFFFFFFFFFFFFFFFFFFFFFFFFFFFFF AND EQ PUSH2 0x1CF9 JUMPI PUSH1 0x40 MLOAD PUSH32 0x8C379A000000000000000000000000000000000000000000000000000000000 DUP2 MSTORE PUSH1 0x4 ADD PUSH2 0x1CF0 SWAP1 PUSH2 0x3ACE JUMP JUMPDEST PUSH1 0x40 MLOAD DUP1 SWAP2 SUB SWAP1 REVERT JUMPDEST PUSH1 0x4 PUSH1 0x0 DUP3 DUP2 MSTORE PUSH1 0x20 ADD SWAP1 DUP2 MSTORE PUSH1 0x20 ADD PUSH1 0x0 KECCAK256 PUSH1 0x0 PUSH2 0x100 EXP DUP2 SLOAD SWAP1 PUSH20 0xFFFFFFFFFFFFFFFFFFFFFFFFFFFFFFFFFFFFFFFF MUL NOT AND SWAP1 SSTORE PUSH1 0x1 PUSH1 0x3 PUSH1 0x0 DUP6 PUSH20 0xFFFFFFFFFFFFFFFFFFFFFFFFFFFFFFFFFFFFFFFF AND PUSH20 0xFFFFFFFFFFFFFFFFFFFFFFFFFFFFFFFFFFFFFFFF AND DUP2 MSTORE PUSH1 0x20 ADD SWAP1 DUP2 MSTORE PUSH1 0x20 ADD PUSH1 0x0 KECCAK256 PUSH1 0x0 DUP3 DUP3 SLOAD SUB SWAP3 POP POP DUP2 SWAP1 SSTORE POP PUSH1 0x1 PUSH1 0x3 PUSH1 0x0 DUP5 PUSH20 0xFFFFFFFFFFFFFFFFFFFFFFFFFFFFFFFFFFFFFFFF AND PUSH20 0xFFFFFFFFFFFFFFFFFFFFFFFFFFFFFFFFFFFFFFFF AND DUP2 MSTORE PUSH1 0x20 ADD SWAP1 DUP2 MSTORE PUSH1 0x20 ADD PUSH1 0x0 KECCAK256 PUSH1 0x0 DUP3 DUP3 SLOAD ADD SWAP3 POP POP DUP2 SWAP1 SSTORE POP DUP2 PUSH1 0x2 PUSH1 0x0 DUP4 DUP2 MSTORE PUSH1 0x20 ADD SWAP1 DUP2 MSTORE PUSH1 0x20 ADD PUSH1 0x0 KECCAK256 PUSH1 0x0 PUSH2 0x100 EXP DUP2 SLOAD DUP2 PUSH20 0xFFFFFFFFFFFFFFFFFFFFFFFFFFFFFFFFFFFFFFFF MUL NOT AND SWAP1 DUP4 PUSH20 0xFFFFFFFFFFFFFFFFFFFFFFFFFFFFFFFFFFFFFFFF AND MUL OR SWAP1 SSTORE POP DUP1 DUP3 PUSH20 0xFFFFFFFFFFFFFFFFFFFFFFFFFFFFFFFFFFFFFFFF AND DUP5 PUSH20 0xFFFFFFFFFFFFFFFFFFFFFFFFFFFFFFFFFFFFFFFF AND PUSH32 0xDDF252AD1BE2C89B69C2B068FC378DAA952BA7F163C4A11628F55A4DF523B3EF PUSH1 0x40 MLOAD PUSH1 0x40 MLOAD DUP1 SWAP2 SUB SWAP1 LOG4 PUSH2 0x1E85 DUP4 DUP4 DUP4 PUSH1 0x1 PUSH2 0x26F5 JUMP JUMPDEST POP POP POP JUMP JUMPDEST PUSH1 0x0 PUSH1 0x2 PUSH1 0x0 DUP4 DUP2 MSTORE PUSH1 0x20 ADD SWAP1 DUP2 MSTORE PUSH1 0x20 ADD PUSH1 0x0 KECCAK256 PUSH1 0x0 SWAP1 SLOAD SWAP1 PUSH2 0x100 EXP SWAP1 DIV PUSH20 0xFFFFFFFFFFFFFFFFFFFFFFFFFFFFFFFFFFFFFFFF AND SWAP1 POP SWAP2 SWAP1 POP JUMP JUMPDEST PUSH1 0x1 DUP2 PUSH1 0x0 ADD PUSH1 0x0 DUP3 DUP3 SLOAD ADD SWAP3 POP POP DUP2 SWAP1 SSTORE POP POP JUMP JUMPDEST PUSH1 0x0 PUSH20 0xFFFFFFFFFFFFFFFFFFFFFFFFFFFFFFFFFFFFFFFF AND DUP3 PUSH20 0xFFFFFFFFFFFFFFFFFFFFFFFFFFFFFFFFFFFFFFFF AND SUB PUSH2 0x1F4C JUMPI PUSH1 0x40 MLOAD PUSH32 0x8C379A000000000000000000000000000000000000000000000000000000000 DUP2 MSTORE PUSH1 0x4 ADD PUSH2 0x1F43 SWAP1 PUSH2 0x3BCC JUMP JUMPDEST PUSH1 0x40 MLOAD DUP1 SWAP2 SUB SWAP1 REVERT JUMPDEST PUSH2 0x1F55 DUP2 PUSH2 0x26AE JUMP JUMPDEST ISZERO PUSH2 0x1F95 JUMPI PUSH1 0x40 MLOAD PUSH32 0x8C379A000000000000000000000000000000000000000000000000000000000 DUP2 MSTORE PUSH1 0x4 ADD PUSH2 0x1F8C SWAP1 PUSH2 0x3C38 JUMP JUMPDEST PUSH1 0x40 MLOAD DUP1 SWAP2 SUB SWAP1 REVERT JUMPDEST PUSH2 0x1FA3 PUSH1 0x0 DUP4 DUP4 PUSH1 0x1 PUSH2 0x26EF JUMP JUMPDEST PUSH2 0x1FAC DUP2 PUSH2 0x26AE JUMP JUMPDEST ISZERO PUSH2 0x1FEC JUMPI PUSH1 0x40 MLOAD PUSH32 0x8C379A000000000000000000000000000000000000000000000000000000000 DUP2 MSTORE PUSH1 0x4 ADD PUSH2 0x1FE3 SWAP1 PUSH2 0x3C38 JUMP JUMPDEST PUSH1 0x40 MLOAD DUP1 SWAP2 SUB SWAP1 REVERT JUMPDEST PUSH1 0x1 PUSH1 0x3 PUSH1 0x0 DUP5 PUSH20 0xFFFFFFFFFFFFFFFFFFFFFFFFFFFFFFFFFFFFFFFF AND PUSH20 0xFFFFFFFFFFFFFFFFFFFFFFFFFFFFFFFFFFFFFFFF AND DUP2 MSTORE PUSH1 0x20 ADD SWAP1 DUP2 MSTORE PUSH1 0x20 ADD PUSH1 0x0 KECCAK256 PUSH1 0x0 DUP3 DUP3 SLOAD ADD SWAP3 POP POP DUP2 SWAP1 SSTORE POP DUP2 PUSH1 0x2 PUSH1 0x0 DUP4 DUP2 MSTORE PUSH1 0x20 ADD SWAP1 DUP2 MSTORE PUSH1 0x20 ADD PUSH1 0x0 KECCAK256 PUSH1 0x0 PUSH2 0x100 EXP DUP2 SLOAD DUP2 PUSH20 0xFFFFFFFFFFFFFFFFFFFFFFFFFFFFFFFFFFFFFFFF MUL NOT AND SWAP1 DUP4 PUSH20 0xFFFFFFFFFFFFFFFFFFFFFFFFFFFFFFFFFFFFFFFF AND MUL OR SWAP1 SSTORE POP DUP1 DUP3 PUSH20 0xFFFFFFFFFFFFFFFFFFFFFFFFFFFFFFFFFFFFFFFF AND PUSH1 0x0 PUSH20 0xFFFFFFFFFFFFFFFFFFFFFFFFFFFFFFFFFFFFFFFF AND PUSH32 0xDDF252AD1BE2C89B69C2B068FC378DAA952BA7F163C4A11628F55A4DF523B3EF PUSH1 0x40 MLOAD PUSH1 0x40 MLOAD DUP1 SWAP2 SUB SWAP1 LOG4 PUSH2 0x20F6 PUSH1 0x0 DUP4 DUP4 PUSH1 0x1 PUSH2 0x26F5 JUMP JUMPDEST POP POP JUMP JUMPDEST PUSH2 0x2103 DUP3 PUSH2 0x26AE JUMP JUMPDEST PUSH2 0x2142 JUMPI PUSH1 0x40 MLOAD PUSH32 0x8C379A000000000000000000000000000000000000000000000000000000000 DUP2 MSTORE PUSH1 0x4 ADD PUSH2 0x2139 SWAP1 PUSH2 0x3CCA JUMP JUMPDEST PUSH1 0x40 MLOAD DUP1 SWAP2 SUB SWAP1 REVERT JUMPDEST DUP1 PUSH1 0x6 PUSH1 0x0 DUP5 DUP2 MSTORE PUSH1 0x20 ADD SWAP1 DUP2 MSTORE PUSH1 0x20 ADD PUSH1 0x0 KECCAK256 SWAP1 DUP2 PUSH2 0x2162 SWAP2 SWAP1 PUSH2 0x3E96 JUMP JUMPDEST POP PUSH32 0xF8E1A15ABA9398E019F0B49DF1A4FDE98EE17AE345CB5F6B5E2C27F5033E8CE7 DUP3 PUSH1 0x40 MLOAD PUSH2 0x2192 SWAP2 SWAP1 PUSH2 0x2F56 JUMP JUMPDEST PUSH1 0x40 MLOAD DUP1 SWAP2 SUB SWAP1 LOG1 POP POP JUMP JUMPDEST PUSH1 0x0 DUP2 GT PUSH2 0x21E1 JUMPI PUSH1 0x40 MLOAD PUSH32 0x8C379A000000000000000000000000000000000000000000000000000000000 DUP2 MSTORE PUSH1 0x4 ADD PUSH2 0x21D8 SWAP1 PUSH2 0x3FB4 JUMP JUMPDEST PUSH1 0x40 MLOAD DUP1 SWAP2 SUB SWAP1 REVERT JUMPDEST PUSH1 0x9 SLOAD CALLVALUE EQ PUSH2 0x2225 JUMPI PUSH1 0x40 MLOAD PUSH32 0x8C379A000000000000000000000000000000000000000000000000000000000 DUP2 MSTORE PUSH1 0x4 ADD PUSH2 0x221C SWAP1 PUSH2 0x3A3C JUMP JUMPDEST PUSH1 0x40 MLOAD DUP1 SWAP2 SUB SWAP1 REVERT JUMPDEST PUSH1 0x40 MLOAD DUP1 PUSH1 0xA0 ADD PUSH1 0x40 MSTORE DUP1 DUP4 DUP2 MSTORE PUSH1 0x20 ADD CALLER PUSH20 0xFFFFFFFFFFFFFFFFFFFFFFFFFFFFFFFFFFFFFFFF AND DUP2 MSTORE PUSH1 0x20 ADD ADDRESS PUSH20 0xFFFFFFFFFFFFFFFFFFFFFFFFFFFFFFFFFFFFFFFF AND DUP2 MSTORE PUSH1 0x20 ADD DUP3 DUP2 MSTORE PUSH1 0x20 ADD PUSH1 0x0 ISZERO ISZERO DUP2 MSTORE POP PUSH1 0xB PUSH1 0x0 DUP5 DUP2 MSTORE PUSH1 0x20 ADD SWAP1 DUP2 MSTORE PUSH1 0x20 ADD PUSH1 0x0 KECCAK256 PUSH1 0x0 DUP3 ADD MLOAD DUP2 PUSH1 0x0 ADD SSTORE PUSH1 0x20 DUP3 ADD MLOAD DUP2 PUSH1 0x1 ADD PUSH1 0x0 PUSH2 0x100 EXP DUP2 SLOAD DUP2 PUSH20 0xFFFFFFFFFFFFFFFFFFFFFFFFFFFFFFFFFFFFFFFF MUL NOT AND SWAP1 DUP4 PUSH20 0xFFFFFFFFFFFFFFFFFFFFFFFFFFFFFFFFFFFFFFFF AND MUL OR SWAP1 SSTORE POP PUSH1 0x40 DUP3 ADD MLOAD DUP2 PUSH1 0x2 ADD PUSH1 0x0 PUSH2 0x100 EXP DUP2 SLOAD DUP2 PUSH20 0xFFFFFFFFFFFFFFFFFFFFFFFFFFFFFFFFFFFFFFFF MUL NOT AND SWAP1 DUP4 PUSH20 0xFFFFFFFFFFFFFFFFFFFFFFFFFFFFFFFFFFFFFFFF AND MUL OR SWAP1 SSTORE POP PUSH1 0x60 DUP3 ADD MLOAD DUP2 PUSH1 0x3 ADD SSTORE PUSH1 0x80 DUP3 ADD MLOAD DUP2 PUSH1 0x4 ADD PUSH1 0x0 PUSH2 0x100 EXP DUP2 SLOAD DUP2 PUSH1 0xFF MUL NOT AND SWAP1 DUP4 ISZERO ISZERO MUL OR SWAP1 SSTORE POP SWAP1 POP POP PUSH2 0x235E CALLER ADDRESS DUP5 PUSH2 0x1B91 JUMP JUMPDEST DUP2 PUSH32 0xB640004F1D14576D0C209E240CAD0410E0D8C0C33A09375861FBADAE2588A98D CALLER ADDRESS DUP5 PUSH1 0x0 PUSH1 0x40 MLOAD PUSH2 0x2395 SWAP5 SWAP4 SWAP3 SWAP2 SWAP1 PUSH2 0x3FD4 JUMP JUMPDEST PUSH1 0x40 MLOAD DUP1 SWAP2 SUB SWAP1 LOG2 POP POP JUMP JUMPDEST DUP2 PUSH20 0xFFFFFFFFFFFFFFFFFFFFFFFFFFFFFFFFFFFFFFFF AND DUP4 PUSH20 0xFFFFFFFFFFFFFFFFFFFFFFFFFFFFFFFFFFFFFFFF AND SUB PUSH2 0x240F JUMPI PUSH1 0x40 MLOAD PUSH32 0x8C379A000000000000000000000000000000000000000000000000000000000 DUP2 MSTORE PUSH1 0x4 ADD PUSH2 0x2406 SWAP1 PUSH2 0x4065 JUMP JUMPDEST PUSH1 0x40 MLOAD DUP1 SWAP2 SUB SWAP1 REVERT JUMPDEST DUP1 PUSH1 0x5 PUSH1 0x0 DUP6 PUSH20 0xFFFFFFFFFFFFFFFFFFFFFFFFFFFFFFFFFFFFFFFF AND PUSH20 0xFFFFFFFFFFFFFFFFFFFFFFFFFFFFFFFFFFFFFFFF AND DUP2 MSTORE PUSH1 0x20 ADD SWAP1 DUP2 MSTORE PUSH1 0x20 ADD PUSH1 0x0 KECCAK256 PUSH1 0x0 DUP5 PUSH20 0xFFFFFFFFFFFFFFFFFFFFFFFFFFFFFFFFFFFFFFFF AND PUSH20 0xFFFFFFFFFFFFFFFFFFFFFFFFFFFFFFFFFFFFFFFF AND DUP2 MSTORE PUSH1 0x20 ADD SWAP1 DUP2 MSTORE PUSH1 0x20 ADD PUSH1 0x0 KECCAK256 PUSH1 0x0 PUSH2 0x100 EXP DUP2 SLOAD DUP2 PUSH1 0xFF MUL NOT AND SWAP1 DUP4 ISZERO ISZERO MUL OR SWAP1 SSTORE POP DUP2 PUSH20 0xFFFFFFFFFFFFFFFFFFFFFFFFFFFFFFFFFFFFFFFF AND DUP4 PUSH20 0xFFFFFFFFFFFFFFFFFFFFFFFFFFFFFFFFFFFFFFFF AND PUSH32 0x17307EAB39AB6107E8899845AD3D59BD9653F200F220920489CA2B5937696C31 DUP4 PUSH1 0x40 MLOAD PUSH2 0x2500 SWAP2 SWAP1 PUSH2 0x2BD7 JUMP JUMPDEST PUSH1 0x40 MLOAD DUP1 SWAP2 SUB SWAP1 LOG3 POP POP POP JUMP JUMPDEST PUSH2 0x2518 DUP5 DUP5 DUP5 PUSH2 0x1B91 JUMP JUMPDEST PUSH2 0x2524 DUP5 DUP5 DUP5 DUP5 PUSH2 0x26FB JUMP JUMPDEST PUSH2 0x2563 JUMPI PUSH1 0x40 MLOAD PUSH32 0x8C379A000000000000000000000000000000000000000000000000000000000 DUP2 MSTORE PUSH1 0x4 ADD PUSH2 0x255A SWAP1 PUSH2 0x40F7 JUMP JUMPDEST PUSH1 0x40 MLOAD DUP1 SWAP2 SUB SWAP1 REVERT JUMPDEST POP POP POP POP JUMP JUMPDEST PUSH1 0x60 PUSH1 0x40 MLOAD DUP1 PUSH1 0x20 ADD PUSH1 0x40 MSTORE DUP1 PUSH1 0x0 DUP2 MSTORE POP SWAP1 POP SWAP1 JUMP JUMPDEST PUSH1 0x60 PUSH2 0x258B DUP3 PUSH2 0x19E2 JUMP JUMPDEST PUSH1 0x0 PUSH2 0x2595 PUSH2 0x2569 JUMP JUMPDEST SWAP1 POP PUSH1 0x0 DUP2 MLOAD GT PUSH2 0x25B5 JUMPI PUSH1 0x40 MLOAD DUP1 PUSH1 0x20 ADD PUSH1 0x40 MSTORE DUP1 PUSH1 0x0 DUP2 MSTORE POP PUSH2 0x25E0 JUMP JUMPDEST DUP1 PUSH2 0x25BF DUP5 PUSH2 0x2882 JUMP JUMPDEST PUSH1 0x40 MLOAD PUSH1 0x20 ADD PUSH2 0x25D0 SWAP3 SWAP2 SWAP1 PUSH2 0x3914 JUMP JUMPDEST PUSH1 0x40 MLOAD PUSH1 0x20 DUP2 DUP4 SUB SUB DUP2 MSTORE SWAP1 PUSH1 0x40 MSTORE JUMPDEST SWAP2 POP POP SWAP2 SWAP1 POP JUMP JUMPDEST PUSH1 0x0 DUP2 PUSH1 0x0 ADD SLOAD SWAP1 POP PUSH1 0x0 DUP2 GT PUSH2 0x2634 JUMPI PUSH1 0x40 MLOAD PUSH32 0x8C379A000000000000000000000000000000000000000000000000000000000 DUP2 MSTORE PUSH1 0x4 ADD PUSH2 0x262B SWAP1 PUSH2 0x4163 JUMP JUMPDEST PUSH1 0x40 MLOAD DUP1 SWAP2 SUB SWAP1 REVERT JUMPDEST PUSH1 0x1 DUP2 SUB DUP3 PUSH1 0x0 ADD DUP2 SWAP1 SSTORE POP POP POP JUMP JUMPDEST PUSH1 0x0 PUSH32 0x1FFC9A700000000000000000000000000000000000000000000000000000000 PUSH28 0xFFFFFFFFFFFFFFFFFFFFFFFFFFFFFFFFFFFFFFFFFFFFFFFFFFFFFFFF NOT AND DUP3 PUSH28 0xFFFFFFFFFFFFFFFFFFFFFFFFFFFFFFFFFFFFFFFFFFFFFFFFFFFFFFFF NOT AND EQ SWAP1 POP SWAP2 SWAP1 POP JUMP JUMPDEST PUSH1 0x0 DUP1 PUSH20 0xFFFFFFFFFFFFFFFFFFFFFFFFFFFFFFFFFFFFFFFF AND PUSH2 0x26D0 DUP4 PUSH2 0x1E8A JUMP JUMPDEST PUSH20 0xFFFFFFFFFFFFFFFFFFFFFFFFFFFFFFFFFFFFFFFF AND EQ ISZERO SWAP1 POP SWAP2 SWAP1 POP JUMP JUMPDEST POP POP POP POP JUMP JUMPDEST POP POP POP POP JUMP JUMPDEST PUSH1 0x0 PUSH2 0x271C DUP5 PUSH20 0xFFFFFFFFFFFFFFFFFFFFFFFFFFFFFFFFFFFFFFFF AND PUSH2 0x2950 JUMP JUMPDEST ISZERO PUSH2 0x2875 JUMPI DUP4 PUSH20 0xFFFFFFFFFFFFFFFFFFFFFFFFFFFFFFFFFFFFFFFF AND PUSH4 0x150B7A02 PUSH2 0x2745 PUSH2 0x1A2D JUMP JUMPDEST DUP8 DUP7 DUP7 PUSH1 0x40 MLOAD DUP6 PUSH4 0xFFFFFFFF AND PUSH1 0xE0 SHL DUP2 MSTORE PUSH1 0x4 ADD PUSH2 0x2767 SWAP5 SWAP4 SWAP3 SWAP2 SWAP1 PUSH2 0x41D8 JUMP JUMPDEST PUSH1 0x20 PUSH1 0x40 MLOAD DUP1 DUP4 SUB DUP2 PUSH1 0x0 DUP8 GAS CALL SWAP3 POP POP POP DUP1 ISZERO PUSH2 0x27A3 JUMPI POP PUSH1 0x40 MLOAD RETURNDATASIZE PUSH1 0x1F NOT PUSH1 0x1F DUP3 ADD AND DUP3 ADD DUP1 PUSH1 0x40 MSTORE POP DUP2 ADD SWAP1 PUSH2 0x27A0 SWAP2 SWAP1 PUSH2 0x4239 JUMP JUMPDEST PUSH1 0x1 JUMPDEST PUSH2 0x2825 JUMPI RETURNDATASIZE DUP1 PUSH1 0x0 DUP2 EQ PUSH2 0x27D3 JUMPI PUSH1 0x40 MLOAD SWAP2 POP PUSH1 0x1F NOT PUSH1 0x3F RETURNDATASIZE ADD AND DUP3 ADD PUSH1 0x40 MSTORE RETURNDATASIZE DUP3 MSTORE RETURNDATASIZE PUSH1 0x0 PUSH1 0x20 DUP5 ADD RETURNDATACOPY PUSH2 0x27D8 JUMP JUMPDEST PUSH1 0x60 SWAP2 POP JUMPDEST POP PUSH1 0x0 DUP2 MLOAD SUB PUSH2 0x281D JUMPI PUSH1 0x40 MLOAD PUSH32 0x8C379A000000000000000000000000000000000000000000000000000000000 DUP2 MSTORE PUSH1 0x4 ADD PUSH2 0x2814 SWAP1 PUSH2 0x40F7 JUMP JUMPDEST PUSH1 0x40 MLOAD DUP1 SWAP2 SUB SWAP1 REVERT JUMPDEST DUP1 MLOAD DUP2 PUSH1 0x20 ADD REVERT JUMPDEST PUSH4 0x150B7A02 PUSH1 0xE0 SHL PUSH28 0xFFFFFFFFFFFFFFFFFFFFFFFFFFFFFFFFFFFFFFFFFFFFFFFFFFFFFFFF NOT AND DUP2 PUSH28 0xFFFFFFFFFFFFFFFFFFFFFFFFFFFFFFFFFFFFFFFFFFFFFFFFFFFFFFFF NOT AND EQ SWAP2 POP POP PUSH2 0x287A JUMP JUMPDEST PUSH1 0x1 SWAP1 POP JUMPDEST SWAP5 SWAP4 POP POP POP POP JUMP JUMPDEST PUSH1 0x60 PUSH1 0x0 PUSH1 0x1 PUSH2 0x2891 DUP5 PUSH2 0x2973 JUMP JUMPDEST ADD SWAP1 POP PUSH1 0x0 DUP2 PUSH8 0xFFFFFFFFFFFFFFFF DUP2 GT ISZERO PUSH2 0x28B0 JUMPI PUSH2 0x28AF PUSH2 0x2FFB JUMP JUMPDEST JUMPDEST PUSH1 0x40 MLOAD SWAP1 DUP1 DUP3 MSTORE DUP1 PUSH1 0x1F ADD PUSH1 0x1F NOT AND PUSH1 0x20 ADD DUP3 ADD PUSH1 0x40 MSTORE DUP1 ISZERO PUSH2 0x28E2 JUMPI DUP2 PUSH1 0x20 ADD PUSH1 0x1 DUP3 MUL DUP1 CALLDATASIZE DUP4 CALLDATACOPY DUP1 DUP3 ADD SWAP2 POP POP SWAP1 POP JUMPDEST POP SWAP1 POP PUSH1 0x0 DUP3 PUSH1 0x20 ADD DUP3 ADD SWAP1 POP JUMPDEST PUSH1 0x1 ISZERO PUSH2 0x2945 JUMPI DUP1 DUP1 PUSH1 0x1 SWAP1 SUB SWAP2 POP POP PUSH32 0x3031323334353637383961626364656600000000000000000000000000000000 PUSH1 0xA DUP7 MOD BYTE DUP2 MSTORE8 PUSH1 0xA DUP6 DUP2 PUSH2 0x2939 JUMPI PUSH2 0x2938 PUSH2 0x4266 JUMP JUMPDEST JUMPDEST DIV SWAP5 POP PUSH1 0x0 DUP6 SUB PUSH2 0x28F0 JUMPI JUMPDEST DUP2 SWAP4 POP POP POP POP SWAP2 SWAP1 POP JUMP JUMPDEST PUSH1 0x0 DUP1 DUP3 PUSH20 0xFFFFFFFFFFFFFFFFFFFFFFFFFFFFFFFFFFFFFFFF AND EXTCODESIZE GT SWAP1 POP SWAP2 SWAP1 POP JUMP JUMPDEST PUSH1 0x0 DUP1 PUSH1 0x0 SWAP1 POP PUSH27 0x184F03E93FF9F4DAA797ED6E38ED64BF6A1F010000000000000000 DUP4 LT PUSH2 0x29D1 JUMPI PUSH27 0x184F03E93FF9F4DAA797ED6E38ED64BF6A1F010000000000000000 DUP4 DUP2 PUSH2 0x29C7 JUMPI PUSH2 0x29C6 PUSH2 0x4266 JUMP JUMPDEST JUMPDEST DIV SWAP3 POP PUSH1 0x40 DUP2 ADD SWAP1 POP JUMPDEST PUSH14 0x4EE2D6D415B85ACEF8100000000 DUP4 LT PUSH2 0x2A0E JUMPI PUSH14 0x4EE2D6D415B85ACEF8100000000 DUP4 DUP2 PUSH2 0x2A04 JUMPI PUSH2 0x2A03 PUSH2 0x4266 JUMP JUMPDEST JUMPDEST DIV SWAP3 POP PUSH1 0x20 DUP2 ADD SWAP1 POP JUMPDEST PUSH7 0x2386F26FC10000 DUP4 LT PUSH2 0x2A3D JUMPI PUSH7 0x2386F26FC10000 DUP4 DUP2 PUSH2 0x2A33 JUMPI PUSH2 0x2A32 PUSH2 0x4266 JUMP JUMPDEST JUMPDEST DIV SWAP3 POP PUSH1 0x10 DUP2 ADD SWAP1 POP JUMPDEST PUSH4 0x5F5E100 DUP4 LT PUSH2 0x2A66 JUMPI PUSH4 0x5F5E100 DUP4 DUP2 PUSH2 0x2A5C JUMPI PUSH2 0x2A5B PUSH2 0x4266 JUMP JUMPDEST JUMPDEST DIV SWAP3 POP PUSH1 0x8 DUP2 ADD SWAP1 POP JUMPDEST PUSH2 0x2710 DUP4 LT PUSH2 0x2A8B JUMPI PUSH2 0x2710 DUP4 DUP2 PUSH2 0x2A81 JUMPI PUSH2 0x2A80 PUSH2 0x4266 JUMP JUMPDEST JUMPDEST DIV SWAP3 POP PUSH1 0x4 DUP2 ADD SWAP1 POP JUMPDEST PUSH1 0x64 DUP4 LT PUSH2 0x2AAE JUMPI PUSH1 0x64 DUP4 DUP2 PUSH2 0x2AA4 JUMPI PUSH2 0x2AA3 PUSH2 0x4266 JUMP JUMPDEST JUMPDEST DIV SWAP3 POP PUSH1 0x2 DUP2 ADD SWAP1 POP JUMPDEST PUSH1 0xA DUP4 LT PUSH2 0x2ABD JUMPI PUSH1 0x1 DUP2 ADD SWAP1 POP JUMPDEST DUP1 SWAP2 POP POP SWAP2 SWAP1 POP JUMP JUMPDEST PUSH1 0x40 MLOAD DUP1 PUSH1 0xA0 ADD PUSH1 0x40 MSTORE DUP1 PUSH1 0x0 DUP2 MSTORE PUSH1 0x20 ADD PUSH1 0x0 PUSH20 0xFFFFFFFFFFFFFFFFFFFFFFFFFFFFFFFFFFFFFFFF AND DUP2 MSTORE PUSH1 0x20 ADD PUSH1 0x0 PUSH20 0xFFFFFFFFFFFFFFFFFFFFFFFFFFFFFFFFFFFFFFFF AND DUP2 MSTORE PUSH1 0x20 ADD PUSH1 0x0 DUP2 MSTORE PUSH1 0x20 ADD PUSH1 0x0 ISZERO ISZERO DUP2 MSTORE POP SWAP1 JUMP JUMPDEST PUSH1 0x0 PUSH1 0x40 MLOAD SWAP1 POP SWAP1 JUMP JUMPDEST PUSH1 0x0 DUP1 REVERT JUMPDEST PUSH1 0x0 DUP1 REVERT JUMPDEST PUSH1 0x0 PUSH32 0xFFFFFFFF00000000000000000000000000000000000000000000000000000000 DUP3 AND SWAP1 POP SWAP2 SWAP1 POP JUMP JUMPDEST PUSH2 0x2B6C DUP2 PUSH2 0x2B37 JUMP JUMPDEST DUP2 EQ PUSH2 0x2B77 JUMPI PUSH1 0x0 DUP1 REVERT JUMPDEST POP JUMP JUMPDEST PUSH1 0x0 DUP2 CALLDATALOAD SWAP1 POP PUSH2 0x2B89 DUP2 PUSH2 0x2B63 JUMP JUMPDEST SWAP3 SWAP2 POP POP JUMP JUMPDEST PUSH1 0x0 PUSH1 0x20 DUP3 DUP5 SUB SLT ISZERO PUSH2 0x2BA5 JUMPI PUSH2 0x2BA4 PUSH2 0x2B2D JUMP JUMPDEST JUMPDEST PUSH1 0x0 PUSH2 0x2BB3 DUP5 DUP3 DUP6 ADD PUSH2 0x2B7A JUMP JUMPDEST SWAP2 POP POP SWAP3 SWAP2 POP POP JUMP JUMPDEST PUSH1 0x0 DUP2 ISZERO ISZERO SWAP1 POP SWAP2 SWAP1 POP JUMP JUMPDEST PUSH2 0x2BD1 DUP2 PUSH2 0x2BBC JUMP JUMPDEST DUP3 MSTORE POP POP JUMP JUMPDEST PUSH1 0x0 PUSH1 0x20 DUP3 ADD SWAP1 POP PUSH2 0x2BEC PUSH1 0x0 DUP4 ADD DUP5 PUSH2 0x2BC8 JUMP JUMPDEST SWAP3 SWAP2 POP POP JUMP JUMPDEST PUSH1 0x0 DUP2 MLOAD SWAP1 POP SWAP2 SWAP1 POP JUMP JUMPDEST PUSH1 0x0 DUP3 DUP3 MSTORE PUSH1 0x20 DUP3 ADD SWAP1 POP SWAP3 SWAP2 POP POP JUMP JUMPDEST PUSH1 0x0 JUMPDEST DUP4 DUP2 LT ISZERO PUSH2 0x2C2C JUMPI DUP1 DUP3 ADD MLOAD DUP2 DUP5 ADD MSTORE PUSH1 0x20 DUP2 ADD SWAP1 POP PUSH2 0x2C11 JUMP JUMPDEST PUSH1 0x0 DUP5 DUP5 ADD MSTORE POP POP POP POP JUMP JUMPDEST PUSH1 0x0 PUSH1 0x1F NOT PUSH1 0x1F DUP4 ADD AND SWAP1 POP SWAP2 SWAP1 POP JUMP JUMPDEST PUSH1 0x0 PUSH2 0x2C54 DUP3 PUSH2 0x2BF2 JUMP JUMPDEST PUSH2 0x2C5E DUP2 DUP6 PUSH2 0x2BFD JUMP JUMPDEST SWAP4 POP PUSH2 0x2C6E DUP2 DUP6 PUSH1 0x20 DUP7 ADD PUSH2 0x2C0E JUMP JUMPDEST PUSH2 0x2C77 DUP2 PUSH2 0x2C38 JUMP JUMPDEST DUP5 ADD SWAP2 POP POP SWAP3 SWAP2 POP POP JUMP JUMPDEST PUSH1 0x0 PUSH1 0x20 DUP3 ADD SWAP1 POP DUP2 DUP2 SUB PUSH1 0x0 DUP4 ADD MSTORE PUSH2 0x2C9C DUP2 DUP5 PUSH2 0x2C49 JUMP JUMPDEST SWAP1 POP SWAP3 SWAP2 POP POP JUMP JUMPDEST PUSH1 0x0 DUP2 SWAP1 POP SWAP2 SWAP1 POP JUMP JUMPDEST PUSH2 0x2CB7 DUP2 PUSH2 0x2CA4 JUMP JUMPDEST DUP2 EQ PUSH2 0x2CC2 JUMPI PUSH1 0x0 DUP1 REVERT JUMPDEST POP JUMP JUMPDEST PUSH1 0x0 DUP2 CALLDATALOAD SWAP1 POP PUSH2 0x2CD4 DUP2 PUSH2 0x2CAE JUMP JUMPDEST SWAP3 SWAP2 POP POP JUMP JUMPDEST PUSH1 0x0 PUSH1 0x20 DUP3 DUP5 SUB SLT ISZERO PUSH2 0x2CF0 JUMPI PUSH2 0x2CEF PUSH2 0x2B2D JUMP JUMPDEST JUMPDEST PUSH1 0x0 PUSH2 0x2CFE DUP5 DUP3 DUP6 ADD PUSH2 0x2CC5 JUMP JUMPDEST SWAP2 POP POP SWAP3 SWAP2 POP POP JUMP JUMPDEST PUSH1 0x0 PUSH20 0xFFFFFFFFFFFFFFFFFFFFFFFFFFFFFFFFFFFFFFFF DUP3 AND SWAP1 POP SWAP2 SWAP1 POP JUMP JUMPDEST PUSH1 0x0 PUSH2 0x2D32 DUP3 PUSH2 0x2D07 JUMP JUMPDEST SWAP1 POP SWAP2 SWAP1 POP JUMP JUMPDEST PUSH2 0x2D42 DUP2 PUSH2 0x2D27 JUMP JUMPDEST DUP3 MSTORE POP POP JUMP JUMPDEST PUSH1 0x0 PUSH1 0x20 DUP3 ADD SWAP1 POP PUSH2 0x2D5D PUSH1 0x0 DUP4 ADD DUP5 PUSH2 0x2D39 JUMP JUMPDEST SWAP3 SWAP2 POP POP JUMP JUMPDEST PUSH2 0x2D6C DUP2 PUSH2 0x2D27 JUMP JUMPDEST DUP2 EQ PUSH2 0x2D77 JUMPI PUSH1 0x0 DUP1 REVERT JUMPDEST POP JUMP JUMPDEST PUSH1 0x0 DUP2 CALLDATALOAD SWAP1 POP PUSH2 0x2D89 DUP2 PUSH2 0x2D63 JUMP JUMPDEST SWAP3 SWAP2 POP POP JUMP JUMPDEST PUSH1 0x0 DUP1 PUSH1 0x40 DUP4 DUP6 SUB SLT ISZERO PUSH2 0x2DA6 JUMPI PUSH2 0x2DA5 PUSH2 0x2B2D JUMP JUMPDEST JUMPDEST PUSH1 0x0 PUSH2 0x2DB4 DUP6 DUP3 DUP7 ADD PUSH2 0x2D7A JUMP JUMPDEST SWAP3 POP POP PUSH1 0x20 PUSH2 0x2DC5 DUP6 DUP3 DUP7 ADD PUSH2 0x2CC5 JUMP JUMPDEST SWAP2 POP POP SWAP3 POP SWAP3 SWAP1 POP JUMP JUMPDEST PUSH1 0x0 DUP2 MLOAD SWAP1 POP SWAP2 SWAP1 POP JUMP JUMPDEST PUSH1 0x0 DUP3 DUP3 MSTORE PUSH1 0x20 DUP3 ADD SWAP1 POP SWAP3 SWAP2 POP POP JUMP JUMPDEST PUSH1 0x0 DUP2 SWAP1 POP PUSH1 0x20 DUP3 ADD SWAP1 POP SWAP2 SWAP1 POP JUMP JUMPDEST PUSH2 0x2E04 DUP2 PUSH2 0x2CA4 JUMP JUMPDEST DUP3 MSTORE POP POP JUMP JUMPDEST PUSH1 0x0 PUSH2 0x2E15 DUP3 PUSH2 0x2D07 JUMP JUMPDEST SWAP1 POP SWAP2 SWAP1 POP JUMP JUMPDEST PUSH2 0x2E25 DUP2 PUSH2 0x2E0A JUMP JUMPDEST DUP3 MSTORE POP POP JUMP JUMPDEST PUSH2 0x2E34 DUP2 PUSH2 0x2BBC JUMP JUMPDEST DUP3 MSTORE POP POP JUMP JUMPDEST PUSH1 0xA0 DUP3 ADD PUSH1 0x0 DUP3 ADD MLOAD PUSH2 0x2E50 PUSH1 0x0 DUP6 ADD DUP3 PUSH2 0x2DFB JUMP JUMPDEST POP PUSH1 0x20 DUP3 ADD MLOAD PUSH2 0x2E63 PUSH1 0x20 DUP6 ADD DUP3 PUSH2 0x2E1C JUMP JUMPDEST POP PUSH1 0x40 DUP3 ADD MLOAD PUSH2 0x2E76 PUSH1 0x40 DUP6 ADD DUP3 PUSH2 0x2E1C JUMP JUMPDEST POP PUSH1 0x60 DUP3 ADD MLOAD PUSH2 0x2E89 PUSH1 0x60 DUP6 ADD DUP3 PUSH2 0x2DFB JUMP JUMPDEST POP PUSH1 0x80 DUP3 ADD MLOAD PUSH2 0x2E9C PUSH1 0x80 DUP6 ADD DUP3 PUSH2 0x2E2B JUMP JUMPDEST POP POP POP POP JUMP JUMPDEST PUSH1 0x0 PUSH2 0x2EAE DUP4 DUP4 PUSH2 0x2E3A JUMP JUMPDEST PUSH1 0xA0 DUP4 ADD SWAP1 POP SWAP3 SWAP2 POP POP JUMP JUMPDEST PUSH1 0x0 PUSH1 0x20 DUP3 ADD SWAP1 POP SWAP2 SWAP1 POP JUMP JUMPDEST PUSH1 0x0 PUSH2 0x2ED2 DUP3 PUSH2 0x2DCF JUMP JUMPDEST PUSH2 0x2EDC DUP2 DUP6 PUSH2 0x2DDA JUMP JUMPDEST SWAP4 POP PUSH2 0x2EE7 DUP4 PUSH2 0x2DEB JUMP JUMPDEST DUP1 PUSH1 0x0 JUMPDEST DUP4 DUP2 LT ISZERO PUSH2 0x2F18 JUMPI DUP2 MLOAD PUSH2 0x2EFF DUP9 DUP3 PUSH2 0x2EA2 JUMP JUMPDEST SWAP8 POP PUSH2 0x2F0A DUP4 PUSH2 0x2EBA JUMP JUMPDEST SWAP3 POP POP PUSH1 0x1 DUP2 ADD SWAP1 POP PUSH2 0x2EEB JUMP JUMPDEST POP DUP6 SWAP4 POP POP POP POP SWAP3 SWAP2 POP POP JUMP JUMPDEST PUSH1 0x0 PUSH1 0x20 DUP3 ADD SWAP1 POP DUP2 DUP2 SUB PUSH1 0x0 DUP4 ADD MSTORE PUSH2 0x2F3F DUP2 DUP5 PUSH2 0x2EC7 JUMP JUMPDEST SWAP1 POP SWAP3 SWAP2 POP POP JUMP JUMPDEST PUSH2 0x2F50 DUP2 PUSH2 0x2CA4 JUMP JUMPDEST DUP3 MSTORE POP POP JUMP JUMPDEST PUSH1 0x0 PUSH1 0x20 DUP3 ADD SWAP1 POP PUSH2 0x2F6B PUSH1 0x0 DUP4 ADD DUP5 PUSH2 0x2F47 JUMP JUMPDEST SWAP3 SWAP2 POP POP JUMP JUMPDEST PUSH1 0x0 DUP1 PUSH1 0x0 PUSH1 0x60 DUP5 DUP7 SUB SLT ISZERO PUSH2 0x2F8A JUMPI PUSH2 0x2F89 PUSH2 0x2B2D JUMP JUMPDEST JUMPDEST PUSH1 0x0 PUSH2 0x2F98 DUP7 DUP3 DUP8 ADD PUSH2 0x2D7A JUMP JUMPDEST SWAP4 POP POP PUSH1 0x20 PUSH2 0x2FA9 DUP7 DUP3 DUP8 ADD PUSH2 0x2D7A JUMP JUMPDEST SWAP3 POP POP PUSH1 0x40 PUSH2 0x2FBA DUP7 DUP3 DUP8 ADD PUSH2 0x2CC5 JUMP JUMPDEST SWAP2 POP POP SWAP3 POP SWAP3 POP SWAP3 JUMP JUMPDEST PUSH1 0x0 PUSH1 0x20 DUP3 DUP5 SUB SLT ISZERO PUSH2 0x2FDA JUMPI PUSH2 0x2FD9 PUSH2 0x2B2D JUMP JUMPDEST JUMPDEST PUSH1 0x0 PUSH2 0x2FE8 DUP5 DUP3 DUP6 ADD PUSH2 0x2D7A JUMP JUMPDEST SWAP2 POP POP SWAP3 SWAP2 POP POP JUMP JUMPDEST PUSH1 0x0 DUP1 REVERT JUMPDEST PUSH1 0x0 DUP1 REVERT JUMPDEST PUSH32 0x4E487B7100000000000000000000000000000000000000000000000000000000 PUSH1 0x0 MSTORE PUSH1 0x41 PUSH1 0x4 MSTORE PUSH1 0x24 PUSH1 0x0 REVERT JUMPDEST PUSH2 0x3033 DUP3 PUSH2 0x2C38 JUMP JUMPDEST DUP2 ADD DUP2 DUP2 LT PUSH8 0xFFFFFFFFFFFFFFFF DUP3 GT OR ISZERO PUSH2 0x3052 JUMPI PUSH2 0x3051 PUSH2 0x2FFB JUMP JUMPDEST JUMPDEST DUP1 PUSH1 0x40 MSTORE POP POP POP JUMP JUMPDEST PUSH1 0x0 PUSH2 0x3065 PUSH2 0x2B23 JUMP JUMPDEST SWAP1 POP PUSH2 0x3071 DUP3 DUP3 PUSH2 0x302A JUMP JUMPDEST SWAP2 SWAP1 POP JUMP JUMPDEST PUSH1 0x0 PUSH8 0xFFFFFFFFFFFFFFFF DUP3 GT ISZERO PUSH2 0x3091 JUMPI PUSH2 0x3090 PUSH2 0x2FFB JUMP JUMPDEST JUMPDEST PUSH2 0x309A DUP3 PUSH2 0x2C38 JUMP JUMPDEST SWAP1 POP PUSH1 0x20 DUP2 ADD SWAP1 POP SWAP2 SWAP1 POP JUMP JUMPDEST DUP3 DUP2 DUP4 CALLDATACOPY PUSH1 0x0 DUP4 DUP4 ADD MSTORE POP POP POP JUMP JUMPDEST PUSH1 0x0 PUSH2 0x30C9 PUSH2 0x30C4 DUP5 PUSH2 0x3076 JUMP JUMPDEST PUSH2 0x305B JUMP JUMPDEST SWAP1 POP DUP3 DUP2 MSTORE PUSH1 0x20 DUP2 ADD DUP5 DUP5 DUP5 ADD GT ISZERO PUSH2 0x30E5 JUMPI PUSH2 0x30E4 PUSH2 0x2FF6 JUMP JUMPDEST JUMPDEST PUSH2 0x30F0 DUP5 DUP3 DUP6 PUSH2 0x30A7 JUMP JUMPDEST POP SWAP4 SWAP3 POP POP POP JUMP JUMPDEST PUSH1 0x0 DUP3 PUSH1 0x1F DUP4 ADD SLT PUSH2 0x310D JUMPI PUSH2 0x310C PUSH2 0x2FF1 JUMP JUMPDEST JUMPDEST DUP2 CALLDATALOAD PUSH2 0x311D DUP5 DUP3 PUSH1 0x20 DUP7 ADD PUSH2 0x30B6 JUMP JUMPDEST SWAP2 POP POP SWAP3 SWAP2 POP POP JUMP JUMPDEST PUSH1 0x0 DUP1 PUSH1 0x40 DUP4 DUP6 SUB SLT ISZERO PUSH2 0x313D JUMPI PUSH2 0x313C PUSH2 0x2B2D JUMP JUMPDEST JUMPDEST PUSH1 0x0 DUP4 ADD CALLDATALOAD PUSH8 0xFFFFFFFFFFFFFFFF DUP2 GT ISZERO PUSH2 0x315B JUMPI PUSH2 0x315A PUSH2 0x2B32 JUMP JUMPDEST JUMPDEST PUSH2 0x3167 DUP6 DUP3 DUP7 ADD PUSH2 0x30F8 JUMP JUMPDEST SWAP3 POP POP PUSH1 0x20 PUSH2 0x3178 DUP6 DUP3 DUP7 ADD PUSH2 0x2CC5 JUMP JUMPDEST SWAP2 POP POP SWAP3 POP SWAP3 SWAP1 POP JUMP JUMPDEST PUSH2 0x318B DUP2 PUSH2 0x2BBC JUMP JUMPDEST DUP2 EQ PUSH2 0x3196 JUMPI PUSH1 0x0 DUP1 REVERT JUMPDEST POP JUMP JUMPDEST PUSH1 0x0 DUP2 CALLDATALOAD SWAP1 POP PUSH2 0x31A8 DUP2 PUSH2 0x3182 JUMP JUMPDEST SWAP3 SWAP2 POP POP JUMP JUMPDEST PUSH1 0x0 DUP1 PUSH1 0x40 DUP4 DUP6 SUB SLT ISZERO PUSH2 0x31C5 JUMPI PUSH2 0x31C4 PUSH2 0x2B2D JUMP JUMPDEST JUMPDEST PUSH1 0x0 PUSH2 0x31D3 DUP6 DUP3 DUP7 ADD PUSH2 0x2D7A JUMP JUMPDEST SWAP3 POP POP PUSH1 0x20 PUSH2 0x31E4 DUP6 DUP3 DUP7 ADD PUSH2 0x3199 JUMP JUMPDEST SWAP2 POP POP SWAP3 POP SWAP3 SWAP1 POP JUMP JUMPDEST PUSH1 0x0 PUSH8 0xFFFFFFFFFFFFFFFF DUP3 GT ISZERO PUSH2 0x3209 JUMPI PUSH2 0x3208 PUSH2 0x2FFB JUMP JUMPDEST JUMPDEST PUSH2 0x3212 DUP3 PUSH2 0x2C38 JUMP JUMPDEST SWAP1 POP PUSH1 0x20 DUP2 ADD SWAP1 POP SWAP2 SWAP1 POP JUMP JUMPDEST PUSH1 0x0 PUSH2 0x3232 PUSH2 0x322D DUP5 PUSH2 0x31EE JUMP JUMPDEST PUSH2 0x305B JUMP JUMPDEST SWAP1 POP DUP3 DUP2 MSTORE PUSH1 0x20 DUP2 ADD DUP5 DUP5 DUP5 ADD GT ISZERO PUSH2 0x324E JUMPI PUSH2 0x324D PUSH2 0x2FF6 JUMP JUMPDEST JUMPDEST PUSH2 0x3259 DUP5 DUP3 DUP6 PUSH2 0x30A7 JUMP JUMPDEST POP SWAP4 SWAP3 POP POP POP JUMP JUMPDEST PUSH1 0x0 DUP3 PUSH1 0x1F DUP4 ADD SLT PUSH2 0x3276 JUMPI PUSH2 0x3275 PUSH2 0x2FF1 JUMP JUMPDEST JUMPDEST DUP2 CALLDATALOAD PUSH2 0x3286 DUP5 DUP3 PUSH1 0x20 DUP7 ADD PUSH2 0x321F JUMP JUMPDEST SWAP2 POP POP SWAP3 SWAP2 POP POP JUMP JUMPDEST PUSH1 0x0 DUP1 PUSH1 0x0 DUP1 PUSH1 0x80 DUP6 DUP8 SUB SLT ISZERO PUSH2 0x32A9 JUMPI PUSH2 0x32A8 PUSH2 0x2B2D JUMP JUMPDEST JUMPDEST PUSH1 0x0 PUSH2 0x32B7 DUP8 DUP3 DUP9 ADD PUSH2 0x2D7A JUMP JUMPDEST SWAP5 POP POP PUSH1 0x20 PUSH2 0x32C8 DUP8 DUP3 DUP9 ADD PUSH2 0x2D7A JUMP JUMPDEST SWAP4 POP POP PUSH1 0x40 PUSH2 0x32D9 DUP8 DUP3 DUP9 ADD PUSH2 0x2CC5 JUMP JUMPDEST SWAP3 POP POP PUSH1 0x60 DUP6 ADD CALLDATALOAD PUSH8 0xFFFFFFFFFFFFFFFF DUP2 GT ISZERO PUSH2 0x32FA JUMPI PUSH2 0x32F9 PUSH2 0x2B32 JUMP JUMPDEST JUMPDEST PUSH2 0x3306 DUP8 DUP3 DUP9 ADD PUSH2 0x3261 JUMP JUMPDEST SWAP2 POP POP SWAP3 SWAP6 SWAP2 SWAP5 POP SWAP3 POP JUMP JUMPDEST PUSH1 0x0 DUP1 PUSH1 0x40 DUP4 DUP6 SUB SLT ISZERO PUSH2 0x3329 JUMPI PUSH2 0x3328 PUSH2 0x2B2D JUMP JUMPDEST JUMPDEST PUSH1 0x0 PUSH2 0x3337 DUP6 DUP3 DUP7 ADD PUSH2 0x2CC5 JUMP JUMPDEST SWAP3 POP POP PUSH1 0x20 PUSH2 0x3348 DUP6 DUP3 DUP7 ADD PUSH2 0x2CC5 JUMP JUMPDEST SWAP2 POP POP SWAP3 POP SWAP3 SWAP1 POP JUMP JUMPDEST PUSH1 0x0 DUP1 PUSH1 0x40 DUP4 DUP6 SUB SLT ISZERO PUSH2 0x3369 JUMPI PUSH2 0x3368 PUSH2 0x2B2D JUMP JUMPDEST JUMPDEST PUSH1 0x0 PUSH2 0x3377 DUP6 DUP3 DUP7 ADD PUSH2 0x2D7A JUMP JUMPDEST SWAP3 POP POP PUSH1 0x20 PUSH2 0x3388 DUP6 DUP3 DUP7 ADD PUSH2 0x2D7A JUMP JUMPDEST SWAP2 POP POP SWAP3 POP SWAP3 SWAP1 POP JUMP JUMPDEST PUSH32 0x4E487B7100000000000000000000000000000000000000000000000000000000 PUSH1 0x0 MSTORE PUSH1 0x22 PUSH1 0x4 MSTORE PUSH1 0x24 PUSH1 0x0 REVERT JUMPDEST PUSH1 0x0 PUSH1 0x2 DUP3 DIV SWAP1 POP PUSH1 0x1 DUP3 AND DUP1 PUSH2 0x33D9 JUMPI PUSH1 0x7F DUP3 AND SWAP2 POP JUMPDEST PUSH1 0x20 DUP3 LT DUP2 SUB PUSH2 0x33EC JUMPI PUSH2 0x33EB PUSH2 0x3392 JUMP JUMPDEST JUMPDEST POP SWAP2 SWAP1 POP JUMP JUMPDEST PUSH32 0x4552433732313A20617070726F76616C20746F2063757272656E74206F776E65 PUSH1 0x0 DUP3 ADD MSTORE PUSH32 0x7200000000000000000000000000000000000000000000000000000000000000 PUSH1 0x20 DUP3 ADD MSTORE POP JUMP JUMPDEST PUSH1 0x0 PUSH2 0x344E PUSH1 0x21 DUP4 PUSH2 0x2BFD JUMP JUMPDEST SWAP2 POP PUSH2 0x3459 DUP3 PUSH2 0x33F2 JUMP JUMPDEST PUSH1 0x40 DUP3 ADD SWAP1 POP SWAP2 SWAP1 POP JUMP JUMPDEST PUSH1 0x0 PUSH1 0x20 DUP3 ADD SWAP1 POP DUP2 DUP2 SUB PUSH1 0x0 DUP4 ADD MSTORE PUSH2 0x347D DUP2 PUSH2 0x3441 JUMP JUMPDEST SWAP1 POP SWAP2 SWAP1 POP JUMP JUMPDEST PUSH32 0x4552433732313A20617070726F76652063616C6C6572206973206E6F7420746F PUSH1 0x0 DUP3 ADD MSTORE PUSH32 0x6B656E206F776E6572206F7220617070726F76656420666F7220616C6C000000 PUSH1 0x20 DUP3 ADD MSTORE POP JUMP JUMPDEST PUSH1 0x0 PUSH2 0x34E0 PUSH1 0x3D DUP4 PUSH2 0x2BFD JUMP JUMPDEST SWAP2 POP PUSH2 0x34EB DUP3 PUSH2 0x3484 JUMP JUMPDEST PUSH1 0x40 DUP3 ADD SWAP1 POP SWAP2 SWAP1 POP JUMP JUMPDEST PUSH1 0x0 PUSH1 0x20 DUP3 ADD SWAP1 POP DUP2 DUP2 SUB PUSH1 0x0 DUP4 ADD MSTORE PUSH2 0x350F DUP2 PUSH2 0x34D3 JUMP JUMPDEST SWAP1 POP SWAP2 SWAP1 POP JUMP JUMPDEST PUSH32 0x4E487B7100000000000000000000000000000000000000000000000000000000 PUSH1 0x0 MSTORE PUSH1 0x11 PUSH1 0x4 MSTORE PUSH1 0x24 PUSH1 0x0 REVERT JUMPDEST PUSH1 0x0 PUSH2 0x3550 DUP3 PUSH2 0x2CA4 JUMP JUMPDEST SWAP2 POP PUSH2 0x355B DUP4 PUSH2 0x2CA4 JUMP JUMPDEST SWAP3 POP DUP3 DUP3 SUB SWAP1 POP DUP2 DUP2 GT ISZERO PUSH2 0x3573 JUMPI PUSH2 0x3572 PUSH2 0x3516 JUMP JUMPDEST JUMPDEST SWAP3 SWAP2 POP POP JUMP JUMPDEST PUSH1 0x0 PUSH2 0x3584 DUP3 PUSH2 0x2CA4 JUMP JUMPDEST SWAP2 POP PUSH2 0x358F DUP4 PUSH2 0x2CA4 JUMP JUMPDEST SWAP3 POP DUP3 DUP3 ADD SWAP1 POP DUP1 DUP3 GT ISZERO PUSH2 0x35A7 JUMPI PUSH2 0x35A6 PUSH2 0x3516 JUMP JUMPDEST JUMPDEST SWAP3 SWAP2 POP POP JUMP JUMPDEST PUSH32 0x4E487B7100000000000000000000000000000000000000000000000000000000 PUSH1 0x0 MSTORE PUSH1 0x32 PUSH1 0x4 MSTORE PUSH1 0x24 PUSH1 0x0 REVERT JUMPDEST PUSH1 0x0 PUSH2 0x35E7 DUP3 PUSH2 0x2CA4 JUMP JUMPDEST SWAP2 POP PUSH32 0xFFFFFFFFFFFFFFFFFFFFFFFFFFFFFFFFFFFFFFFFFFFFFFFFFFFFFFFFFFFFFFFF DUP3 SUB PUSH2 0x3619 JUMPI PUSH2 0x3618 PUSH2 0x3516 JUMP JUMPDEST JUMPDEST PUSH1 0x1 DUP3 ADD SWAP1 POP SWAP2 SWAP1 POP JUMP JUMPDEST PUSH32 0x4552433732313A2063616C6C6572206973206E6F7420746F6B656E206F776E65 PUSH1 0x0 DUP3 ADD MSTORE PUSH32 0x72206F7220617070726F76656400000000000000000000000000000000000000 PUSH1 0x20 DUP3 ADD MSTORE POP JUMP JUMPDEST PUSH1 0x0 PUSH2 0x3680 PUSH1 0x2D DUP4 PUSH2 0x2BFD JUMP JUMPDEST SWAP2 POP PUSH2 0x368B DUP3 PUSH2 0x3624 JUMP JUMPDEST PUSH1 0x40 DUP3 ADD SWAP1 POP SWAP2 SWAP1 POP JUMP JUMPDEST PUSH1 0x0 PUSH1 0x20 DUP3 ADD SWAP1 POP DUP2 DUP2 SUB PUSH1 0x0 DUP4 ADD MSTORE PUSH2 0x36AF DUP2 PUSH2 0x3673 JUMP JUMPDEST SWAP1 POP SWAP2 SWAP1 POP JUMP JUMPDEST PUSH32 0x4552433732313A20696E76616C696420746F6B656E2049440000000000000000 PUSH1 0x0 DUP3 ADD MSTORE POP JUMP JUMPDEST PUSH1 0x0 PUSH2 0x36EC PUSH1 0x18 DUP4 PUSH2 0x2BFD JUMP JUMPDEST SWAP2 POP PUSH2 0x36F7 DUP3 PUSH2 0x36B6 JUMP JUMPDEST PUSH1 0x20 DUP3 ADD SWAP1 POP SWAP2 SWAP1 POP JUMP JUMPDEST PUSH1 0x0 PUSH1 0x20 DUP3 ADD SWAP1 POP DUP2 DUP2 SUB PUSH1 0x0 DUP4 ADD MSTORE PUSH2 0x371B DUP2 PUSH2 0x36DF JUMP JUMPDEST SWAP1 POP SWAP2 SWAP1 POP JUMP JUMPDEST PUSH32 0x4552433732313A2061646472657373207A65726F206973206E6F742061207661 PUSH1 0x0 DUP3 ADD MSTORE PUSH32 0x6C6964206F776E65720000000000000000000000000000000000000000000000 PUSH1 0x20 DUP3 ADD MSTORE POP JUMP JUMPDEST PUSH1 0x0 PUSH2 0x377E PUSH1 0x29 DUP4 PUSH2 0x2BFD JUMP JUMPDEST SWAP2 POP PUSH2 0x3789 DUP3 PUSH2 0x3722 JUMP JUMPDEST PUSH1 0x40 DUP3 ADD SWAP1 POP SWAP2 SWAP1 POP JUMP JUMPDEST PUSH1 0x0 PUSH1 0x20 DUP3 ADD SWAP1 POP DUP2 DUP2 SUB PUSH1 0x0 DUP4 ADD MSTORE PUSH2 0x37AD DUP2 PUSH2 0x3771 JUMP JUMPDEST SWAP1 POP SWAP2 SWAP1 POP JUMP JUMPDEST PUSH32 0x4F6E6C79206D61726B6574706C616365206F776E65722063616E207570646174 PUSH1 0x0 DUP3 ADD MSTORE PUSH32 0x65206C697374696E672070726963652E00000000000000000000000000000000 PUSH1 0x20 DUP3 ADD MSTORE POP JUMP JUMPDEST PUSH1 0x0 PUSH2 0x3810 PUSH1 0x30 DUP4 PUSH2 0x2BFD JUMP JUMPDEST SWAP2 POP PUSH2 0x381B DUP3 PUSH2 0x37B4 JUMP JUMPDEST PUSH1 0x40 DUP3 ADD SWAP1 POP SWAP2 SWAP1 POP JUMP JUMPDEST PUSH1 0x0 PUSH1 0x20 DUP3 ADD SWAP1 POP DUP2 DUP2 SUB PUSH1 0x0 DUP4 ADD MSTORE PUSH2 0x383F DUP2 PUSH2 0x3803 JUMP JUMPDEST SWAP1 POP SWAP2 SWAP1 POP JUMP JUMPDEST PUSH32 0x506C65617365207375626D6974207468652061736B696E672070726963652069 PUSH1 0x0 DUP3 ADD MSTORE PUSH32 0x6E206F7264657220746F20636F6D706C65746520746865207075726368617365 PUSH1 0x20 DUP3 ADD MSTORE POP JUMP JUMPDEST PUSH1 0x0 PUSH2 0x38A2 PUSH1 0x40 DUP4 PUSH2 0x2BFD JUMP JUMPDEST SWAP2 POP PUSH2 0x38AD DUP3 PUSH2 0x3846 JUMP JUMPDEST PUSH1 0x40 DUP3 ADD SWAP1 POP SWAP2 SWAP1 POP JUMP JUMPDEST PUSH1 0x0 PUSH1 0x20 DUP3 ADD SWAP1 POP DUP2 DUP2 SUB PUSH1 0x0 DUP4 ADD MSTORE PUSH2 0x38D1 DUP2 PUSH2 0x3895 JUMP JUMPDEST SWAP1 POP SWAP2 SWAP1 POP JUMP JUMPDEST PUSH1 0x0 DUP2 SWAP1 POP SWAP3 SWAP2 POP POP JUMP JUMPDEST PUSH1 0x0 PUSH2 0x38EE DUP3 PUSH2 0x2BF2 JUMP JUMPDEST PUSH2 0x38F8 DUP2 DUP6 PUSH2 0x38D8 JUMP JUMPDEST SWAP4 POP PUSH2 0x3908 DUP2 DUP6 PUSH1 0x20 DUP7 ADD PUSH2 0x2C0E JUMP JUMPDEST DUP1 DUP5 ADD SWAP2 POP POP SWAP3 SWAP2 POP POP JUMP JUMPDEST PUSH1 0x0 PUSH2 0x3920 DUP3 DUP6 PUSH2 0x38E3 JUMP JUMPDEST SWAP2 POP PUSH2 0x392C DUP3 DUP5 PUSH2 0x38E3 JUMP JUMPDEST SWAP2 POP DUP2 SWAP1 POP SWAP4 SWAP3 POP POP POP JUMP JUMPDEST PUSH32 0x4F6E6C79206974656D206F776E65722063616E20706572666F726D2074686973 PUSH1 0x0 DUP3 ADD MSTORE PUSH32 0x206F7065726174696F6E00000000000000000000000000000000000000000000 PUSH1 0x20 DUP3 ADD MSTORE POP JUMP JUMPDEST PUSH1 0x0 PUSH2 0x3994 PUSH1 0x2A DUP4 PUSH2 0x2BFD JUMP JUMPDEST SWAP2 POP PUSH2 0x399F DUP3 PUSH2 0x3938 JUMP JUMPDEST PUSH1 0x40 DUP3 ADD SWAP1 POP SWAP2 SWAP1 POP JUMP JUMPDEST PUSH1 0x0 PUSH1 0x20 DUP3 ADD SWAP1 POP DUP2 DUP2 SUB PUSH1 0x0 DUP4 ADD MSTORE PUSH2 0x39C3 DUP2 PUSH2 0x3987 JUMP JUMPDEST SWAP1 POP SWAP2 SWAP1 POP JUMP JUMPDEST PUSH32 0x5072696365206D75737420626520657175616C20746F206C697374696E672070 PUSH1 0x0 DUP3 ADD MSTORE PUSH32 0x7269636500000000000000000000000000000000000000000000000000000000 PUSH1 0x20 DUP3 ADD MSTORE POP JUMP JUMPDEST PUSH1 0x0 PUSH2 0x3A26 PUSH1 0x24 DUP4 PUSH2 0x2BFD JUMP JUMPDEST SWAP2 POP PUSH2 0x3A31 DUP3 PUSH2 0x39CA JUMP JUMPDEST PUSH1 0x40 DUP3 ADD SWAP1 POP SWAP2 SWAP1 POP JUMP JUMPDEST PUSH1 0x0 PUSH1 0x20 DUP3 ADD SWAP1 POP DUP2 DUP2 SUB PUSH1 0x0 DUP4 ADD MSTORE PUSH2 0x3A55 DUP2 PUSH2 0x3A19 JUMP JUMPDEST SWAP1 POP SWAP2 SWAP1 POP JUMP JUMPDEST PUSH32 0x4552433732313A207472616E736665722066726F6D20696E636F727265637420 PUSH1 0x0 DUP3 ADD MSTORE PUSH32 0x6F776E6572000000000000000000000000000000000000000000000000000000 PUSH1 0x20 DUP3 ADD MSTORE POP JUMP JUMPDEST PUSH1 0x0 PUSH2 0x3AB8 PUSH1 0x25 DUP4 PUSH2 0x2BFD JUMP JUMPDEST SWAP2 POP PUSH2 0x3AC3 DUP3 PUSH2 0x3A5C JUMP JUMPDEST PUSH1 0x40 DUP3 ADD SWAP1 POP SWAP2 SWAP1 POP JUMP JUMPDEST PUSH1 0x0 PUSH1 0x20 DUP3 ADD SWAP1 POP DUP2 DUP2 SUB PUSH1 0x0 DUP4 ADD MSTORE PUSH2 0x3AE7 DUP2 PUSH2 0x3AAB JUMP JUMPDEST SWAP1 POP SWAP2 SWAP1 POP JUMP JUMPDEST PUSH32 0x4552433732313A207472616E7366657220746F20746865207A65726F20616464 PUSH1 0x0 DUP3 ADD MSTORE PUSH32 0x7265737300000000000000000000000000000000000000000000000000000000 PUSH1 0x20 DUP3 ADD MSTORE POP JUMP JUMPDEST PUSH1 0x0 PUSH2 0x3B4A PUSH1 0x24 DUP4 PUSH2 0x2BFD JUMP JUMPDEST SWAP2 POP PUSH2 0x3B55 DUP3 PUSH2 0x3AEE JUMP JUMPDEST PUSH1 0x40 DUP3 ADD SWAP1 POP SWAP2 SWAP1 POP JUMP JUMPDEST PUSH1 0x0 PUSH1 0x20 DUP3 ADD SWAP1 POP DUP2 DUP2 SUB PUSH1 0x0 DUP4 ADD MSTORE PUSH2 0x3B79 DUP2 PUSH2 0x3B3D JUMP JUMPDEST SWAP1 POP SWAP2 SWAP1 POP JUMP JUMPDEST PUSH32 0x4552433732313A206D696E7420746F20746865207A65726F2061646472657373 PUSH1 0x0 DUP3 ADD MSTORE POP JUMP JUMPDEST PUSH1 0x0 PUSH2 0x3BB6 PUSH1 0x20 DUP4 PUSH2 0x2BFD JUMP JUMPDEST SWAP2 POP PUSH2 0x3BC1 DUP3 PUSH2 0x3B80 JUMP JUMPDEST PUSH1 0x20 DUP3 ADD SWAP1 POP SWAP2 SWAP1 POP JUMP JUMPDEST PUSH1 0x0 PUSH1 0x20 DUP3 ADD SWAP1 POP DUP2 DUP2 SUB PUSH1 0x0 DUP4 ADD MSTORE PUSH2 0x3BE5 DUP2 PUSH2 0x3BA9 JUMP JUMPDEST SWAP1 POP SWAP2 SWAP1 POP JUMP JUMPDEST PUSH32 0x4552433732313A20746F6B656E20616C7265616479206D696E74656400000000 PUSH1 0x0 DUP3 ADD MSTORE POP JUMP JUMPDEST PUSH1 0x0 PUSH2 0x3C22 PUSH1 0x1C DUP4 PUSH2 0x2BFD JUMP JUMPDEST SWAP2 POP PUSH2 0x3C2D DUP3 PUSH2 0x3BEC JUMP JUMPDEST PUSH1 0x20 DUP3 ADD SWAP1 POP SWAP2 SWAP1 POP JUMP JUMPDEST PUSH1 0x0 PUSH1 0x20 DUP3 ADD SWAP1 POP DUP2 DUP2 SUB PUSH1 0x0 DUP4 ADD MSTORE PUSH2 0x3C51 DUP2 PUSH2 0x3C15 JUMP JUMPDEST SWAP1 POP SWAP2 SWAP1 POP JUMP JUMPDEST PUSH32 0x45524337323155524953746F726167653A2055524920736574206F66206E6F6E PUSH1 0x0 DUP3 ADD MSTORE PUSH32 0x6578697374656E7420746F6B656E000000000000000000000000000000000000 PUSH1 0x20 DUP3 ADD MSTORE POP JUMP JUMPDEST PUSH1 0x0 PUSH2 0x3CB4 PUSH1 0x2E DUP4 PUSH2 0x2BFD JUMP JUMPDEST SWAP2 POP PUSH2 0x3CBF DUP3 PUSH2 0x3C58 JUMP JUMPDEST PUSH1 0x40 DUP3 ADD SWAP1 POP SWAP2 SWAP1 POP JUMP JUMPDEST PUSH1 0x0 PUSH1 0x20 DUP3 ADD SWAP1 POP DUP2 DUP2 SUB PUSH1 0x0 DUP4 ADD MSTORE PUSH2 0x3CE3 DUP2 PUSH2 0x3CA7 JUMP JUMPDEST SWAP1 POP SWAP2 SWAP1 POP JUMP JUMPDEST PUSH1 0x0 DUP2 SWAP1 POP DUP2 PUSH1 0x0 MSTORE PUSH1 0x20 PUSH1 0x0 KECCAK256 SWAP1 POP SWAP2 SWAP1 POP JUMP JUMPDEST PUSH1 0x0 PUSH1 0x20 PUSH1 0x1F DUP4 ADD DIV SWAP1 POP SWAP2 SWAP1 POP JUMP JUMPDEST PUSH1 0x0 DUP3 DUP3 SHL SWAP1 POP SWAP3 SWAP2 POP POP JUMP JUMPDEST PUSH1 0x0 PUSH1 0x8 DUP4 MUL PUSH2 0x3D4C PUSH32 0xFFFFFFFFFFFFFFFFFFFFFFFFFFFFFFFFFFFFFFFFFFFFFFFFFFFFFFFFFFFFFFFF DUP3 PUSH2 0x3D0F JUMP JUMPDEST PUSH2 0x3D56 DUP7 DUP4 PUSH2 0x3D0F JUMP JUMPDEST SWAP6 POP DUP1 NOT DUP5 AND SWAP4 POP DUP1 DUP7 AND DUP5 OR SWAP3 POP POP POP SWAP4 SWAP3 POP POP POP JUMP JUMPDEST PUSH1 0x0 DUP2 SWAP1 POP SWAP2 SWAP1 POP JUMP JUMPDEST PUSH1 0x0 PUSH2 0x3D93 PUSH2 0x3D8E PUSH2 0x3D89 DUP5 PUSH2 0x2CA4 JUMP JUMPDEST PUSH2 0x3D6E JUMP JUMPDEST PUSH2 0x2CA4 JUMP JUMPDEST SWAP1 POP SWAP2 SWAP1 POP JUMP JUMPDEST PUSH1 0x0 DUP2 SWAP1 POP SWAP2 SWAP1 POP JUMP JUMPDEST PUSH2 0x3DAD DUP4 PUSH2 0x3D78 JUMP JUMPDEST PUSH2 0x3DC1 PUSH2 0x3DB9 DUP3 PUSH2 0x3D9A JUMP JUMPDEST DUP5 DUP5 SLOAD PUSH2 0x3D1C JUMP JUMPDEST DUP3 SSTORE POP POP POP POP JUMP JUMPDEST PUSH1 0x0 SWAP1 JUMP JUMPDEST PUSH2 0x3DD6 PUSH2 0x3DC9 JUMP JUMPDEST PUSH2 0x3DE1 DUP2 DUP5 DUP5 PUSH2 0x3DA4 JUMP JUMPDEST POP POP POP JUMP JUMPDEST JUMPDEST DUP2 DUP2 LT ISZERO PUSH2 0x3E05 JUMPI PUSH2 0x3DFA PUSH1 0x0 DUP3 PUSH2 0x3DCE JUMP JUMPDEST PUSH1 0x1 DUP2 ADD SWAP1 POP PUSH2 0x3DE7 JUMP JUMPDEST POP POP JUMP JUMPDEST PUSH1 0x1F DUP3 GT ISZERO PUSH2 0x3E4A JUMPI PUSH2 0x3E1B DUP2 PUSH2 0x3CEA JUMP JUMPDEST PUSH2 0x3E24 DUP5 PUSH2 0x3CFF JUMP JUMPDEST DUP2 ADD PUSH1 0x20 DUP6 LT ISZERO PUSH2 0x3E33 JUMPI DUP2 SWAP1 POP JUMPDEST PUSH2 0x3E47 PUSH2 0x3E3F DUP6 PUSH2 0x3CFF JUMP JUMPDEST DUP4 ADD DUP3 PUSH2 0x3DE6 JUMP JUMPDEST POP POP JUMPDEST POP POP POP JUMP JUMPDEST PUSH1 0x0 DUP3 DUP3 SHR SWAP1 POP SWAP3 SWAP2 POP POP JUMP JUMPDEST PUSH1 0x0 PUSH2 0x3E6D PUSH1 0x0 NOT DUP5 PUSH1 0x8 MUL PUSH2 0x3E4F JUMP JUMPDEST NOT DUP1 DUP4 AND SWAP2 POP POP SWAP3 SWAP2 POP POP JUMP JUMPDEST PUSH1 0x0 PUSH2 0x3E86 DUP4 DUP4 PUSH2 0x3E5C JUMP JUMPDEST SWAP2 POP DUP3 PUSH1 0x2 MUL DUP3 OR SWAP1 POP SWAP3 SWAP2 POP POP JUMP JUMPDEST PUSH2 0x3E9F DUP3 PUSH2 0x2BF2 JUMP JUMPDEST PUSH8 0xFFFFFFFFFFFFFFFF DUP2 GT ISZERO PUSH2 0x3EB8 JUMPI PUSH2 0x3EB7 PUSH2 0x2FFB JUMP JUMPDEST JUMPDEST PUSH2 0x3EC2 DUP3 SLOAD PUSH2 0x33C1 JUMP JUMPDEST PUSH2 0x3ECD DUP3 DUP3 DUP6 PUSH2 0x3E09 JUMP JUMPDEST PUSH1 0x0 PUSH1 0x20 SWAP1 POP PUSH1 0x1F DUP4 GT PUSH1 0x1 DUP2 EQ PUSH2 0x3F00 JUMPI PUSH1 0x0 DUP5 ISZERO PUSH2 0x3EEE JUMPI DUP3 DUP8 ADD MLOAD SWAP1 POP JUMPDEST PUSH2 0x3EF8 DUP6 DUP3 PUSH2 0x3E7A JUMP JUMPDEST DUP7 SSTORE POP PUSH2 0x3F60 JUMP JUMPDEST PUSH1 0x1F NOT DUP5 AND PUSH2 0x3F0E DUP7 PUSH2 0x3CEA JUMP JUMPDEST PUSH1 0x0 JUMPDEST DUP3 DUP2 LT ISZERO PUSH2 0x3F36 JUMPI DUP5 DUP10 ADD MLOAD DUP3 SSTORE PUSH1 0x1 DUP3 ADD SWAP2 POP PUSH1 0x20 DUP6 ADD SWAP5 POP PUSH1 0x20 DUP2 ADD SWAP1 POP PUSH2 0x3F11 JUMP JUMPDEST DUP7 DUP4 LT ISZERO PUSH2 0x3F53 JUMPI DUP5 DUP10 ADD MLOAD PUSH2 0x3F4F PUSH1 0x1F DUP10 AND DUP3 PUSH2 0x3E5C JUMP JUMPDEST DUP4 SSTORE POP JUMPDEST PUSH1 0x1 PUSH1 0x2 DUP9 MUL ADD DUP9 SSTORE POP POP POP JUMPDEST POP POP POP POP POP POP JUMP JUMPDEST PUSH32 0x5072696365206D757374206265206174206C6561737420312077656900000000 PUSH1 0x0 DUP3 ADD MSTORE POP JUMP JUMPDEST PUSH1 0x0 PUSH2 0x3F9E PUSH1 0x1C DUP4 PUSH2 0x2BFD JUMP JUMPDEST SWAP2 POP PUSH2 0x3FA9 DUP3 PUSH2 0x3F68 JUMP JUMPDEST PUSH1 0x20 DUP3 ADD SWAP1 POP SWAP2 SWAP1 POP JUMP JUMPDEST PUSH1 0x0 PUSH1 0x20 DUP3 ADD SWAP1 POP DUP2 DUP2 SUB PUSH1 0x0 DUP4 ADD MSTORE PUSH2 0x3FCD DUP2 PUSH2 0x3F91 JUMP JUMPDEST SWAP1 POP SWAP2 SWAP1 POP JUMP JUMPDEST PUSH1 0x0 PUSH1 0x80 DUP3 ADD SWAP1 POP PUSH2 0x3FE9 PUSH1 0x0 DUP4 ADD DUP8 PUSH2 0x2D39 JUMP JUMPDEST PUSH2 0x3FF6 PUSH1 0x20 DUP4 ADD DUP7 PUSH2 0x2D39 JUMP JUMPDEST PUSH2 0x4003 PUSH1 0x40 DUP4 ADD DUP6 PUSH2 0x2F47 JUMP JUMPDEST PUSH2 0x4010 PUSH1 0x60 DUP4 ADD DUP5 PUSH2 0x2BC8 JUMP JUMPDEST SWAP6 SWAP5 POP POP POP POP POP JUMP JUMPDEST PUSH32 0x4552433732313A20617070726F766520746F2063616C6C657200000000000000 PUSH1 0x0 DUP3 ADD MSTORE POP JUMP JUMPDEST PUSH1 0x0 PUSH2 0x404F PUSH1 0x19 DUP4 PUSH2 0x2BFD JUMP JUMPDEST SWAP2 POP PUSH2 0x405A DUP3 PUSH2 0x4019 JUMP JUMPDEST PUSH1 0x20 DUP3 ADD SWAP1 POP SWAP2 SWAP1 POP JUMP JUMPDEST PUSH1 0x0 PUSH1 0x20 DUP3 ADD SWAP1 POP DUP2 DUP2 SUB PUSH1 0x0 DUP4 ADD MSTORE PUSH2 0x407E DUP2 PUSH2 0x4042 JUMP JUMPDEST SWAP1 POP SWAP2 SWAP1 POP JUMP JUMPDEST PUSH32 0x4552433732313A207472616E7366657220746F206E6F6E204552433732315265 PUSH1 0x0 DUP3 ADD MSTORE PUSH32 0x63656976657220696D706C656D656E7465720000000000000000000000000000 PUSH1 0x20 DUP3 ADD MSTORE POP JUMP JUMPDEST PUSH1 0x0 PUSH2 0x40E1 PUSH1 0x32 DUP4 PUSH2 0x2BFD JUMP JUMPDEST SWAP2 POP PUSH2 0x40EC DUP3 PUSH2 0x4085 JUMP JUMPDEST PUSH1 0x40 DUP3 ADD SWAP1 POP SWAP2 SWAP1 POP JUMP JUMPDEST PUSH1 0x0 PUSH1 0x20 DUP3 ADD SWAP1 POP DUP2 DUP2 SUB PUSH1 0x0 DUP4 ADD MSTORE PUSH2 0x4110 DUP2 PUSH2 0x40D4 JUMP JUMPDEST SWAP1 POP SWAP2 SWAP1 POP JUMP JUMPDEST PUSH32 0x436F756E7465723A2064656372656D656E74206F766572666C6F770000000000 PUSH1 0x0 DUP3 ADD MSTORE POP JUMP JUMPDEST PUSH1 0x0 PUSH2 0x414D PUSH1 0x1B DUP4 PUSH2 0x2BFD JUMP JUMPDEST SWAP2 POP PUSH2 0x4158 DUP3 PUSH2 0x4117 JUMP JUMPDEST PUSH1 0x20 DUP3 ADD SWAP1 POP SWAP2 SWAP1 POP JUMP JUMPDEST PUSH1 0x0 PUSH1 0x20 DUP3 ADD SWAP1 POP DUP2 DUP2 SUB PUSH1 0x0 DUP4 ADD MSTORE PUSH2 0x417C DUP2 PUSH2 0x4140 JUMP JUMPDEST SWAP1 POP SWAP2 SWAP1 POP JUMP JUMPDEST PUSH1 0x0 DUP2 MLOAD SWAP1 POP SWAP2 SWAP1 POP JUMP JUMPDEST PUSH1 0x0 DUP3 DUP3 MSTORE PUSH1 0x20 DUP3 ADD SWAP1 POP SWAP3 SWAP2 POP POP JUMP JUMPDEST PUSH1 0x0 PUSH2 0x41AA DUP3 PUSH2 0x4183 JUMP JUMPDEST PUSH2 0x41B4 DUP2 DUP6 PUSH2 0x418E JUMP JUMPDEST SWAP4 POP PUSH2 0x41C4 DUP2 DUP6 PUSH1 0x20 DUP7 ADD PUSH2 0x2C0E JUMP JUMPDEST PUSH2 0x41CD DUP2 PUSH2 0x2C38 JUMP JUMPDEST DUP5 ADD SWAP2 POP POP SWAP3 SWAP2 POP POP JUMP JUMPDEST PUSH1 0x0 PUSH1 0x80 DUP3 ADD SWAP1 POP PUSH2 0x41ED PUSH1 0x0 DUP4 ADD DUP8 PUSH2 0x2D39 JUMP JUMPDEST PUSH2 0x41FA PUSH1 0x20 DUP4 ADD DUP7 PUSH2 0x2D39 JUMP JUMPDEST PUSH2 0x4207 PUSH1 0x40 DUP4 ADD DUP6 PUSH2 0x2F47 JUMP JUMPDEST DUP2 DUP2 SUB PUSH1 0x60 DUP4 ADD MSTORE PUSH2 0x4219 DUP2 DUP5 PUSH2 0x419F JUMP JUMPDEST SWAP1 POP SWAP6 SWAP5 POP POP POP POP POP JUMP JUMPDEST PUSH1 0x0 DUP2 MLOAD SWAP1 POP PUSH2 0x4233 DUP2 PUSH2 0x2B63 JUMP JUMPDEST SWAP3 SWAP2 POP POP JUMP JUMPDEST PUSH1 0x0 PUSH1 0x20 DUP3 DUP5 SUB SLT ISZERO PUSH2 0x424F JUMPI PUSH2 0x424E PUSH2 0x2B2D JUMP JUMPDEST JUMPDEST PUSH1 0x0 PUSH2 0x425D DUP5 DUP3 DUP6 ADD PUSH2 0x4224 JUMP JUMPDEST SWAP2 POP POP SWAP3 SWAP2 POP POP JUMP JUMPDEST PUSH32 0x4E487B7100000000000000000000000000000000000000000000000000000000 PUSH1 0x0 MSTORE PUSH1 0x12 PUSH1 0x4 MSTORE PUSH1 0x24 PUSH1 0x0 REVERT INVALID LOG2 PUSH5 0x6970667358 0x22 SLT KECCAK256 0xCC 0xA5 0xD6 SAR 0x29 0xCC PUSH26 0xD696D3FD1FEE47430AF55FDB2F409FE89BF9D6A3482014C5A864 PUSH20 0x6F6C634300081100330000000000000000000000 "},"methodIdentifiers":{"approve(address,uint256)":"095ea7b3","balanceOf(address)":"70a08231","createMarketSale(uint256)":"be9af536","createToken(string,uint256)":"72b3b620","fetchItemsListed()":"45f8fa80","fetchMarketItems()":"0f08efe0","fetchMyNFTs()":"202e3740","getApproved(uint256)":"081812fc","getListingPrice()":"12e85585","isApprovedForAll(address,address)":"e985e9c5","name()":"06fdde03","ownerOf(uint256)":"6352211e","resellToken(uint256,uint256)":"e219fc75","safeTransferFrom(address,address,uint256)":"42842e0e","safeTransferFrom(address,address,uint256,bytes)":"b88d4fde","setApprovalForAll(address,bool)":"a22cb465","supportsInterface(bytes4)":"01ffc9a7","symbol()":"95d89b41","tokenURI(uint256)":"c87b56dd","transferFrom(address,address,uint256)":"23b872dd","updateListingPrice(uint256)":"ae677aa3"}}}}}